{
  "contractName": "Lottery",
  "abi": [
    {
      "inputs": [],
      "stateMutability": "nonpayable",
      "type": "constructor"
    },
    {
      "anonymous": false,
      "inputs": [
        {
          "indexed": true,
          "internalType": "address",
          "name": "user",
          "type": "address"
        },
        {
          "indexed": false,
          "internalType": "uint256",
          "name": "tokenId",
          "type": "uint256"
        }
      ],
      "name": "Buy",
      "type": "event"
    },
    {
      "anonymous": false,
      "inputs": [
        {
          "indexed": true,
          "internalType": "address",
          "name": "user",
          "type": "address"
        },
        {
          "indexed": false,
          "internalType": "uint256",
          "name": "tokenid",
          "type": "uint256"
        },
        {
          "indexed": false,
          "internalType": "uint256",
          "name": "amount",
          "type": "uint256"
        }
      ],
      "name": "Claim",
      "type": "event"
    },
    {
      "anonymous": false,
      "inputs": [
        {
          "indexed": true,
          "internalType": "address",
          "name": "user",
          "type": "address"
        },
        {
          "indexed": false,
          "internalType": "uint256",
          "name": "amount",
          "type": "uint256"
        }
      ],
      "name": "DevWithdraw",
      "type": "event"
    },
    {
      "anonymous": false,
      "inputs": [
        {
          "indexed": true,
          "internalType": "uint256",
          "name": "issueIndex",
          "type": "uint256"
        },
        {
          "indexed": false,
          "internalType": "uint8[4]",
          "name": "winningNumbers",
          "type": "uint8[4]"
        }
      ],
      "name": "Drawing",
      "type": "event"
    },
    {
      "anonymous": false,
      "inputs": [
        {
          "indexed": true,
          "internalType": "address",
          "name": "user",
          "type": "address"
        },
        {
          "indexed": false,
          "internalType": "uint256",
          "name": "amount",
          "type": "uint256"
        }
      ],
      "name": "MultiBuy",
      "type": "event"
    },
    {
      "anonymous": false,
      "inputs": [
        {
          "indexed": true,
          "internalType": "address",
          "name": "user",
          "type": "address"
        },
        {
          "indexed": false,
          "internalType": "uint256",
          "name": "amount",
          "type": "uint256"
        }
      ],
      "name": "MultiClaim",
      "type": "event"
    },
    {
      "anonymous": false,
      "inputs": [
        {
          "indexed": true,
          "internalType": "address",
          "name": "previousOwner",
          "type": "address"
        },
        {
          "indexed": true,
          "internalType": "address",
          "name": "newOwner",
          "type": "address"
        }
      ],
      "name": "OwnershipTransferred",
      "type": "event"
    },
    {
      "anonymous": false,
      "inputs": [
        {
          "indexed": true,
          "internalType": "uint256",
          "name": "issueIndex",
          "type": "uint256"
        }
      ],
      "name": "Reset",
      "type": "event"
    },
    {
      "inputs": [],
      "name": "adminAddress",
      "outputs": [
        {
          "internalType": "address",
          "name": "",
          "type": "address"
        }
      ],
      "stateMutability": "view",
      "type": "function",
      "constant": true
    },
    {
      "inputs": [
        {
          "internalType": "uint256",
          "name": "",
          "type": "uint256"
        }
      ],
      "name": "allocation",
      "outputs": [
        {
          "internalType": "uint8",
          "name": "",
          "type": "uint8"
        }
      ],
      "stateMutability": "view",
      "type": "function",
      "constant": true
    },
    {
      "inputs": [],
      "name": "drawingPhase",
      "outputs": [
        {
          "internalType": "bool",
          "name": "",
          "type": "bool"
        }
      ],
      "stateMutability": "view",
      "type": "function",
      "constant": true
    },
    {
      "inputs": [
        {
          "internalType": "uint256",
          "name": "",
          "type": "uint256"
        },
        {
          "internalType": "uint256",
          "name": "",
          "type": "uint256"
        }
      ],
      "name": "historyAmount",
      "outputs": [
        {
          "internalType": "uint256",
          "name": "",
          "type": "uint256"
        }
      ],
      "stateMutability": "view",
      "type": "function",
      "constant": true
    },
    {
      "inputs": [
        {
          "internalType": "uint256",
          "name": "",
          "type": "uint256"
        },
        {
          "internalType": "uint256",
          "name": "",
          "type": "uint256"
        }
      ],
      "name": "historyNumbers",
      "outputs": [
        {
          "internalType": "uint8",
          "name": "",
          "type": "uint8"
        }
      ],
      "stateMutability": "view",
      "type": "function",
      "constant": true
    },
    {
      "inputs": [],
      "name": "issueIndex",
      "outputs": [
        {
          "internalType": "uint256",
          "name": "",
          "type": "uint256"
        }
      ],
      "stateMutability": "view",
      "type": "function",
      "constant": true
    },
    {
      "inputs": [],
      "name": "lastTimestamp",
      "outputs": [
        {
          "internalType": "uint256",
          "name": "",
          "type": "uint256"
        }
      ],
      "stateMutability": "view",
      "type": "function",
      "constant": true
    },
    {
      "inputs": [
        {
          "internalType": "uint256",
          "name": "",
          "type": "uint256"
        },
        {
          "internalType": "uint256",
          "name": "",
          "type": "uint256"
        }
      ],
      "name": "lotteryInfo",
      "outputs": [
        {
          "internalType": "uint256",
          "name": "",
          "type": "uint256"
        }
      ],
      "stateMutability": "view",
      "type": "function",
      "constant": true
    },
    {
      "inputs": [],
      "name": "lotteryNFT",
      "outputs": [
        {
          "internalType": "contract LotteryNFT",
          "name": "",
          "type": "address"
        }
      ],
      "stateMutability": "view",
      "type": "function",
      "constant": true
    },
    {
      "inputs": [],
      "name": "maxNumber",
      "outputs": [
        {
          "internalType": "uint8",
          "name": "",
          "type": "uint8"
        }
      ],
      "stateMutability": "view",
      "type": "function",
      "constant": true
    },
    {
      "inputs": [],
      "name": "minPrice",
      "outputs": [
        {
          "internalType": "uint256",
          "name": "",
          "type": "uint256"
        }
      ],
      "stateMutability": "view",
      "type": "function",
      "constant": true
    },
    {
      "inputs": [],
      "name": "owner",
      "outputs": [
        {
          "internalType": "address",
          "name": "",
          "type": "address"
        }
      ],
      "stateMutability": "view",
      "type": "function",
      "constant": true
    },
    {
      "inputs": [],
      "name": "pharm",
      "outputs": [
        {
          "internalType": "contract IERC20",
          "name": "",
          "type": "address"
        }
      ],
      "stateMutability": "view",
      "type": "function",
      "constant": true
    },
    {
      "inputs": [],
      "name": "renounceOwnership",
      "outputs": [],
      "stateMutability": "nonpayable",
      "type": "function"
    },
    {
      "inputs": [],
      "name": "totalAddresses",
      "outputs": [
        {
          "internalType": "uint256",
          "name": "",
          "type": "uint256"
        }
      ],
      "stateMutability": "view",
      "type": "function",
      "constant": true
    },
    {
      "inputs": [],
      "name": "totalAmount",
      "outputs": [
        {
          "internalType": "uint256",
          "name": "",
          "type": "uint256"
        }
      ],
      "stateMutability": "view",
      "type": "function",
      "constant": true
    },
    {
      "inputs": [
        {
          "internalType": "address",
          "name": "newOwner",
          "type": "address"
        }
      ],
      "name": "transferOwnership",
      "outputs": [],
      "stateMutability": "nonpayable",
      "type": "function"
    },
    {
      "inputs": [
        {
          "internalType": "uint256",
          "name": "",
          "type": "uint256"
        },
        {
          "internalType": "uint64",
          "name": "",
          "type": "uint64"
        }
      ],
      "name": "userBuyAmountSum",
      "outputs": [
        {
          "internalType": "uint256",
          "name": "",
          "type": "uint256"
        }
      ],
      "stateMutability": "view",
      "type": "function",
      "constant": true
    },
    {
      "inputs": [
        {
          "internalType": "address",
          "name": "",
          "type": "address"
        },
        {
          "internalType": "uint256",
          "name": "",
          "type": "uint256"
        }
      ],
      "name": "userInfo",
      "outputs": [
        {
          "internalType": "uint256",
          "name": "",
          "type": "uint256"
        }
      ],
      "stateMutability": "view",
      "type": "function",
      "constant": true
    },
    {
      "inputs": [
        {
          "internalType": "uint256",
          "name": "",
          "type": "uint256"
        }
      ],
      "name": "winningNumbers",
      "outputs": [
        {
          "internalType": "uint8",
          "name": "",
          "type": "uint8"
        }
      ],
      "stateMutability": "view",
      "type": "function",
      "constant": true
    },
    {
      "inputs": [
        {
          "internalType": "contract IERC20",
          "name": "_pharm",
          "type": "address"
        },
        {
          "internalType": "contract LotteryNFT",
          "name": "_lottery",
          "type": "address"
        },
        {
          "internalType": "uint256",
          "name": "_minPrice",
          "type": "uint256"
        },
        {
          "internalType": "uint8",
          "name": "_maxNumber",
          "type": "uint8"
        },
        {
          "internalType": "address",
          "name": "_owner",
          "type": "address"
        },
        {
          "internalType": "address",
          "name": "_adminAddress",
          "type": "address"
        }
      ],
      "name": "initialize",
      "outputs": [],
      "stateMutability": "nonpayable",
      "type": "function"
    },
    {
      "inputs": [],
      "name": "drawed",
      "outputs": [
        {
          "internalType": "bool",
          "name": "",
          "type": "bool"
        }
      ],
      "stateMutability": "view",
      "type": "function",
      "constant": true
    },
    {
      "inputs": [],
      "name": "reset",
      "outputs": [],
      "stateMutability": "nonpayable",
      "type": "function"
    },
    {
      "inputs": [],
      "name": "enterDrawingPhase",
      "outputs": [],
      "stateMutability": "nonpayable",
      "type": "function"
    },
    {
      "inputs": [
        {
          "internalType": "uint256",
          "name": "_externalRandomNumber",
          "type": "uint256"
        }
      ],
      "name": "drawing",
      "outputs": [],
      "stateMutability": "nonpayable",
      "type": "function"
    },
    {
      "inputs": [
        {
          "internalType": "uint256",
          "name": "_price",
          "type": "uint256"
        },
        {
          "internalType": "uint8[4]",
          "name": "_numbers",
          "type": "uint8[4]"
        }
      ],
      "name": "buy",
      "outputs": [],
      "stateMutability": "nonpayable",
      "type": "function"
    },
    {
      "inputs": [
        {
          "internalType": "uint256",
          "name": "_price",
          "type": "uint256"
        },
        {
          "internalType": "uint8[4][]",
          "name": "_numbers",
          "type": "uint8[4][]"
        }
      ],
      "name": "multiBuy",
      "outputs": [],
      "stateMutability": "nonpayable",
      "type": "function"
    },
    {
      "inputs": [
        {
          "internalType": "uint256",
          "name": "_tokenId",
          "type": "uint256"
        }
      ],
      "name": "claimReward",
      "outputs": [],
      "stateMutability": "nonpayable",
      "type": "function"
    },
    {
      "inputs": [
        {
          "internalType": "uint256[]",
          "name": "_tickets",
          "type": "uint256[]"
        }
      ],
      "name": "multiClaim",
      "outputs": [],
      "stateMutability": "nonpayable",
      "type": "function"
    },
    {
      "inputs": [
        {
          "internalType": "uint8[4]",
          "name": "number",
          "type": "uint8[4]"
        }
      ],
      "name": "generateNumberIndexKey",
      "outputs": [
        {
          "internalType": "uint64[11]",
          "name": "",
          "type": "uint64[11]"
        }
      ],
      "stateMutability": "pure",
      "type": "function",
      "constant": true
    },
    {
      "inputs": [
        {
          "internalType": "uint256",
          "name": "_issueIndex",
          "type": "uint256"
        },
        {
          "internalType": "uint256",
          "name": "_matchingNumber",
          "type": "uint256"
        }
      ],
      "name": "getMatchingRewardAmount",
      "outputs": [
        {
          "internalType": "uint256",
          "name": "",
          "type": "uint256"
        }
      ],
      "stateMutability": "view",
      "type": "function",
      "constant": true
    },
    {
      "inputs": [
        {
          "internalType": "uint256",
          "name": "_issueIndex",
          "type": "uint256"
        }
      ],
      "name": "getTotalRewards",
      "outputs": [
        {
          "internalType": "uint256",
          "name": "",
          "type": "uint256"
        }
      ],
      "stateMutability": "view",
      "type": "function",
      "constant": true
    },
    {
      "inputs": [
        {
          "internalType": "uint256",
          "name": "_tokenId",
          "type": "uint256"
        }
      ],
      "name": "getRewardView",
      "outputs": [
        {
          "internalType": "uint256",
          "name": "",
          "type": "uint256"
        }
      ],
      "stateMutability": "view",
      "type": "function",
      "constant": true
    },
    {
      "inputs": [
        {
          "internalType": "address",
          "name": "_adminAddress",
          "type": "address"
        }
      ],
      "name": "setAdmin",
      "outputs": [],
      "stateMutability": "nonpayable",
      "type": "function"
    },
    {
      "inputs": [
        {
          "internalType": "uint256",
          "name": "_amount",
          "type": "uint256"
        }
      ],
      "name": "adminWithdraw",
      "outputs": [],
      "stateMutability": "nonpayable",
      "type": "function"
    },
    {
      "inputs": [
        {
          "internalType": "uint256",
          "name": "_price",
          "type": "uint256"
        }
      ],
      "name": "setMinPrice",
      "outputs": [],
      "stateMutability": "nonpayable",
      "type": "function"
    },
    {
      "inputs": [
        {
          "internalType": "uint8",
          "name": "_maxNumber",
          "type": "uint8"
        }
      ],
      "name": "setMaxNumber",
      "outputs": [],
      "stateMutability": "nonpayable",
      "type": "function"
    },
    {
      "inputs": [
        {
          "internalType": "uint8",
          "name": "_allcation1",
          "type": "uint8"
        },
        {
          "internalType": "uint8",
          "name": "_allcation2",
          "type": "uint8"
        },
        {
          "internalType": "uint8",
          "name": "_allcation3",
          "type": "uint8"
        }
      ],
      "name": "setAllocation",
      "outputs": [],
      "stateMutability": "nonpayable",
      "type": "function"
    }
  ],
  "bytecode": "0x6000600b819055600c819055600d819055610100604052608081815260a082905260c082905260e0919091526200003b90601190600462000050565b503480156200004957600080fd5b5062000101565b600183019183908215620000d85791602002820160005b83821115620000a757835183826101000a81548160ff021916908360ff160217905550926020019260010160208160000104928301926001030262000067565b8015620000d65782816101000a81549060ff0219169055600101602081600001049283019260010302620000a7565b505b50620000e6929150620000ea565b5090565b5b80821115620000e65760008155600101620000eb565b61331280620001116000396000f3fe608060405234801561001057600080fd5b50600436106102325760003560e01c80636a28f82811610130578063c39f49c0116100b8578063e13454161161007c578063e13454161461047d578063e45be8eb14610485578063e8adfbc71461048d578063f2fde38b14610495578063fc6f9468146104a857610232565b8063c39f49c014610434578063cfad527714610447578063d1f7dbcf1461044f578063d411b0fa14610462578063d826f88f1461047557610232565b8063850bad94116100ff578063850bad94146103d357806385dcdf1b146103e65780638da5cb5b14610406578063a42206c91461040e578063ae169a501461042157610232565b80636a28f8281461039d578063704b6c02146103a5578063715018a6146103b85780637c5b4a37146103c057610232565b80633a4f6999116101be578063552164ee11610182578063552164ee1461033e57806359bcbd68146103515780635c17623a146103645780635ea8cd12146103775780636575243f1461038a57610232565b80633a4f6999146102d9578063438209f5146102ee5780634d226c10146103035780634e45f095146103185780634ed73d281461032b57610232565b80631ff68866116102055780631ff688661461028557806321ce919d1461028d5780632bdff851146102a05780632f506b20146102b3578063324a5562146102c657610232565b806311e420651461023757806314c20d571461024c57806319d8ac611461025f5780631a39d8ef1461027d575b600080fd5b61024a610245366004612b99565b6104b0565b005b61024a61025a366004612ce8565b6105fd565b6102676108e4565b604051610274919061318b565b60405180910390f35b6102676108ea565b61024a6108f0565b61026761029b366004612a25565b61094e565b61024a6102ae366004612c41565b61097f565b6102676102c1366004612d35565b610cc2565b61024a6102d4366004612d6f565b610cdf565b6102e1610d29565b60405161027491906131a2565b6102f6610d39565b6040516102749190612ef0565b61030b610d42565b6040516102749190612dfb565b6102e1610326366004612c11565b610d51565b61024a610339366004612a50565b610d7b565b61026761034c366004612c11565b611007565b6102e161035f366004612d14565b61107b565b61024a610372366004612d8b565b6110b4565b61024a610385366004612c11565b611114565b610267610398366004612d14565b611143565b61026761115f565b61024a6103b33660046129ed565b611165565b61024a6111e6565b61024a6103ce366004612c11565b61128f565b6102e16103e1366004612c11565b611314565b6103f96103f4366004612ae4565b611324565b6040516102749190612e82565b61030b6114ab565b61024a61041c366004612c11565b6114ba565b61024a61042f366004612c11565b611740565b610267610442366004612d14565b611956565b610267611972565b61026761045d366004612d14565b611978565b610267610470366004612c11565b6119aa565b61024a611ca1565b6102f6611ddd565b610267611de8565b61030b611dee565b61024a6104a33660046129ed565b611dfd565b61030b611efc565b600054600160a81b900460ff16806104cb57506104cb611f0b565b806104e05750600054600160a01b900460ff16155b61051b5760405162461bcd60e51b815260040180806020018281038252602e815260200180613264602e913960400191505060405180910390fd5b600054600160a81b900460ff16158015610552576000805460ff60a01b1960ff60a81b19909116600160a81b1716600160a01b1790555b600280546001600160a01b03199081166001600160a01b038a81169190911790925560038054821689841617815560058890556004805460ff60a01b1916600160a01b60ff8a16021790921692851692909217905542600e5560408051606081018252603c815260146020820152600a918101919091526105d69160019190612824565b506105e083611f1c565b80156105f4576000805460ff60a81b191690555b50505050505050565b610605611ddd565b1561062b5760405162461bcd60e51b8152600401610622906130ee565b60405180910390fd5b60105460ff161561064e5760405162461bcd60e51b815260040161062290613080565b6005548210156106705760405162461bcd60e51b8152600401610622906130b7565b60005b60048110156106c55760048054600160a01b900460ff169083908390811061069757fe5b602002015160ff1611156106bd5760405162461bcd60e51b815260040161062290612f70565b600101610673565b50600354600b54604051620dce4760ea1b81526000926001600160a01b0316916337391c00916106fd91339187918991600401612e0f565b602060405180830381600087803b15801561071757600080fd5b505af115801561072b573d6000803e3d6000fd5b505050506040513d601f19601f8201168201806040525081019061074f9190612c29565b600b546000908152600760209081526040808320805460018101825590845282842001849055338352600a90915290205490915061079157600c805460010190555b336000908152600a6020908152604082208054600181018255908352912001819055600d546107c09084611f67565b600d5542600e5560006107d283611324565b905060005b600b8110156108845761083b8560096000600b54815260200190815260200160002060008585600b811061080757fe5b60200201516001600160401b03166001600160401b0316815260200190815260200160002054611f6790919063ffffffff16565b600b805460009081526009602052604081209185908590811061085a57fe5b602090810291909101516001600160401b03168252810191909152604001600020556001016107d7565b5060025461089d906001600160a01b0316333087611fc8565b336001600160a01b03167fe3d4187f6ca4248660cc0ac8b8056515bac4a8132be2eca31d6d0cc170722a7e836040516108d6919061318b565b60405180910390a250505050565b600e5481565b600d5481565b6004546001600160a01b0316331461091a5760405162461bcd60e51b815260040161062290613125565b610922611ddd565b1561093f5760405162461bcd60e51b81526004016106229061316b565b6010805460ff19166001179055565b600a602052816000526040600020818154811061096a57600080fd5b90600052602060002001600091509150505481565b610987611ddd565b156109a45760405162461bcd60e51b8152600401610622906130ee565b60105460ff16156109c75760405162461bcd60e51b815260040161062290613080565b6005548210156109e95760405162461bcd60e51b8152600401610622906130b7565b6000805b8251811015610c635760005b6004811015610a9457600460149054906101000a900460ff1660ff16848381518110610a2157fe5b60200260200101518260048110610a3457fe5b602002015160ff1611158015610a7057506000848381518110610a5357fe5b60200260200101518260048110610a6657fe5b602002015160ff16115b610a8c5760405162461bcd60e51b815260040161062290612f70565b6001016109f9565b5060035483516000916001600160a01b0316906337391c00903390879086908110610abb57fe5b602002602001015188600b546040518563ffffffff1660e01b8152600401610ae69493929190612e0f565b602060405180830381600087803b158015610b0057600080fd5b505af1158015610b14573d6000803e3d6000fd5b505050506040513d601f19601f82011682018060405250810190610b389190612c29565b600b546000908152600760209081526040808320805460018101825590845282842001849055338352600a909152902054909150610b7a57600c805460010190555b336000908152600a6020908152604082208054600181018255908352912001819055600d54610ba99086611f67565b600d5542600e55610bba8386611f67565b92506000610bda858481518110610bcd57fe5b6020026020010151611324565b905060005b600b811015610c5857610c0f8760096000600b54815260200190815260200160002060008585600b811061080757fe5b600b8054600090815260096020526040812091859085908110610c2e57fe5b602090810291909101516001600160401b0316825281019190915260400160002055600101610bdf565b5050506001016109ed565b50600254610c7c906001600160a01b0316333084611fc8565b336001600160a01b03167f96c35ad1cc1743f26cb87980c38042de8082358ec6d171a7986d6e11dddfe85782604051610cb5919061318b565b60405180910390a2505050565b600960209081526000928352604080842090915290825290205481565b6004546001600160a01b03163314610d095760405162461bcd60e51b815260040161062290613125565b6004805460ff909216600160a01b0260ff60a01b19909216919091179055565b600454600160a01b900460ff1681565b60105460ff1681565b6002546001600160a01b031681565b600f8160048110610d6157600080fd5b60209182820401919006915054906101000a900460ff1681565b6000805b8251811015610f3f5760035483516001600160a01b0390911690636352211e90859084908110610dab57fe5b60200260200101516040518263ffffffff1660e01b8152600401610dcf919061318b565b60206040518083038186803b158015610de757600080fd5b505afa158015610dfb573d6000803e3d6000fd5b505050506040513d601f19601f82011682018060405250810190610e1f9190612a09565b6001600160a01b0316336001600160a01b031614610e4f5760405162461bcd60e51b815260040161062290613000565b60035483516001600160a01b03909116906336dbd2f990859084908110610e7257fe5b60200260200101516040518263ffffffff1660e01b8152600401610e96919061318b565b60206040518083038186803b158015610eae57600080fd5b505afa158015610ec2573d6000803e3d6000fd5b505050506040513d601f19601f82011682018060405250810190610ee69190612b79565b15610f035760405162461bcd60e51b81526004016106229061305f565b6000610f21848381518110610f1457fe5b60200260200101516119aa565b90508015610f3657610f338184611f67565b92505b50600101610d7f565b50600354604051637431035560e01b81526001600160a01b0390911690637431035590610f70908590600401612e3e565b600060405180830381600087803b158015610f8a57600080fd5b505af1158015610f9e573d6000803e3d6000fd5b505050506000811115610fc257600254610fc2906001600160a01b03163383612022565b336001600160a01b03167f6606374655494f5c0e2d6f392656e9777afd9ac5f61527d1bcad50b7e918a03e82604051610ffb919061318b565b60405180910390a25050565b6000600b5482111561102b5760405162461bcd60e51b815260040161062290612f9d565b611033611ddd565b1580156110415750600b5482145b1561104f5750600d54611076565b6000828152600860205260408120805490919061106857fe5b906000526020600020015490505b919050565b6006602052816000526040600020816004811061109757600080fd5b602081049091015460ff601f9092166101000a9004169150829050565b6004546001600160a01b031633146110de5760405162461bcd60e51b815260040161062290613125565b6040805160608101825260ff8086168252848116602083015283169181019190915261110e906001906003612824565b50505050565b6004546001600160a01b0316331461113e5760405162461bcd60e51b815260040161062290613125565b600555565b6007602052816000526040600020818154811061096a57600080fd5b600b5481565b6000546001600160a01b031633146111c4576040805162461bcd60e51b815260206004820181905260248201527f4f776e61626c653a2063616c6c6572206973206e6f7420746865206f776e6572604482015290519081900360640190fd5b600480546001600160a01b0319166001600160a01b0392909216919091179055565b6000546001600160a01b03163314611245576040805162461bcd60e51b815260206004820181905260248201527f4f776e61626c653a2063616c6c6572206973206e6f7420746865206f776e6572604482015290519081900360640190fd5b600080546040516001600160a01b03909116907f8be0079c531659141344cd1fd0a4f28419497f9722a3daafe3b4186f6b6457e0908390a3600080546001600160a01b0319169055565b6004546001600160a01b031633146112b95760405162461bcd60e51b815260040161062290613125565b6002546112d0906001600160a01b03163383612022565b336001600160a01b03167f050d1c64cc22ce461b9bc14f6b73852566da02b03c155242bc63169d1fec42aa82604051611309919061318b565b60405180910390a250565b60018160038110610d6157600080fd5b61132c6128b7565b6113346128d6565b825160ff90811682526020808501518216908301526040808501518216908301526060808501519091169082015261136a6128b7565b6060828101805160408086018051602080890180518a516201000094850264010000000092830266010000000000009092029190910101909601650100020003009081016001600160401b039081168b52855183518d51908702908a02010163010002009081018216948c0194909452885183518d51908702908a02010163010003009081018216978c0197909752885186518d51908702908a020101630200030090810182169a8c019a909a5288518651845190870299029890980190970101861660808a015280518a51840201610100908101871660a08b015284518b5185020161020001871660c08b015287519a518402909a0161030001861660e08a015283518151840201909101851698880198909852845197518102909701909101821661012086015291519151909402010190911661014082015292915050565b6000546001600160a01b031690565b6004546001600160a01b031633146114e45760405162461bcd60e51b815260040161062290613125565b6114ec611ddd565b156115095760405162461bcd60e51b815260040161062290612f2c565b60105460ff1661152b5760405162461bcd60e51b815260040161062290613028565b6004546000908190600160a01b900460ff16436000190140825b600a81101561156257611559600b54611007565b50600101611545565b5060005a905081600c5482886040516020016115819493929190612f11565b60408051601f19818403018152908290528051602091820120600f805460ff191687830660010160ff811691909117909155600d5491985096506115cb92859285918b9101612f11565b60408051601f19818403018152908290528051602091820120600f805460ff8884066001019081166101000261ff001990921691909117909155600e54919850965061161d92859285918b9101612f11565b60408051808303601f19018152908290528051602091820120600f805460ff600189850601908116620100000262ff00001990921691909117909155909750955061166e91849184918a9101612efb565b60408051808303601f190181529181528151602092830120600f805460ff60018985060190811663010000000263ff00000019909216919091178255600b5460009081526006909552929093209097509095506116cc9160046128f4565b506116d5612079565b600b5460009081526008602052604090206116f1916004612927565b506010805460ff19169055600b546040517fa13e935b188993737b3009d62bd916dcbe9e82d8236d75981eeadf26a1460d3d9061173090600f90612ebd565b60405180910390a2505050505050565b6003546040516331a9108f60e11b81526001600160a01b0390911690636352211e9061177090849060040161318b565b60206040518083038186803b15801561178857600080fd5b505afa15801561179c573d6000803e3d6000fd5b505050506040513d601f19601f820116820180604052508101906117c09190612a09565b6001600160a01b0316336001600160a01b0316146117f05760405162461bcd60e51b815260040161062290613000565b6003546040516336dbd2f960e01b81526001600160a01b03909116906336dbd2f99061182090849060040161318b565b60206040518083038186803b15801561183857600080fd5b505afa15801561184c573d6000803e3d6000fd5b505050506040513d601f19601f820116820180604052508101906118709190612b79565b1561188d5760405162461bcd60e51b81526004016106229061305f565b6000611898826119aa565b600354604051630ae169a560e41b81529192506001600160a01b03169063ae169a50906118c990859060040161318b565b600060405180830381600087803b1580156118e357600080fd5b505af11580156118f7573d6000803e3d6000fd5b50505050600081111561191b5760025461191b906001600160a01b03163383612022565b336001600160a01b03167f34fcbac0073d7c3d388e51312faf357774904998eeb8fca628b9e6f65ee1cbf78383604051610ffb929190613194565b6008602052816000526040600020818154811061096a57600080fd5b600c5481565b60008281526008602052604081208054600584900390811061199657fe5b906000526020600020015490505b92915050565b600354604051631bf1e00f60e01b815260009182916001600160a01b0390911690631bf1e00f906119df90869060040161318b565b60206040518083038186803b1580156119f757600080fd5b505afa158015611a0b573d6000803e3d6000fd5b505050506040513d601f19601f82011682018060405250810190611a2f9190612c29565b600354604051635f8e26a760e01b81529192506000916001600160a01b0390911690635f8e26a790611a6590879060040161318b565b60806040518083038186803b158015611a7d57600080fd5b505afa158015611a91573d6000803e3d6000fd5b505050506040513d601f19601f82011682018060405250810190611ab59190612aff565b60008381526006602052604080822081516080810192839052939450919291906004908285855b825461010083900a900460ff16815260206001928301818104948501949093039092029101808411611adc5790505050505050905080600060048110611b1e57fe5b602002015160ff16611b425760405162461bcd60e51b815260040161062290612f4c565b6000805b6004811015611b8c57838160048110611b5b57fe5b602002015160ff16838260048110611b6f57fe5b602002015160ff161415611b84578160010191505b600101611b46565b5060006001821115611c8757600354604051637bd0606560e11b81526000916001600160a01b03169063f7a0c0ca90611bc9908b9060040161318b565b60206040518083038186803b158015611be157600080fd5b505afa158015611bf5573d6000803e3d6000fd5b505050506040513d601f19601f82011682018060405250810190611c199190612c29565b90506000611c606064611c5a60018760040360038110611c3557fe5b602081049091015460ff601f9092166101000a900416611c548b611007565b906122d9565b90612332565b9050611c8281611c54611c738a88611978565b611c5a8664e8d4a510006122d9565b925050505b611c968164e8d4a51000612332565b979650505050505050565b6004546001600160a01b03163314611ccb5760405162461bcd60e51b815260040161062290613125565b611cd3611ddd565b611cef5760405162461bcd60e51b81526004016106229061314a565b42600e556000600c819055600d55600f805463ffffffff191690556010805460ff19169055600b805460018101909155611d2a906004611978565b611daf57600154600b54600091611d5591606491611c5a9160ff90911690611c549060001901611007565b604080516080810191829052919250611dad918391601190600490826000855b825461010083900a900460ff16815260206001928301818104948501949093039092029101808411611d755790505050505050612399565b505b600b546040517f01c3cbb0d62726ab09d163873ebf9aed99dd8dc08e57bc938f458132fd178cf690600090a2565b600f5460ff16151590565b60055481565b6003546001600160a01b031681565b6000546001600160a01b03163314611e5c576040805162461bcd60e51b815260206004820181905260248201527f4f776e61626c653a2063616c6c6572206973206e6f7420746865206f776e6572604482015290519081900360640190fd5b6001600160a01b038116611ea15760405162461bcd60e51b81526004018080602001828103825260268152602001806132186026913960400191505060405180910390fd5b600080546040516001600160a01b03808516939216917f8be0079c531659141344cd1fd0a4f28419497f9722a3daafe3b4186f6b6457e091a3600080546001600160a01b0319166001600160a01b0392909216919091179055565b6004546001600160a01b031681565b6000611f163061250a565b15905090565b600080546001600160a01b0319166001600160a01b03831690811782556040519091907f8be0079c531659141344cd1fd0a4f28419497f9722a3daafe3b4186f6b6457e0908290a350565b600082820183811015611fc1576040805162461bcd60e51b815260206004820152601b60248201527f536166654d6174683a206164646974696f6e206f766572666c6f770000000000604482015290519081900360640190fd5b9392505050565b604080516001600160a01b0380861660248301528416604482015260648082018490528251808303909101815260849091019091526020810180516001600160e01b03166323b872dd60e01b17905261110e908590612510565b604080516001600160a01b038416602482015260448082018490528251808303909101815260649091019091526020810180516001600160e01b031663a9059cbb60e01b179052612074908490612510565b505050565b6120816128d6565b6040805160808101918290526000916120d79190600f906004908286855b825461010083900a900460ff1681526020600192830181810494850194909303909202910180841161209f5790505050505050611324565b600b54600081815260096020818152604080842086516001600160401b03908116865281845282862054878752858552888501519091168652818452918520549585529290915293945061215e918560025b60200201516001600160401b03166001600160401b031681526020019081526020016000205482611f6790919063ffffffff16565b600b54600090815260096020526040812091925061217f9190856003612129565b600b5460009081526009602052604081209192506121a09190856004612129565b905060006121b96121b28460046122d9565b83906125c1565b600b54600081815260096020818152604080842060a08b01516001600160401b031685528083529084205494845291905292935090916121fb91876006612129565b600b54600090815260096020526040812091925061221c9190876007612129565b600b54600090815260096020526040812091925061223d9190876008612129565b600b54600090815260096020819052604082209293506122609291908890612129565b600b546000908152600960205260408120919250612281919087600a612129565b905060006122ae6122938560036122d9565b6122a86122a18860066122d9565b8590611f67565b906125c1565b60408051608081018252600d5481526020810197909752860193909352505060608301525091505090565b6000826122e8575060006119a4565b828202828482816122f557fe5b0414611fc15760405162461bcd60e51b81526004018080602001828103825260218152602001806132926021913960400191505060405180910390fd5b6000808211612388576040805162461bcd60e51b815260206004820152601a60248201527f536166654d6174683a206469766973696f6e206279207a65726f000000000000604482015290519081900360640190fd5b81838161239157fe5b049392505050565b6123a1611ddd565b156123be5760405162461bcd60e51b8152600401610622906130ee565b60005b60048110156124135760048054600160a01b900460ff16908390839081106123e557fe5b602002015160ff16111561240b5760405162461bcd60e51b815260040161062290612fd4565b6001016123c1565b50600354600b54604051620dce4760ea1b81526000926001600160a01b0316916337391c009161244b91309187918991600401612e0f565b602060405180830381600087803b15801561246557600080fd5b505af1158015612479573d6000803e3d6000fd5b505050506040513d601f19601f8201168201806040525081019061249d9190612c29565b600b54600090815260076020908152604082208054600181018255908352912001819055600d549091506124d19084611f67565b600d5542600e5560405130907fe3d4187f6ca4248660cc0ac8b8056515bac4a8132be2eca31d6d0cc170722a7e90610cb590849061318b565b3b151590565b6000612565826040518060400160405280602081526020017f5361666545524332303a206c6f772d6c6576656c2063616c6c206661696c6564815250856001600160a01b031661261e9092919063ffffffff16565b8051909150156120745780806020019051602081101561258457600080fd5b50516120745760405162461bcd60e51b815260040180806020018281038252602a8152602001806132b3602a913960400191505060405180910390fd5b600082821115612618576040805162461bcd60e51b815260206004820152601e60248201527f536166654d6174683a207375627472616374696f6e206f766572666c6f770000604482015290519081900360640190fd5b50900390565b606061262d8484600085612635565b949350505050565b6060824710156126765760405162461bcd60e51b815260040180806020018281038252602681526020018061323e6026913960400191505060405180910390fd5b61267f8561250a565b6126d0576040805162461bcd60e51b815260206004820152601d60248201527f416464726573733a2063616c6c20746f206e6f6e2d636f6e7472616374000000604482015290519081900360640190fd5b600080866001600160a01b031685876040518082805190602001908083835b6020831061270e5780518252601f1990920191602091820191016126ef565b6001836020036101000a03801982511681845116808217855250505050505090500191505060006040518083038185875af1925050503d8060008114612770576040519150601f19603f3d011682016040523d82523d6000602084013e612775565b606091505b5091509150611c968282866060831561278f575081611fc1565b82511561279f5782518084602001fd5b8160405162461bcd60e51b81526004018080602001828103825283818151815260200191508051906020019080838360005b838110156127e95781810151838201526020016127d1565b50505050905090810190601f1680156128165780820380516001836020036101000a031916815260200191505b509250505060405180910390fd5b6001830191839082156128a75791602002820160005b8382111561287857835183826101000a81548160ff021916908360ff160217905550926020019260010160208160000104928301926001030261283a565b80156128a55782816101000a81549060ff0219169055600101602081600001049283019260010302612878565b505b506128b3929150612962565b5090565b604051806101600160405280600b906020820280368337509192915050565b60405180608001604052806004906020820280368337509192915050565b6001830191839082156128a75791601f016020900482015b828111156128a757825482559160010191906001019061290c565b8280548282559060005260206000209081019282156128a7579160200282015b828111156128a7578251825591602001919060010190612947565b5b808211156128b35760008155600101612963565b600082601f830112612987578081fd5b604051608081018181106001600160401b03821117156129a357fe5b6040528083608081018610156129b7578384fd5b835b60048110156129e25781356129cd81613208565b835260209283019291909101906001016129b9565b509195945050505050565b6000602082840312156129fe578081fd5b8135611fc1816131f0565b600060208284031215612a1a578081fd5b8151611fc1816131f0565b60008060408385031215612a37578081fd5b8235612a42816131f0565b946020939093013593505050565b60006020808385031215612a62578182fd5b82356001600160401b03811115612a77578283fd5b8301601f81018513612a87578283fd5b8035612a9a612a95826131d3565b6131b0565b8181528381019083850185840285018601891015612ab6578687fd5b8694505b83851015612ad8578035835260019490940193918501918501612aba565b50979650505050505050565b600060808284031215612af5578081fd5b611fc18383612977565b600060808284031215612b10578081fd5b82601f830112612b1e578081fd5b604051608081018181106001600160401b0382111715612b3a57fe5b604052808360808101861015612b4e578384fd5b835b60048110156129e2578151612b6481613208565b83526020928301929190910190600101612b50565b600060208284031215612b8a578081fd5b81518015158114611fc1578182fd5b60008060008060008060c08789031215612bb1578182fd5b8635612bbc816131f0565b95506020870135612bcc816131f0565b9450604087013593506060870135612be381613208565b92506080870135612bf3816131f0565b915060a0870135612c03816131f0565b809150509295509295509295565b600060208284031215612c22578081fd5b5035919050565b600060208284031215612c3a578081fd5b5051919050565b60008060408385031215612c53578182fd5b823591506020808401356001600160401b03811115612c70578283fd5b8401601f81018613612c80578283fd5b8035612c8e612a95826131d3565b818152838101908385016080808502860187018b1015612cac578788fd5b8795505b84861015612cd857612cc28b83612977565b8452600195909501949286019290810190612cb0565b5096999098509650505050505050565b60008060a08385031215612cfa578182fd5b82359150612d0b8460208501612977565b90509250929050565b60008060408385031215612d26578182fd5b50508035926020909101359150565b60008060408385031215612d47578182fd5b8235915060208301356001600160401b0381168114612d64578182fd5b809150509250929050565b600060208284031215612d80578081fd5b8135611fc181613208565b600080600060608486031215612d9f578081fd5b8335612daa81613208565b92506020840135612dba81613208565b91506040840135612dca81613208565b809150509250925092565b8060005b600481101561110e57815160ff16845260209384019390910190600101612dd9565b6001600160a01b0391909116815260200190565b6001600160a01b038516815260e08101612e2c6020830186612dd5565b60a082019390935260c0015292915050565b6020808252825182820181905260009190848201906040850190845b81811015612e7657835183529284019291840191600101612e5a565b50909695505050505050565b6101608101818360005b600b811015612eb45781516001600160401b0316835260209283019290910190600101612e8c565b50505092915050565b905460ff8082168352600882901c81166020840152601082901c8116604084015260189190911c16606082015260800190565b901515815260200190565b9283526020830191909152604082015260600190565b93845260208401929092526040830152606082015260800190565b60208082526006908201526572657365743f60d01b604082015260600190565b6020808252600a90820152691b9bdd08191c985dd95960b21b604082015260600190565b602080825260139082015272657863656564206e756d6265722073636f706560681b604082015260600190565b60208082526019908201527f5f6973737565496e646578203c3d206973737565496e64657800000000000000604082015260600190565b60208082526012908201527165786365656420746865206d6178696d756d60701b604082015260600190565b6020808252600e908201526d3737ba10333937b69037bbb732b960911b604082015260600190565b60208082526019908201527f656e7465722064726177696e6720706861736520666972737400000000000000604082015260600190565b60208082526007908201526618db185a5b595960ca1b604082015260600190565b60208082526018908201527f64726177696e672c2063616e206e6f7420627579206e6f770000000000000000604082015260600190565b60208082526019908201527f7072696365206d7573742061626f7665206d696e507269636500000000000000604082015260600190565b60208082526017908201527f6472617765642c2063616e206e6f7420627579206e6f77000000000000000000604082015260600190565b6020808252600b908201526a61646d696e3a207775743f60a81b604082015260600190565b6020808252600790820152666472617765643f60c81b604082015260600190565b602080825260069082015265191c985dd95960d21b604082015260600190565b90815260200190565b918252602082015260400190565b60ff91909116815260200190565b6040518181016001600160401b03811182821017156131cb57fe5b604052919050565b60006001600160401b038211156131e657fe5b5060209081020190565b6001600160a01b038116811461320557600080fd5b50565b60ff8116811461320557600080fdfe4f776e61626c653a206e6577206f776e657220697320746865207a65726f2061646472657373416464726573733a20696e73756666696369656e742062616c616e636520666f722063616c6c496e697469616c697a61626c653a20636f6e747261637420697320616c726561647920696e697469616c697a6564536166654d6174683a206d756c7469706c69636174696f6e206f766572666c6f775361666545524332303a204552433230206f7065726174696f6e20646964206e6f742073756363656564a264697066735822122085fbd76282a5f7a1724d4b6c85fac09e6ac817d166407a98736539e73f2dd5c264736f6c63430007060033",
  "immutableReferences": {},
  "source": "// SPDX-License-Identifier: MIT\n\npragma solidity ^0.7.6;\npragma experimental ABIEncoderV2;\n\nimport \"./LotteryNFT.sol\";\nimport \"./LotteryOwnable.sol\";\nimport \"@openzeppelin/contracts/token/ERC20/IERC20.sol\";\nimport \"@openzeppelin/contracts/token/ERC20/SafeERC20.sol\";\nimport \"@openzeppelin/contracts/math/SafeMath.sol\";\nimport \"@openzeppelin/contracts/proxy/Initializable.sol\";\n\n// import \"@nomiclabs/buidler/console.sol\";\n\n// 4 numbers\ncontract Lottery is LotteryOwnable, Initializable {\n    using SafeMath for uint256;\n    using SafeMath for uint8;\n    using SafeERC20 for IERC20;\n\n    uint8 constant keyLengthForEachBuy = 11;\n    // Allocation for first/sencond/third reward\n    uint8[3] public allocation;\n    // The TOKEN to buy lottery\n    IERC20 public pharm;\n    // The Lottery NFT for tickets\n    LotteryNFT public lotteryNFT;\n    // adminAddress\n    address public adminAddress;\n    // maxNumber\n    uint8 public maxNumber;\n    // minPrice, if decimal is not 18, please reset it\n    uint256 public minPrice;\n\n    // =================================\n\n    // issueId => winningNumbers[numbers]\n    mapping (uint256 => uint8[4]) public historyNumbers;\n    // issueId => [tokenId]\n    mapping (uint256 => uint256[]) public lotteryInfo;\n    // issueId => [totalAmount, firstMatchAmount, secondMatchingAmount, thirdMatchingAmount]\n    mapping (uint256 => uint256[]) public historyAmount;\n    // issueId => trickyNumber => buyAmountSum\n    mapping (uint256 => mapping(uint64 => uint256)) public userBuyAmountSum;\n    // address => [tokenId]\n    mapping (address => uint256[]) public userInfo;\n\n    uint256 public issueIndex = 0;\n    uint256 public totalAddresses = 0;\n    uint256 public totalAmount = 0;\n    uint256 public lastTimestamp;\n\n    uint8[4] public winningNumbers;\n\n    // default false\n    bool public drawingPhase;\n\n    // =================================\n\n    event Buy(address indexed user, uint256 tokenId);\n    event Drawing(uint256 indexed issueIndex, uint8[4] winningNumbers);\n    event Claim(address indexed user, uint256 tokenid, uint256 amount);\n    event DevWithdraw(address indexed user, uint256 amount);\n    event Reset(uint256 indexed issueIndex);\n    event MultiClaim(address indexed user, uint256 amount);\n    event MultiBuy(address indexed user, uint256 amount);\n\n    constructor() {\n    }\n\n    function initialize(\n        IERC20 _pharm,\n        LotteryNFT _lottery,\n        uint256 _minPrice,\n        uint8 _maxNumber,\n        address _owner,\n        address _adminAddress\n    ) public initializer {\n        pharm = _pharm;\n        lotteryNFT = _lottery;\n        minPrice = _minPrice;\n        maxNumber = _maxNumber;\n        adminAddress = _adminAddress;\n        lastTimestamp = block.timestamp;\n        allocation = [60, 20, 10];\n        initOwner(_owner);\n    }\n\n    uint8[4] private nullTicket = [0,0,0,0];\n\n    modifier onlyAdmin() {\n        require(msg.sender == adminAddress, \"admin: wut?\");\n        _;\n    }\n\n    function drawed() public view returns(bool) {\n        return winningNumbers[0] != 0;\n    }\n\n    function reset() external onlyAdmin {\n        require(drawed(), \"drawed?\");\n        lastTimestamp = block.timestamp;\n        totalAddresses = 0;\n        totalAmount = 0;\n        winningNumbers[0]=0;\n        winningNumbers[1]=0;\n        winningNumbers[2]=0;\n        winningNumbers[3]=0;\n        drawingPhase = false;\n        issueIndex = issueIndex +1;\n        if(getMatchingRewardAmount(issueIndex-1, 4) == 0) {\n            uint256 amount = getTotalRewards(issueIndex-1).mul(allocation[0]).div(100);\n            internalBuy(amount, nullTicket);\n        }\n        emit Reset(issueIndex);\n    }\n\n    function enterDrawingPhase() external onlyAdmin {\n        require(!drawed(), 'drawed');\n        drawingPhase = true;\n    }\n\n    // add externalRandomNumber to prevent node validators exploiting\n    function drawing(uint256 _externalRandomNumber) external onlyAdmin {\n        require(!drawed(), \"reset?\");\n        require(drawingPhase, \"enter drawing phase first\");\n        bytes32 _structHash;\n        uint256 _randomNumber;\n        uint8 _maxNumber = maxNumber;\n        bytes32 _blockhash = blockhash(block.number-1);\n\n        // waste some gas fee here\n        for (uint i = 0; i < 10; i++) {\n            getTotalRewards(issueIndex);\n        }\n        uint256 gasLeft = gasleft();\n\n        // 1\n        _structHash = keccak256(\n            abi.encode(\n                _blockhash,\n                totalAddresses,\n                gasLeft,\n                _externalRandomNumber\n            )\n        );\n        _randomNumber  = uint256(_structHash);\n        assembly {_randomNumber := add(mod(_randomNumber, _maxNumber),1)}\n        winningNumbers[0]=uint8(_randomNumber);\n\n        // 2\n        _structHash = keccak256(\n            abi.encode(\n                _blockhash,\n                totalAmount,\n                gasLeft,\n                _externalRandomNumber\n            )\n        );\n        _randomNumber  = uint256(_structHash);\n        assembly {_randomNumber := add(mod(_randomNumber, _maxNumber),1)}\n        winningNumbers[1]=uint8(_randomNumber);\n\n        // 3\n        _structHash = keccak256(\n            abi.encode(\n                _blockhash,\n                lastTimestamp,\n                gasLeft,\n                _externalRandomNumber\n            )\n        );\n        _randomNumber  = uint256(_structHash);\n        assembly {_randomNumber := add(mod(_randomNumber, _maxNumber),1)}\n        winningNumbers[2]=uint8(_randomNumber);\n\n        // 4\n        _structHash = keccak256(\n            abi.encode(\n                _blockhash,\n                gasLeft,\n                _externalRandomNumber\n            )\n        );\n        _randomNumber  = uint256(_structHash);\n        assembly {_randomNumber := add(mod(_randomNumber, _maxNumber),1)}\n        winningNumbers[3]=uint8(_randomNumber);\n        historyNumbers[issueIndex] = winningNumbers;\n        historyAmount[issueIndex] = calculateMatchingRewardAmount();\n        drawingPhase = false;\n        emit Drawing(issueIndex, winningNumbers);\n    }\n\n    function internalBuy(uint256 _price, uint8[4] memory _numbers) internal {\n        require (!drawed(), 'drawed, can not buy now');\n        for (uint i = 0; i < 4; i++) {\n            require (_numbers[i] <= maxNumber, 'exceed the maximum');\n        }\n        uint256 tokenId = lotteryNFT.newLotteryItem(address(this), _numbers, _price, issueIndex);\n        lotteryInfo[issueIndex].push(tokenId);\n        totalAmount = totalAmount.add(_price);\n        lastTimestamp = block.timestamp;\n        emit Buy(address(this), tokenId);\n\n    }\n\n    function buy(uint256 _price, uint8[4] memory _numbers) external {\n        require(!drawed(), 'drawed, can not buy now');\n        require(!drawingPhase, 'drawing, can not buy now');\n        require (_price >= minPrice, 'price must above minPrice');\n        for (uint i = 0; i < 4; i++) {\n            require (_numbers[i] <= maxNumber, 'exceed number scope');\n        }\n        uint256 tokenId = lotteryNFT.newLotteryItem(msg.sender, _numbers, _price, issueIndex);\n        lotteryInfo[issueIndex].push(tokenId);\n        if (userInfo[msg.sender].length == 0) {\n            totalAddresses = totalAddresses + 1;\n        }\n        userInfo[msg.sender].push(tokenId);\n        totalAmount = totalAmount.add(_price);\n        lastTimestamp = block.timestamp;\n        uint64[keyLengthForEachBuy] memory userNumberIndex = generateNumberIndexKey(_numbers);\n        for (uint i = 0; i < keyLengthForEachBuy; i++) {\n            userBuyAmountSum[issueIndex][userNumberIndex[i]]=userBuyAmountSum[issueIndex][userNumberIndex[i]].add(_price);\n        }\n        pharm.safeTransferFrom(address(msg.sender), address(this), _price);\n        emit Buy(msg.sender, tokenId);\n    }\n\n    function  multiBuy(uint256 _price, uint8[4][] memory _numbers) external {\n        require (!drawed(), 'drawed, can not buy now');\n        require(!drawingPhase, 'drawing, can not buy now');\n        require (_price >= minPrice, 'price must above minPrice');\n        uint256 totalPrice  = 0;\n        for (uint i = 0; i < _numbers.length; i++) {\n            for (uint j = 0; j < 4; j++) {\n                require (_numbers[i][j] <= maxNumber && _numbers[i][j] > 0, 'exceed number scope');\n            }\n            uint256 tokenId = lotteryNFT.newLotteryItem(msg.sender, _numbers[i], _price, issueIndex);\n            lotteryInfo[issueIndex].push(tokenId);\n            if (userInfo[msg.sender].length == 0) {\n                totalAddresses = totalAddresses + 1;\n            }\n            userInfo[msg.sender].push(tokenId);\n            totalAmount = totalAmount.add(_price);\n            lastTimestamp = block.timestamp;\n            totalPrice = totalPrice.add(_price);\n            uint64[keyLengthForEachBuy] memory numberIndexKey = generateNumberIndexKey(_numbers[i]);\n            for (uint k = 0; k < keyLengthForEachBuy; k++) {\n                userBuyAmountSum[issueIndex][numberIndexKey[k]]=userBuyAmountSum[issueIndex][numberIndexKey[k]].add(_price);\n            }\n        }\n        pharm.safeTransferFrom(address(msg.sender), address(this), totalPrice);\n        emit MultiBuy(msg.sender, totalPrice);\n    }\n\n    function claimReward(uint256 _tokenId) external {\n        require(msg.sender == lotteryNFT.ownerOf(_tokenId), \"not from owner\");\n        require (!lotteryNFT.getClaimStatus(_tokenId), \"claimed\");\n        uint256 reward = getRewardView(_tokenId);\n        lotteryNFT.claimReward(_tokenId);\n        if(reward>0) {\n            pharm.safeTransfer(address(msg.sender), reward);\n        }\n        emit Claim(msg.sender, _tokenId, reward);\n    }\n\n    function  multiClaim(uint256[] memory _tickets) external {\n        uint256 totalReward = 0;\n        for (uint i = 0; i < _tickets.length; i++) {\n            require (msg.sender == lotteryNFT.ownerOf(_tickets[i]), \"not from owner\");\n            require (!lotteryNFT.getClaimStatus(_tickets[i]), \"claimed\");\n            uint256 reward = getRewardView(_tickets[i]);\n            if(reward>0) {\n                totalReward = reward.add(totalReward);\n            }\n        }\n        lotteryNFT.multiClaimReward(_tickets);\n        if(totalReward>0) {\n            pharm.safeTransfer(address(msg.sender), totalReward);\n        }\n        emit MultiClaim(msg.sender, totalReward);\n    }\n\n    function generateNumberIndexKey(uint8[4] memory number) public pure returns (uint64[keyLengthForEachBuy] memory) {\n        uint64[4] memory tempNumber;\n        tempNumber[0]=uint64(number[0]);\n        tempNumber[1]=uint64(number[1]);\n        tempNumber[2]=uint64(number[2]);\n        tempNumber[3]=uint64(number[3]);\n\n        uint64[keyLengthForEachBuy] memory result;\n        result[0] = tempNumber[0]*256*256*256*256*256*256 + 1*256*256*256*256*256 + tempNumber[1]*256*256*256*256 + 2*256*256*256 + tempNumber[2]*256*256 + 3*256 + tempNumber[3];\n\n        result[1] = tempNumber[0]*256*256*256*256 + 1*256*256*256 + tempNumber[1]*256*256 + 2*256+ tempNumber[2];\n        result[2] = tempNumber[0]*256*256*256*256 + 1*256*256*256 + tempNumber[1]*256*256 + 3*256+ tempNumber[3];\n        result[3] = tempNumber[0]*256*256*256*256 + 2*256*256*256 + tempNumber[2]*256*256 + 3*256 + tempNumber[3];\n        result[4] = 1*256*256*256*256*256 + tempNumber[1]*256*256*256*256 + 2*256*256*256 + tempNumber[2]*256*256 + 3*256 + tempNumber[3];\n\n        result[5] = tempNumber[0]*256*256 + 1*256+ tempNumber[1];\n        result[6] = tempNumber[0]*256*256 + 2*256+ tempNumber[2];\n        result[7] = tempNumber[0]*256*256 + 3*256+ tempNumber[3];\n        result[8] = 1*256*256*256 + tempNumber[1]*256*256 + 2*256 + tempNumber[2];\n        result[9] = 1*256*256*256 + tempNumber[1]*256*256 + 3*256 + tempNumber[3];\n        result[10] = 2*256*256*256 + tempNumber[2]*256*256 + 3*256 + tempNumber[3];\n\n        return result;\n    }\n\n    function calculateMatchingRewardAmount() internal view returns (uint256[4] memory) {\n        uint64[keyLengthForEachBuy] memory numberIndexKey = generateNumberIndexKey(winningNumbers);\n\n        uint256 totalAmout1 = userBuyAmountSum[issueIndex][numberIndexKey[0]];\n\n        uint256 sumForTotalAmout2 = userBuyAmountSum[issueIndex][numberIndexKey[1]];\n        sumForTotalAmout2 = sumForTotalAmout2.add(userBuyAmountSum[issueIndex][numberIndexKey[2]]);\n        sumForTotalAmout2 = sumForTotalAmout2.add(userBuyAmountSum[issueIndex][numberIndexKey[3]]);\n        sumForTotalAmout2 = sumForTotalAmout2.add(userBuyAmountSum[issueIndex][numberIndexKey[4]]);\n\n        uint256 totalAmout2 = sumForTotalAmout2.sub(totalAmout1.mul(4));\n\n        uint256 sumForTotalAmout3 = userBuyAmountSum[issueIndex][numberIndexKey[5]];\n        sumForTotalAmout3 = sumForTotalAmout3.add(userBuyAmountSum[issueIndex][numberIndexKey[6]]);\n        sumForTotalAmout3 = sumForTotalAmout3.add(userBuyAmountSum[issueIndex][numberIndexKey[7]]);\n        sumForTotalAmout3 = sumForTotalAmout3.add(userBuyAmountSum[issueIndex][numberIndexKey[8]]);\n        sumForTotalAmout3 = sumForTotalAmout3.add(userBuyAmountSum[issueIndex][numberIndexKey[9]]);\n        sumForTotalAmout3 = sumForTotalAmout3.add(userBuyAmountSum[issueIndex][numberIndexKey[10]]);\n\n        uint256 totalAmout3 = sumForTotalAmout3.add(totalAmout1.mul(6)).sub(sumForTotalAmout2.mul(3));\n\n        return [totalAmount, totalAmout1, totalAmout2, totalAmout3];\n    }\n\n    function getMatchingRewardAmount(uint256 _issueIndex, uint256 _matchingNumber) public view returns (uint256) {\n        return historyAmount[_issueIndex][5 - _matchingNumber];\n    }\n\n    function getTotalRewards(uint256 _issueIndex) public view returns(uint256) {\n        require (_issueIndex <= issueIndex, '_issueIndex <= issueIndex');\n\n        if(!drawed() && _issueIndex == issueIndex) {\n            return totalAmount;\n        }\n        return historyAmount[_issueIndex][0];\n    }\n\n    function getRewardView(uint256 _tokenId) public view returns(uint256) {\n        uint256 _issueIndex = lotteryNFT.getLotteryIssueIndex(_tokenId);\n        uint8[4] memory lotteryNumbers = lotteryNFT.getLotteryNumbers(_tokenId);\n        uint8[4] memory _winningNumbers = historyNumbers[_issueIndex];\n        require(_winningNumbers[0] != 0, \"not drawed\");\n\n        uint256 matchingNumber = 0;\n        for (uint i = 0; i < lotteryNumbers.length; i++) {\n            if (_winningNumbers[i] == lotteryNumbers[i]) {\n                matchingNumber= matchingNumber +1;\n            }\n        }\n        uint256 reward = 0;\n        if (matchingNumber > 1) {\n            uint256 amount = lotteryNFT.getLotteryAmount(_tokenId);\n            uint256 poolAmount = getTotalRewards(_issueIndex).mul(allocation[4-matchingNumber]).div(100);\n            reward = amount.mul(1e12).div(getMatchingRewardAmount(_issueIndex, matchingNumber)).mul(poolAmount);\n        }\n        return reward.div(1e12);\n    }\n\n\n    // Update admin address by the previous dev.\n    function setAdmin(address _adminAddress) public onlyOwner {\n        adminAddress = _adminAddress;\n    }\n\n    // Withdraw without caring about rewards. EMERGENCY ONLY.\n    function adminWithdraw(uint256 _amount) public onlyAdmin {\n        pharm.safeTransfer(address(msg.sender), _amount);\n        emit DevWithdraw(msg.sender, _amount);\n    }\n\n    // Set the minimum price for one ticket\n    function setMinPrice(uint256 _price) external onlyAdmin {\n        minPrice = _price;\n    }\n\n    // Set the minimum price for one ticket\n    function setMaxNumber(uint8 _maxNumber) external onlyAdmin {\n        maxNumber = _maxNumber;\n    }\n\n    // Set the allocation for one reward\n    function setAllocation(uint8 _allcation1, uint8 _allcation2, uint8 _allcation3) external onlyAdmin {\n        allocation = [_allcation1, _allcation2, _allcation3];\n    }\n\n}",
  "sourcePath": "/home/rahul/Pancake Clone/lottery-contract/contracts/Lottery.sol",
  "compiler": {
    "name": "solc",
    "version": "0.7.6+commit.7338295f.Emscripten.clang"
  },
  "schemaVersion": "3.3.4",
  "updatedAt": "2021-06-04T11:17:27.214Z",
  "networkType": "ethereum",
  "devdoc": {
    "kind": "dev",
    "methods": {
      "owner()": {
        "details": "Returns the address of the current owner."
      },
      "renounceOwnership()": {
        "details": "Leaves the contract without owner. It will not be possible to call `onlyOwner` functions anymore. Can only be called by the current owner. NOTE: Renouncing ownership will leave the contract without an owner, thereby removing any functionality that is only available to the owner."
      },
      "transferOwnership(address)": {
        "details": "Transfers ownership of the contract to a new account (`newOwner`). Can only be called by the current owner."
      }
    },
    "version": 1
  },
  "userdoc": {
    "kind": "user",
    "methods": {},
    "version": 1
  }
}