{
  "contractName": "LotteryNFT",
  "abi": [
    {
      "inputs": [],
      "stateMutability": "nonpayable",
      "type": "constructor"
    },
    {
      "anonymous": false,
      "inputs": [
        {
          "indexed": true,
          "internalType": "address",
          "name": "owner",
          "type": "address"
        },
        {
          "indexed": true,
          "internalType": "address",
          "name": "approved",
          "type": "address"
        },
        {
          "indexed": true,
          "internalType": "uint256",
          "name": "tokenId",
          "type": "uint256"
        }
      ],
      "name": "Approval",
      "type": "event"
    },
    {
      "anonymous": false,
      "inputs": [
        {
          "indexed": true,
          "internalType": "address",
          "name": "owner",
          "type": "address"
        },
        {
          "indexed": true,
          "internalType": "address",
          "name": "operator",
          "type": "address"
        },
        {
          "indexed": false,
          "internalType": "bool",
          "name": "approved",
          "type": "bool"
        }
      ],
      "name": "ApprovalForAll",
      "type": "event"
    },
    {
      "anonymous": false,
      "inputs": [
        {
          "indexed": true,
          "internalType": "address",
          "name": "previousOwner",
          "type": "address"
        },
        {
          "indexed": true,
          "internalType": "address",
          "name": "newOwner",
          "type": "address"
        }
      ],
      "name": "OwnershipTransferred",
      "type": "event"
    },
    {
      "anonymous": false,
      "inputs": [
        {
          "indexed": true,
          "internalType": "address",
          "name": "from",
          "type": "address"
        },
        {
          "indexed": true,
          "internalType": "address",
          "name": "to",
          "type": "address"
        },
        {
          "indexed": true,
          "internalType": "uint256",
          "name": "tokenId",
          "type": "uint256"
        }
      ],
      "name": "Transfer",
      "type": "event"
    },
    {
      "inputs": [
        {
          "internalType": "address",
          "name": "to",
          "type": "address"
        },
        {
          "internalType": "uint256",
          "name": "tokenId",
          "type": "uint256"
        }
      ],
      "name": "approve",
      "outputs": [],
      "stateMutability": "nonpayable",
      "type": "function"
    },
    {
      "inputs": [
        {
          "internalType": "address",
          "name": "owner",
          "type": "address"
        }
      ],
      "name": "balanceOf",
      "outputs": [
        {
          "internalType": "uint256",
          "name": "",
          "type": "uint256"
        }
      ],
      "stateMutability": "view",
      "type": "function",
      "constant": true
    },
    {
      "inputs": [],
      "name": "baseURI",
      "outputs": [
        {
          "internalType": "string",
          "name": "",
          "type": "string"
        }
      ],
      "stateMutability": "view",
      "type": "function",
      "constant": true
    },
    {
      "inputs": [
        {
          "internalType": "uint256",
          "name": "",
          "type": "uint256"
        }
      ],
      "name": "claimInfo",
      "outputs": [
        {
          "internalType": "bool",
          "name": "",
          "type": "bool"
        }
      ],
      "stateMutability": "view",
      "type": "function",
      "constant": true
    },
    {
      "inputs": [
        {
          "internalType": "uint256",
          "name": "tokenId",
          "type": "uint256"
        }
      ],
      "name": "getApproved",
      "outputs": [
        {
          "internalType": "address",
          "name": "",
          "type": "address"
        }
      ],
      "stateMutability": "view",
      "type": "function",
      "constant": true
    },
    {
      "inputs": [
        {
          "internalType": "address",
          "name": "owner",
          "type": "address"
        },
        {
          "internalType": "address",
          "name": "operator",
          "type": "address"
        }
      ],
      "name": "isApprovedForAll",
      "outputs": [
        {
          "internalType": "bool",
          "name": "",
          "type": "bool"
        }
      ],
      "stateMutability": "view",
      "type": "function",
      "constant": true
    },
    {
      "inputs": [
        {
          "internalType": "uint256",
          "name": "",
          "type": "uint256"
        }
      ],
      "name": "issueIndex",
      "outputs": [
        {
          "internalType": "uint256",
          "name": "",
          "type": "uint256"
        }
      ],
      "stateMutability": "view",
      "type": "function",
      "constant": true
    },
    {
      "inputs": [
        {
          "internalType": "uint256",
          "name": "",
          "type": "uint256"
        }
      ],
      "name": "lotteryAmount",
      "outputs": [
        {
          "internalType": "uint256",
          "name": "",
          "type": "uint256"
        }
      ],
      "stateMutability": "view",
      "type": "function",
      "constant": true
    },
    {
      "inputs": [
        {
          "internalType": "uint256",
          "name": "",
          "type": "uint256"
        },
        {
          "internalType": "uint256",
          "name": "",
          "type": "uint256"
        }
      ],
      "name": "lotteryInfo",
      "outputs": [
        {
          "internalType": "uint8",
          "name": "",
          "type": "uint8"
        }
      ],
      "stateMutability": "view",
      "type": "function",
      "constant": true
    },
    {
      "inputs": [],
      "name": "name",
      "outputs": [
        {
          "internalType": "string",
          "name": "",
          "type": "string"
        }
      ],
      "stateMutability": "view",
      "type": "function",
      "constant": true
    },
    {
      "inputs": [],
      "name": "owner",
      "outputs": [
        {
          "internalType": "address",
          "name": "",
          "type": "address"
        }
      ],
      "stateMutability": "view",
      "type": "function",
      "constant": true
    },
    {
      "inputs": [
        {
          "internalType": "uint256",
          "name": "tokenId",
          "type": "uint256"
        }
      ],
      "name": "ownerOf",
      "outputs": [
        {
          "internalType": "address",
          "name": "",
          "type": "address"
        }
      ],
      "stateMutability": "view",
      "type": "function",
      "constant": true
    },
    {
      "inputs": [],
      "name": "renounceOwnership",
      "outputs": [],
      "stateMutability": "nonpayable",
      "type": "function"
    },
    {
      "inputs": [
        {
          "internalType": "address",
          "name": "from",
          "type": "address"
        },
        {
          "internalType": "address",
          "name": "to",
          "type": "address"
        },
        {
          "internalType": "uint256",
          "name": "tokenId",
          "type": "uint256"
        }
      ],
      "name": "safeTransferFrom",
      "outputs": [],
      "stateMutability": "nonpayable",
      "type": "function"
    },
    {
      "inputs": [
        {
          "internalType": "address",
          "name": "from",
          "type": "address"
        },
        {
          "internalType": "address",
          "name": "to",
          "type": "address"
        },
        {
          "internalType": "uint256",
          "name": "tokenId",
          "type": "uint256"
        },
        {
          "internalType": "bytes",
          "name": "_data",
          "type": "bytes"
        }
      ],
      "name": "safeTransferFrom",
      "outputs": [],
      "stateMutability": "nonpayable",
      "type": "function"
    },
    {
      "inputs": [
        {
          "internalType": "address",
          "name": "operator",
          "type": "address"
        },
        {
          "internalType": "bool",
          "name": "approved",
          "type": "bool"
        }
      ],
      "name": "setApprovalForAll",
      "outputs": [],
      "stateMutability": "nonpayable",
      "type": "function"
    },
    {
      "inputs": [
        {
          "internalType": "bytes4",
          "name": "interfaceId",
          "type": "bytes4"
        }
      ],
      "name": "supportsInterface",
      "outputs": [
        {
          "internalType": "bool",
          "name": "",
          "type": "bool"
        }
      ],
      "stateMutability": "view",
      "type": "function",
      "constant": true
    },
    {
      "inputs": [],
      "name": "symbol",
      "outputs": [
        {
          "internalType": "string",
          "name": "",
          "type": "string"
        }
      ],
      "stateMutability": "view",
      "type": "function",
      "constant": true
    },
    {
      "inputs": [
        {
          "internalType": "uint256",
          "name": "index",
          "type": "uint256"
        }
      ],
      "name": "tokenByIndex",
      "outputs": [
        {
          "internalType": "uint256",
          "name": "",
          "type": "uint256"
        }
      ],
      "stateMutability": "view",
      "type": "function",
      "constant": true
    },
    {
      "inputs": [
        {
          "internalType": "address",
          "name": "owner",
          "type": "address"
        },
        {
          "internalType": "uint256",
          "name": "index",
          "type": "uint256"
        }
      ],
      "name": "tokenOfOwnerByIndex",
      "outputs": [
        {
          "internalType": "uint256",
          "name": "",
          "type": "uint256"
        }
      ],
      "stateMutability": "view",
      "type": "function",
      "constant": true
    },
    {
      "inputs": [
        {
          "internalType": "uint256",
          "name": "tokenId",
          "type": "uint256"
        }
      ],
      "name": "tokenURI",
      "outputs": [
        {
          "internalType": "string",
          "name": "",
          "type": "string"
        }
      ],
      "stateMutability": "view",
      "type": "function",
      "constant": true
    },
    {
      "inputs": [],
      "name": "totalSupply",
      "outputs": [
        {
          "internalType": "uint256",
          "name": "",
          "type": "uint256"
        }
      ],
      "stateMutability": "view",
      "type": "function",
      "constant": true
    },
    {
      "inputs": [
        {
          "internalType": "address",
          "name": "from",
          "type": "address"
        },
        {
          "internalType": "address",
          "name": "to",
          "type": "address"
        },
        {
          "internalType": "uint256",
          "name": "tokenId",
          "type": "uint256"
        }
      ],
      "name": "transferFrom",
      "outputs": [],
      "stateMutability": "nonpayable",
      "type": "function"
    },
    {
      "inputs": [
        {
          "internalType": "address",
          "name": "newOwner",
          "type": "address"
        }
      ],
      "name": "transferOwnership",
      "outputs": [],
      "stateMutability": "nonpayable",
      "type": "function"
    },
    {
      "inputs": [
        {
          "internalType": "address",
          "name": "player",
          "type": "address"
        },
        {
          "internalType": "uint8[4]",
          "name": "_lotteryNumbers",
          "type": "uint8[4]"
        },
        {
          "internalType": "uint256",
          "name": "_amount",
          "type": "uint256"
        },
        {
          "internalType": "uint256",
          "name": "_issueIndex",
          "type": "uint256"
        }
      ],
      "name": "newLotteryItem",
      "outputs": [
        {
          "internalType": "uint256",
          "name": "",
          "type": "uint256"
        }
      ],
      "stateMutability": "nonpayable",
      "type": "function"
    },
    {
      "inputs": [
        {
          "internalType": "uint256",
          "name": "tokenId",
          "type": "uint256"
        }
      ],
      "name": "getLotteryNumbers",
      "outputs": [
        {
          "internalType": "uint8[4]",
          "name": "",
          "type": "uint8[4]"
        }
      ],
      "stateMutability": "view",
      "type": "function",
      "constant": true
    },
    {
      "inputs": [
        {
          "internalType": "uint256",
          "name": "tokenId",
          "type": "uint256"
        }
      ],
      "name": "getLotteryAmount",
      "outputs": [
        {
          "internalType": "uint256",
          "name": "",
          "type": "uint256"
        }
      ],
      "stateMutability": "view",
      "type": "function",
      "constant": true
    },
    {
      "inputs": [
        {
          "internalType": "uint256",
          "name": "tokenId",
          "type": "uint256"
        }
      ],
      "name": "getLotteryIssueIndex",
      "outputs": [
        {
          "internalType": "uint256",
          "name": "",
          "type": "uint256"
        }
      ],
      "stateMutability": "view",
      "type": "function",
      "constant": true
    },
    {
      "inputs": [
        {
          "internalType": "uint256",
          "name": "tokenId",
          "type": "uint256"
        }
      ],
      "name": "claimReward",
      "outputs": [],
      "stateMutability": "nonpayable",
      "type": "function"
    },
    {
      "inputs": [
        {
          "internalType": "uint256[]",
          "name": "tokenIds",
          "type": "uint256[]"
        }
      ],
      "name": "multiClaimReward",
      "outputs": [],
      "stateMutability": "nonpayable",
      "type": "function"
    },
    {
      "inputs": [
        {
          "internalType": "uint256",
          "name": "tokenId",
          "type": "uint256"
        }
      ],
      "name": "burn",
      "outputs": [],
      "stateMutability": "nonpayable",
      "type": "function"
    },
    {
      "inputs": [
        {
          "internalType": "uint256",
          "name": "tokenId",
          "type": "uint256"
        }
      ],
      "name": "getClaimStatus",
      "outputs": [
        {
          "internalType": "bool",
          "name": "",
          "type": "bool"
        }
      ],
      "stateMutability": "view",
      "type": "function",
      "constant": true
    }
  ],
  "bytecode": "0x60806040523480156200001157600080fd5b50604080518082018252601a81527f706861726d73776170204d4f4f4e414e5a41204c6f74746572790000000000006020808301919091528251808401909352600383526214135360ea1b9083015290620000736301ffc9a760e01b62000138565b815162000088906006906020850190620001c1565b5080516200009e906007906020840190620001c1565b50620000b16380ac58cd60e01b62000138565b620000c3635b5e139f60e01b62000138565b620000d563780e9d6360e01b62000138565b5060009050620000e4620001bd565b600a80546001600160a01b0319166001600160a01b038316908117909155604051919250906000907f8be0079c531659141344cd1fd0a4f28419497f9722a3daafe3b4186f6b6457e0908290a3506200026d565b6001600160e01b0319808216141562000198576040805162461bcd60e51b815260206004820152601c60248201527f4552433136353a20696e76616c696420696e7465726661636520696400000000604482015290519081900360640190fd5b6001600160e01b0319166000908152602081905260409020805460ff19166001179055565b3390565b828054600181600116156101000203166002900490600052602060002090601f016020900481019282620001f9576000855562000244565b82601f106200021457805160ff191683800117855562000244565b8280016001018555821562000244579182015b828111156200024457825182559160200191906001019062000227565b506200025292915062000256565b5090565b5b8082111562000252576000815560010162000257565b6126ee806200027d6000396000f3fe608060405234801561001057600080fd5b50600436106101f05760003560e01c80636352211e1161010f578063a22cb465116100a2578063c87b56dd11610071578063c87b56dd14610420578063e985e9c514610433578063f2fde38b14610446578063f7a0c0ca14610459576101f0565b8063a22cb465146103d4578063ae169a50146103e7578063b88d4fde146103fa578063c13f690b1461040d576101f0565b8063715018a6116100de578063715018a6146103a957806374310355146103b15780638da5cb5b146103c457806395d89b41146103cc576101f0565b80636352211e1461035b5780636575243f1461036e5780636c0360eb1461038e57806370a0823114610396576101f0565b80632f745c591161018757806342966c681161015657806342966c68146103025780634f6ccce7146103155780635c362233146103285780635f8e26a71461033b576101f0565b80632f745c59146102b657806336dbd2f9146102c957806337391c00146102dc57806342842e0e146102ef576101f0565b8063095ea7b3116101c3578063095ea7b31461027357806318160ddd146102885780631bf1e00f1461029057806323b872dd146102a3576101f0565b806301ffc9a7146101f557806306fdde031461021e578063081812fc1461023357806308c7662514610253575b600080fd5b610208610203366004612309565b61046c565b60405161021591906123b2565b60405180910390f35b61022661048f565b60405161021591906123bd565b610246610241366004612331565b610525565b604051610215919061236a565b610266610261366004612331565b610587565b6040516102159190612410565b61028661028136600461223f565b610599565b005b61026661066f565b61026661029e366004612331565b610680565b6102866102b1366004612086565b610692565b6102666102c436600461223f565b6106e9565b6102086102d7366004612331565b610714565b6102666102ea366004612173565b610729565b6102866102fd366004612086565b6107f3565b610286610310366004612331565b61080e565b610266610323366004612331565b61087c565b610208610336366004612331565b610892565b61034e610349366004612331565b6108a7565b604051610215919061237e565b610246610369366004612331565b61090b565b61038161037c366004612349565b610933565b6040516102159190612419565b61022661096c565b6102666103a436600461203a565b6109cd565b610286610a35565b6102866103bf366004612268565b610ae1565b610246610b96565b610226610ba5565b6102866103e2366004612205565b610c06565b6102866103f5366004612331565b610d0b565b6102866104083660046120c1565b610d88565b61026661041b366004612331565b610de6565b61022661042e366004612331565b610df8565b610208610441366004612054565b611079565b61028661045436600461203a565b6110a7565b610266610467366004612331565b6111aa565b6001600160e01b0319811660009081526020819052604090205460ff165b919050565b60068054604080516020601f600260001961010060018816150201909516949094049384018190048102820181019092528281526060939092909183018282801561051b5780601f106104f05761010080835404028352916020019161051b565b820191906000526020600020905b8154815290600101906020018083116104fe57829003601f168201915b5050505050905090565b6000610530826111bc565b61056b5760405162461bcd60e51b815260040180806020018281038252602c8152602001806125c3602c913960400191505060405180910390fd5b506000908152600460205260409020546001600160a01b031690565b600e6020526000908152604090205481565b60006105a48261090b565b9050806001600160a01b0316836001600160a01b031614156105f75760405162461bcd60e51b81526004018080602001828103825260218152602001806126676021913960400191505060405180910390fd5b806001600160a01b03166106096111c9565b6001600160a01b031614806106255750610625816104416111c9565b6106605760405162461bcd60e51b81526004018080602001828103825260388152602001806125166038913960400191505060405180910390fd5b61066a83836111cd565b505050565b600061067b600261123b565b905090565b6000908152600e602052604090205490565b6106a361069d6111c9565b82611246565b6106de5760405162461bcd60e51b81526004018080602001828103825260318152602001806126886031913960400191505060405180910390fd5b61066a8383836112e2565b6001600160a01b038216600090815260016020526040812061070b908361142e565b90505b92915050565b6000908152600f602052604090205460ff1690565b60006107336111c9565b6001600160a01b0316610744610b96565b6001600160a01b03161461078d576040805162461bcd60e51b815260206004820181905260248201526000805160206125ef833981519152604482015290519081900360640190fd5b610797600b61143a565b60006107a3600b611443565b90506107af8682611447565b6000818152600c602052604090206107c990866004611f1d565b506000818152600d60209081526040808320879055600e909152902083905590505b949350505050565b61066a83838360405180602001604052806000815250610d88565b6108166111c9565b6001600160a01b0316610827610b96565b6001600160a01b031614610870576040805162461bcd60e51b815260206004820181905260248201526000805160206125ef833981519152604482015290519081900360640190fd5b61087981611575565b50565b60008061088a600284611642565b509392505050565b600f6020526000908152604090205460ff1681565b6108af611fb0565b6000828152600c6020526040808220815160808101928390529290916004918390855b825461010083900a900460ff168152602060019283018181049485019490930390920291018084116108d2575094979650505050505050565b600061070e82604051806060016040528060298152602001612578602991396002919061165e565b600c602052816000526040600020816004811061094f57600080fd5b602081049091015460ff601f9092166101000a9004169150829050565b60098054604080516020601f600260001961010060018816150201909516949094049384018190048102820181019092528281526060939092909183018282801561051b5780601f106104f05761010080835404028352916020019161051b565b60006001600160a01b038216610a145760405162461bcd60e51b815260040180806020018281038252602a81526020018061254e602a913960400191505060405180910390fd5b6001600160a01b038216600090815260016020526040902061070e9061123b565b610a3d6111c9565b6001600160a01b0316610a4e610b96565b6001600160a01b031614610a97576040805162461bcd60e51b815260206004820181905260248201526000805160206125ef833981519152604482015290519081900360640190fd5b600a546040516000916001600160a01b0316907f8be0079c531659141344cd1fd0a4f28419497f9722a3daafe3b4186f6b6457e0908390a3600a80546001600160a01b0319169055565b610ae96111c9565b6001600160a01b0316610afa610b96565b6001600160a01b031614610b43576040805162461bcd60e51b815260206004820181905260248201526000805160206125ef833981519152604482015290519081900360640190fd5b60005b8151811015610b92576001600f6000848481518110610b6157fe5b6020908102919091018101518252810191909152604001600020805460ff1916911515919091179055600101610b46565b5050565b600a546001600160a01b031690565b60078054604080516020601f600260001961010060018816150201909516949094049384018190048102820181019092528281526060939092909183018282801561051b5780601f106104f05761010080835404028352916020019161051b565b610c0e6111c9565b6001600160a01b0316826001600160a01b03161415610c74576040805162461bcd60e51b815260206004820152601960248201527f4552433732313a20617070726f766520746f2063616c6c657200000000000000604482015290519081900360640190fd5b8060056000610c816111c9565b6001600160a01b03908116825260208083019390935260409182016000908120918716808252919093529120805460ff191692151592909217909155610cc56111c9565b6001600160a01b03167f17307eab39ab6107e8899845ad3d59bd9653f200f220920489ca2b5937696c318360405180821515815260200191505060405180910390a35050565b610d136111c9565b6001600160a01b0316610d24610b96565b6001600160a01b031614610d6d576040805162461bcd60e51b815260206004820181905260248201526000805160206125ef833981519152604482015290519081900360640190fd5b6000908152600f60205260409020805460ff19166001179055565b610d99610d936111c9565b83611246565b610dd45760405162461bcd60e51b81526004018080602001828103825260318152602001806126886031913960400191505060405180910390fd5b610de084848484611675565b50505050565b600d6020526000908152604090205481565b6060610e03826111bc565b610e3e5760405162461bcd60e51b815260040180806020018281038252602f815260200180612638602f913960400191505060405180910390fd5b60008281526008602090815260408083208054825160026001831615610100026000190190921691909104601f810185900485028201850190935282815292909190830182828015610ed15780601f10610ea657610100808354040283529160200191610ed1565b820191906000526020600020905b815481529060010190602001808311610eb457829003601f168201915b505050505090506000610ee261096c565b9050805160001415610ef65750905061048a565b815115610fb75780826040516020018083805190602001908083835b60208310610f315780518252601f199092019160209182019101610f12565b51815160209384036101000a600019018019909216911617905285519190930192850191508083835b60208310610f795780518252601f199092019160209182019101610f5a565b6001836020036101000a038019825116818451168082178552505050505050905001925050506040516020818303038152906040529250505061048a565b80610fc1856116c7565b6040516020018083805190602001908083835b60208310610ff35780518252601f199092019160209182019101610fd4565b51815160209384036101000a600019018019909216911617905285519190930192850191508083835b6020831061103b5780518252601f19909201916020918201910161101c565b6001836020036101000a0380198251168184511680821785525050505050509050019250505060405160208183030381529060405292505050919050565b6001600160a01b03918216600090815260056020908152604080832093909416825291909152205460ff1690565b6110af6111c9565b6001600160a01b03166110c0610b96565b6001600160a01b031614611109576040805162461bcd60e51b815260206004820181905260248201526000805160206125ef833981519152604482015290519081900360640190fd5b6001600160a01b03811661114e5760405162461bcd60e51b81526004018080602001828103825260268152602001806124a06026913960400191505060405180910390fd5b600a546040516001600160a01b038084169216907f8be0079c531659141344cd1fd0a4f28419497f9722a3daafe3b4186f6b6457e090600090a3600a80546001600160a01b0319166001600160a01b0392909216919091179055565b6000908152600d602052604090205490565b600061070e6002836117a2565b3390565b600081815260046020526040902080546001600160a01b0319166001600160a01b03841690811790915581906112028261090b565b6001600160a01b03167f8c5be1e5ebec7d5bd14f71427d1e84f3dd0314c0f7b2291e5b200ac8c7c3b92560405160405180910390a45050565b600061070e82611443565b6000611251826111bc565b61128c5760405162461bcd60e51b815260040180806020018281038252602c8152602001806124ea602c913960400191505060405180910390fd5b60006112978361090b565b9050806001600160a01b0316846001600160a01b031614806112d25750836001600160a01b03166112c784610525565b6001600160a01b0316145b806107eb57506107eb8185611079565b826001600160a01b03166112f58261090b565b6001600160a01b03161461133a5760405162461bcd60e51b815260040180806020018281038252602981526020018061260f6029913960400191505060405180910390fd5b6001600160a01b03821661137f5760405162461bcd60e51b81526004018080602001828103825260248152602001806124c66024913960400191505060405180910390fd5b61138a83838361066a565b6113956000826111cd565b6001600160a01b03831660009081526001602052604090206113b790826117ae565b506001600160a01b03821660009081526001602052604090206113da90826117ba565b506113e7600282846117c6565b5080826001600160a01b0316846001600160a01b03167fddf252ad1be2c89b69c2b068fc378daa952ba7f163c4a11628f55a4df523b3ef60405160405180910390a4505050565b600061070b83836117dc565b80546001019055565b5490565b6001600160a01b0382166114a2576040805162461bcd60e51b815260206004820181905260248201527f4552433732313a206d696e7420746f20746865207a65726f2061646472657373604482015290519081900360640190fd5b6114ab816111bc565b156114fd576040805162461bcd60e51b815260206004820152601c60248201527f4552433732313a20746f6b656e20616c7265616479206d696e74656400000000604482015290519081900360640190fd5b6115096000838361066a565b6001600160a01b038216600090815260016020526040902061152b90826117ba565b50611538600282846117c6565b5060405181906001600160a01b038416906000907fddf252ad1be2c89b69c2b068fc378daa952ba7f163c4a11628f55a4df523b3ef908290a45050565b60006115808261090b565b905061158e8160008461066a565b6115996000836111cd565b60008281526008602052604090205460026000196101006001841615020190911604156115d75760008281526008602052604081206115d791611fce565b6001600160a01b03811660009081526001602052604090206115f990836117ae565b50611605600283611840565b5060405182906000906001600160a01b038416907fddf252ad1be2c89b69c2b068fc378daa952ba7f163c4a11628f55a4df523b3ef908390a45050565b6000808080611651868661184c565b9097909650945050505050565b600061166b8484846118c7565b90505b9392505050565b6116808484846112e2565b61168c84848484611991565b610de05760405162461bcd60e51b815260040180806020018281038252603281526020018061246e6032913960400191505060405180910390fd5b6060816116ec57506040805180820190915260018152600360fc1b602082015261048a565b8160005b811561170457600101600a820491506116f0565b60008167ffffffffffffffff8111801561171d57600080fd5b506040519080825280601f01601f191660200182016040528015611748576020820181803683370190505b50859350905060001982015b831561179957600a840660300160f81b8282806001900393508151811061177757fe5b60200101906001600160f81b031916908160001a905350600a84049350611754565b50949350505050565b600061070b8383611af9565b600061070b8383611b11565b600061070b8383611bd7565b600061166b84846001600160a01b038516611c21565b8154600090821061181e5760405162461bcd60e51b815260040180806020018281038252602281526020018061244c6022913960400191505060405180910390fd5b82600001828154811061182d57fe5b9060005260206000200154905092915050565b600061070b8383611cb8565b8154600090819083106118905760405162461bcd60e51b81526004018080602001828103825260228152602001806125a16022913960400191505060405180910390fd5b60008460000184815481106118a157fe5b906000526020600020906002020190508060000154816001015492509250509250929050565b600082815260018401602052604081205482816119625760405162461bcd60e51b81526004018080602001828103825283818151815260200191508051906020019080838360005b8381101561192757818101518382015260200161190f565b50505050905090810190601f1680156119545780820380516001836020036101000a031916815260200191505b509250505060405180910390fd5b5084600001600182038154811061197557fe5b9060005260206000209060020201600101549150509392505050565b60006119a5846001600160a01b0316611d8c565b6119b1575060016107eb565b6000611abf630a85bd0160e11b6119c66111c9565b88878760405160240180856001600160a01b03168152602001846001600160a01b0316815260200183815260200180602001828103825283818151815260200191508051906020019080838360005b83811015611a2d578181015183820152602001611a15565b50505050905090810190601f168015611a5a5780820380516001836020036101000a031916815260200191505b5095505050505050604051602081830303815290604052906001600160e01b0319166020820180516001600160e01b03838183161783525050505060405180606001604052806032815260200161246e603291396001600160a01b0388169190611d92565b90506000818060200190516020811015611ad857600080fd5b50516001600160e01b031916630a85bd0160e11b1492505050949350505050565b60009081526001919091016020526040902054151590565b60008181526001830160205260408120548015611bcd5783546000198083019190810190600090879083908110611b4457fe5b9060005260206000200154905080876000018481548110611b6157fe5b600091825260208083209091019290925582815260018981019092526040902090840190558654879080611b9157fe5b6001900381819060005260206000200160009055905586600101600087815260200190815260200160002060009055600194505050505061070e565b600091505061070e565b6000611be38383611af9565b611c195750815460018181018455600084815260208082209093018490558454848252828601909352604090209190915561070e565b50600061070e565b600082815260018401602052604081205480611c8657505060408051808201825283815260208082018481528654600181810189556000898152848120955160029093029095019182559151908201558654868452818801909252929091205561166e565b82856000016001830381548110611c9957fe5b906000526020600020906002020160010181905550600091505061166e565b60008181526001830160205260408120548015611bcd5783546000198083019190810190600090879083908110611ceb57fe5b9060005260206000209060020201905080876000018481548110611d0b57fe5b600091825260208083208454600290930201918255600193840154918401919091558354825289830190526040902090840190558654879080611d4a57fe5b600082815260208082206002600019909401938402018281556001908101839055929093558881528982019092526040822091909155945061070e9350505050565b3b151590565b606061166b848460008585611da685611d8c565b611df7576040805162461bcd60e51b815260206004820152601d60248201527f416464726573733a2063616c6c20746f206e6f6e2d636f6e7472616374000000604482015290519081900360640190fd5b600080866001600160a01b031685876040518082805190602001908083835b60208310611e355780518252601f199092019160209182019101611e16565b6001836020036101000a03801982511681845116808217855250505050505090500191505060006040518083038185875af1925050503d8060008114611e97576040519150601f19603f3d011682016040523d82523d6000602084013e611e9c565b606091505b5091509150611eac828286611eb7565b979650505050505050565b60608315611ec657508161166e565b825115611ed65782518084602001fd5b60405162461bcd60e51b815260206004820181815284516024840152845185939192839260440191908501908083836000831561192757818101518382015260200161190f565b600183019183908215611fa05791602002820160005b83821115611f7157835183826101000a81548160ff021916908360ff1602179055509260200192600101602081600001049283019260010302611f33565b8015611f9e5782816101000a81549060ff0219169055600101602081600001049283019260010302611f71565b505b50611fac92915061200e565b5090565b60405180608001604052806004906020820280368337509192915050565b50805460018160011615610100020316600290046000825580601f10611ff45750610879565b601f01602090049060005260206000209081019061087991905b5b80821115611fac576000815560010161200f565b80356001600160a01b038116811461048a57600080fd5b60006020828403121561204b578081fd5b61070b82612023565b60008060408385031215612066578081fd5b61206f83612023565b915061207d60208401612023565b90509250929050565b60008060006060848603121561209a578081fd5b6120a384612023565b92506120b160208501612023565b9150604084013590509250925092565b600080600080608085870312156120d6578081fd5b6120df85612023565b935060206120ee818701612023565b935060408601359250606086013567ffffffffffffffff80821115612111578384fd5b818801915088601f830112612124578384fd5b81358181111561213057fe5b612142601f8201601f19168501612427565b91508082528984828501011115612157578485fd5b8084840185840137810190920192909252939692955090935050565b60008060008060e08587031215612188578384fd5b61219185612023565b9350602086603f8701126121a3578384fd5b6121ad6080612427565b8082880160a089018a8111156121c1578788fd5b875b60048110156121ee57823560ff811681146121dc57898afd5b855293850193918501916001016121c3565b50979a9199505095359660c0013595945050505050565b60008060408385031215612217578182fd5b61222083612023565b915060208301358015158114612234578182fd5b809150509250929050565b60008060408385031215612251578182fd5b61225a83612023565b946020939093013593505050565b6000602080838503121561227a578182fd5b823567ffffffffffffffff80821115612291578384fd5b818501915085601f8301126122a4578384fd5b8135818111156122b057fe5b83810291506122c0848301612427565b8181528481019084860184860187018a10156122da578788fd5b8795505b838610156122fc5780358352600195909501949186019186016122de565b5098975050505050505050565b60006020828403121561231a578081fd5b81356001600160e01b03198116811461166e578182fd5b600060208284031215612342578081fd5b5035919050565b6000806040838503121561235b578182fd5b50508035926020909101359150565b6001600160a01b0391909116815260200190565b60808101818360005b60048110156123a957815160ff16835260209283019290910190600101612387565b50505092915050565b901515815260200190565b6000602080835283518082850152825b818110156123e9578581018301518582016040015282016123cd565b818111156123fa5783604083870101525b50601f01601f1916929092016040019392505050565b90815260200190565b60ff91909116815260200190565b60405181810167ffffffffffffffff8111828210171561244357fe5b60405291905056fe456e756d657261626c655365743a20696e646578206f7574206f6620626f756e64734552433732313a207472616e7366657220746f206e6f6e20455243373231526563656976657220696d706c656d656e7465724f776e61626c653a206e6577206f776e657220697320746865207a65726f20616464726573734552433732313a207472616e7366657220746f20746865207a65726f20616464726573734552433732313a206f70657261746f7220717565727920666f72206e6f6e6578697374656e7420746f6b656e4552433732313a20617070726f76652063616c6c6572206973206e6f74206f776e6572206e6f7220617070726f76656420666f7220616c6c4552433732313a2062616c616e636520717565727920666f7220746865207a65726f20616464726573734552433732313a206f776e657220717565727920666f72206e6f6e6578697374656e7420746f6b656e456e756d657261626c654d61703a20696e646578206f7574206f6620626f756e64734552433732313a20617070726f76656420717565727920666f72206e6f6e6578697374656e7420746f6b656e4f776e61626c653a2063616c6c6572206973206e6f7420746865206f776e65724552433732313a207472616e73666572206f6620746f6b656e2074686174206973206e6f74206f776e4552433732314d657461646174613a2055524920717565727920666f72206e6f6e6578697374656e7420746f6b656e4552433732313a20617070726f76616c20746f2063757272656e74206f776e65724552433732313a207472616e736665722063616c6c6572206973206e6f74206f776e6572206e6f7220617070726f766564a264697066735822122082747dca77a847822146cedf6c12a16139cedefa2daa33c82272f3a267e048ce64736f6c63430007060033",
  "immutableReferences": {},
  "source": "// SPDX-License-Identifier: MIT\n\npragma solidity <=0.8.2;\npragma experimental ABIEncoderV2;\n\nimport \"@openzeppelin/contracts/token/ERC721/ERC721.sol\";\nimport \"@openzeppelin/contracts/utils/Counters.sol\";\nimport \"@openzeppelin/contracts/access/Ownable.sol\";\n\ncontract LotteryNFT is ERC721, Ownable {\n    using Counters for Counters.Counter;\n    Counters.Counter private _tokenIds;\n\n    mapping (uint256 => uint8[4]) public lotteryInfo;\n    mapping (uint256 => uint256) public lotteryAmount;\n    mapping (uint256 => uint256) public issueIndex;\n    mapping (uint256 => bool) public claimInfo;\n\n    constructor() ERC721(\"pharmswap MOONANZA Lottery\", \"PML\") {}\n\n    function newLotteryItem(address player, uint8[4] memory _lotteryNumbers, uint256 _amount, uint256 _issueIndex)\n        external onlyOwner\n        returns (uint256)\n    {\n        _tokenIds.increment();\n\n        uint256 newItemId = _tokenIds.current();\n        _mint(player, newItemId);\n        lotteryInfo[newItemId] = _lotteryNumbers;\n        lotteryAmount[newItemId] = _amount;\n        issueIndex[newItemId] = _issueIndex;\n        // claimInfo[newItemId] = false; default is false here\n        // _setTokenURI(newItemId, tokenURI);\n\n        return newItemId;\n    }\n\n    function getLotteryNumbers(uint256 tokenId) external view returns (uint8[4] memory) {\n        return lotteryInfo[tokenId];\n    }\n    function getLotteryAmount(uint256 tokenId) external view returns (uint256) {\n        return lotteryAmount[tokenId];\n    }\n    function getLotteryIssueIndex(uint256 tokenId) external view returns (uint256) {\n        return issueIndex[tokenId];\n    }\n    function claimReward(uint256 tokenId) external onlyOwner {\n        claimInfo[tokenId] = true;\n    }\n    function multiClaimReward(uint256[] memory tokenIds) external onlyOwner {\n        for (uint i = 0; i < tokenIds.length; i++) {\n            claimInfo[tokenIds[i]] = true;\n        }\n    }\n    function burn(uint256 tokenId) external onlyOwner {\n        _burn(tokenId);\n    }\n    function getClaimStatus(uint256 tokenId) external view returns (bool) {\n        return claimInfo[tokenId];\n    }\n}\n",
  "sourcePath": "/home/rahul/Pancake Clone/lottery-contract/contracts/LotteryNFT.sol",
  "compiler": {
    "name": "solc",
    "version": "0.7.6+commit.7338295f.Emscripten.clang"
  },
  "schemaVersion": "3.3.4",
  "updatedAt": "2021-06-04T11:17:27.260Z",
  "networkType": "ethereum",
  "devdoc": {
    "kind": "dev",
    "methods": {
      "approve(address,uint256)": {
        "details": "See {IERC721-approve}."
      },
      "balanceOf(address)": {
        "details": "See {IERC721-balanceOf}."
      },
      "baseURI()": {
        "details": "Returns the base URI set via {_setBaseURI}. This will be automatically added as a prefix in {tokenURI} to each token's URI, or to the token ID if no specific URI is set for that token ID."
      },
      "getApproved(uint256)": {
        "details": "See {IERC721-getApproved}."
      },
      "isApprovedForAll(address,address)": {
        "details": "See {IERC721-isApprovedForAll}."
      },
      "name()": {
        "details": "See {IERC721Metadata-name}."
      },
      "owner()": {
        "details": "Returns the address of the current owner."
      },
      "ownerOf(uint256)": {
        "details": "See {IERC721-ownerOf}."
      },
      "renounceOwnership()": {
        "details": "Leaves the contract without owner. It will not be possible to call `onlyOwner` functions anymore. Can only be called by the current owner. NOTE: Renouncing ownership will leave the contract without an owner, thereby removing any functionality that is only available to the owner."
      },
      "safeTransferFrom(address,address,uint256)": {
        "details": "See {IERC721-safeTransferFrom}."
      },
      "safeTransferFrom(address,address,uint256,bytes)": {
        "details": "See {IERC721-safeTransferFrom}."
      },
      "setApprovalForAll(address,bool)": {
        "details": "See {IERC721-setApprovalForAll}."
      },
      "supportsInterface(bytes4)": {
        "details": "See {IERC165-supportsInterface}. Time complexity O(1), guaranteed to always use less than 30 000 gas."
      },
      "symbol()": {
        "details": "See {IERC721Metadata-symbol}."
      },
      "tokenByIndex(uint256)": {
        "details": "See {IERC721Enumerable-tokenByIndex}."
      },
      "tokenOfOwnerByIndex(address,uint256)": {
        "details": "See {IERC721Enumerable-tokenOfOwnerByIndex}."
      },
      "tokenURI(uint256)": {
        "details": "See {IERC721Metadata-tokenURI}."
      },
      "totalSupply()": {
        "details": "See {IERC721Enumerable-totalSupply}."
      },
      "transferFrom(address,address,uint256)": {
        "details": "See {IERC721-transferFrom}."
      },
      "transferOwnership(address)": {
        "details": "Transfers ownership of the contract to a new account (`newOwner`). Can only be called by the current owner."
      }
    },
    "version": 1
  },
  "userdoc": {
    "kind": "user",
    "methods": {},
    "version": 1
  }
}