{
  "contractName": "LotteryRewardProxy",
  "abi": [
    {
      "inputs": [
        {
          "internalType": "contract Lottery",
          "name": "_lottery",
          "type": "address"
        },
        {
          "internalType": "contract IERC20",
          "name": "_cow",
          "type": "address"
        },
        {
          "internalType": "address",
          "name": "_admin",
          "type": "address"
        }
      ],
      "stateMutability": "nonpayable",
      "type": "constructor"
    },
    {
      "anonymous": false,
      "inputs": [
        {
          "indexed": false,
          "internalType": "uint256",
          "name": "amount",
          "type": "uint256"
        }
      ],
      "name": "Inject",
      "type": "event"
    },
    {
      "anonymous": false,
      "inputs": [
        {
          "indexed": false,
          "internalType": "uint256",
          "name": "amount",
          "type": "uint256"
        }
      ],
      "name": "Withdraw",
      "type": "event"
    },
    {
      "inputs": [],
      "name": "adminAddress",
      "outputs": [
        {
          "internalType": "address",
          "name": "",
          "type": "address"
        }
      ],
      "stateMutability": "view",
      "type": "function"
    },
    {
      "inputs": [],
      "name": "cow",
      "outputs": [
        {
          "internalType": "contract IERC20",
          "name": "",
          "type": "address"
        }
      ],
      "stateMutability": "view",
      "type": "function"
    },
    {
      "inputs": [],
      "name": "lottery",
      "outputs": [
        {
          "internalType": "contract Lottery",
          "name": "",
          "type": "address"
        }
      ],
      "stateMutability": "view",
      "type": "function"
    },
    {
      "inputs": [
        {
          "internalType": "uint256",
          "name": "_amount",
          "type": "uint256"
        }
      ],
      "name": "inject",
      "outputs": [],
      "stateMutability": "nonpayable",
      "type": "function"
    },
    {
      "inputs": [
        {
          "internalType": "uint256",
          "name": "_amount",
          "type": "uint256"
        }
      ],
      "name": "adminWithdraw",
      "outputs": [],
      "stateMutability": "nonpayable",
      "type": "function"
    },
    {
      "inputs": [
        {
          "internalType": "address",
          "name": "_adminAddress",
          "type": "address"
        }
      ],
      "name": "setAdmin",
      "outputs": [],
      "stateMutability": "nonpayable",
      "type": "function"
    },
    {
      "inputs": [
        {
          "internalType": "contract Lottery",
          "name": "_lotteryAddress",
          "type": "address"
        }
      ],
      "name": "setLottery",
      "outputs": [],
      "stateMutability": "nonpayable",
      "type": "function"
    }
  ],
  "bytecode": "0x6101006040526000608081815260a082905260c082905260e09190915261002a9060039060046100a8565b5034801561003757600080fd5b50604051610a75380380610a758339818101604052606081101561005a57600080fd5b5080516020820151604090920151600080546001600160a01b03199081166001600160a01b039485161790915560018054821694841694909417909355600280549093169116179055610150565b60018301918390821561012b5791602002820160005b838211156100fc57835183826101000a81548160ff021916908360ff16021790555092602001926001016020816000010492830192600103026100be565b80156101295782816101000a81549060ff02191690556001016020816000010492830192600103026100fc565b505b5061013792915061013b565b5090565b5b80821115610137576000815560010161013c565b6109168061015f6000396000f3fe608060405234801561001057600080fd5b506004361061007d5760003560e01c8063ba13a5721161005b578063ba13a572146100e4578063dfbf306d14610108578063f298083b14610110578063fc6f9468146101365761007d565b80631820433f14610082578063704b6c02146100a15780637c5b4a37146100c7575b600080fd5b61009f6004803603602081101561009857600080fd5b503561013e565b005b61009f600480360360208110156100b757600080fd5b50356001600160a01b0316610280565b61009f600480360360208110156100dd57600080fd5b50356102ef565b6100ec610389565b604080516001600160a01b039092168252519081900360200190f35b6100ec610398565b61009f6004803603602081101561012657600080fd5b50356001600160a01b03166103a7565b6100ec610416565b6002546001600160a01b0316331461018b576040805162461bcd60e51b815260206004820152600b60248201526a61646d696e3a207775743f60a81b604482015290519081900360640190fd5b6000546001546101a8916001600160a01b03918216911683610425565b600080546040516314c20d5760e01b8152600481018481526001600160a01b03909216926314c20d5792859260039260a48201918491906024015b825461010083900a900460ff168152602060019283018181049485019490930390920291018084116101e3579050505092505050600060405180830381600087803b15801561023157600080fd5b505af1158015610245573d6000803e3d6000fd5b50506040805184815290517f7a70cc8a2f344f41ffb186a3d6776e3a23fe933aa762a1a77f99e90390f4ccc19350908190036020019150a150565b6002546001600160a01b031633146102cd576040805162461bcd60e51b815260206004820152600b60248201526a61646d696e3a207775743f60a81b604482015290519081900360640190fd5b600280546001600160a01b0319166001600160a01b0392909216919091179055565b6002546001600160a01b0316331461033c576040805162461bcd60e51b815260206004820152600b60248201526a61646d696e3a207775743f60a81b604482015290519081900360640190fd5b600154610353906001600160a01b0316338361053d565b6040805182815290517f5b6b431d4476a211bb7d41c20d1aab9ae2321deee0d20be3d9fc9b1093fa6e3d9181900360200190a150565b6000546001600160a01b031681565b6001546001600160a01b031681565b6002546001600160a01b031633146103f4576040805162461bcd60e51b815260206004820152600b60248201526a61646d696e3a207775743f60a81b604482015290519081900360640190fd5b600080546001600160a01b0319166001600160a01b0392909216919091179055565b6002546001600160a01b031681565b8015806104ab575060408051636eb1769f60e11b81523060048201526001600160a01b03848116602483015291519185169163dd62ed3e91604480820192602092909190829003018186803b15801561047d57600080fd5b505afa158015610491573d6000803e3d6000fd5b505050506040513d60208110156104a757600080fd5b5051155b6104e65760405162461bcd60e51b81526004018080602001828103825260368152602001806108ab6036913960400191505060405180910390fd5b604080516001600160a01b038416602482015260448082018490528251808303909101815260649091019091526020810180516001600160e01b031663095ea7b360e01b17905261053890849061058b565b505050565b604080516001600160a01b038416602482015260448082018490528251808303909101815260649091019091526020810180516001600160e01b031663a9059cbb60e01b1790526105389084905b60006105e0826040518060400160405280602081526020017f5361666545524332303a206c6f772d6c6576656c2063616c6c206661696c6564815250856001600160a01b031661063c9092919063ffffffff16565b805190915015610538578080602001905160208110156105ff57600080fd5b50516105385760405162461bcd60e51b815260040180806020018281038252602a815260200180610881602a913960400191505060405180910390fd5b606061064b8484600085610655565b90505b9392505050565b6060824710156106965760405162461bcd60e51b815260040180806020018281038252602681526020018061085b6026913960400191505060405180910390fd5b61069f856107b0565b6106f0576040805162461bcd60e51b815260206004820152601d60248201527f416464726573733a2063616c6c20746f206e6f6e2d636f6e7472616374000000604482015290519081900360640190fd5b600080866001600160a01b031685876040518082805190602001908083835b6020831061072e5780518252601f19909201916020918201910161070f565b6001836020036101000a03801982511681845116808217855250505050505090500191505060006040518083038185875af1925050503d8060008114610790576040519150601f19603f3d011682016040523d82523d6000602084013e610795565b606091505b50915091506107a58282866107b6565b979650505050505050565b3b151590565b606083156107c557508161064e565b8251156107d55782518084602001fd5b8160405162461bcd60e51b81526004018080602001828103825283818151815260200191508051906020019080838360005b8381101561081f578181015183820152602001610807565b50505050905090810190601f16801561084c5780820380516001836020036101000a031916815260200191505b509250505060405180910390fdfe416464726573733a20696e73756666696369656e742062616c616e636520666f722063616c6c5361666545524332303a204552433230206f7065726174696f6e20646964206e6f7420737563636565645361666545524332303a20617070726f76652066726f6d206e6f6e2d7a65726f20746f206e6f6e2d7a65726f20616c6c6f77616e6365a2646970667358221220bbe0389d389d079c02636ff3233c4c7653aa50b880488827b55472d464df83df64736f6c63430007060033",
  "immutableReferences": {},
  "source": "// SPDX-License-Identifier: MIT\n\npragma solidity <=0.8.2;\n\nimport \"@openzeppelin/contracts/token/ERC20/IERC20.sol\";\nimport \"@openzeppelin/contracts/token/ERC20/SafeERC20.sol\";\n\ninterface Lottery {\n    function buy(uint256 _price, uint8[4] memory _numbers) external;\n}\n\ncontract LotteryRewardProxy {\n    using SafeERC20 for IERC20;\n\n    Lottery public lottery;\n    IERC20 public cow;\n    address public adminAddress;\n\n    constructor(\n        Lottery _lottery,\n        IERC20 _cow,\n        address _admin\n    ) {\n        lottery = _lottery;\n        cow = _cow;\n        adminAddress = _admin;\n    }\n\n    event Inject(uint256 amount);\n    event Withdraw(uint256 amount);\n\n    uint8[4] private nullTicket = [0,0,0,0];\n\n    modifier onlyAdmin() {\n        require(msg.sender == adminAddress, \"admin: wut?\");\n        _;\n    }\n\n    function inject(uint256 _amount) external onlyAdmin {\n        cow.safeApprove(address(lottery), _amount);\n        lottery.buy(_amount, nullTicket);\n        emit Inject(_amount);\n    }\n\n    function adminWithdraw(uint256 _amount) external onlyAdmin {\n        cow.safeTransfer(address(msg.sender), _amount);\n        emit Withdraw(_amount);\n    }\n\n    function setAdmin(address _adminAddress) external onlyAdmin {\n        adminAddress = _adminAddress;\n    }\n\n    function setLottery(Lottery _lotteryAddress) external onlyAdmin {\n        lottery = _lotteryAddress;\n    }\n\n}",
  "sourcePath": "/home/rahul/Pancake Clone/lottery-contract/contracts/LotteryRewardProxy.sol",
  "compiler": {
    "name": "solc",
    "version": "0.7.6+commit.7338295f.Emscripten.clang"
  },
  "schemaVersion": "3.3.4",
  "updatedAt": "2021-06-04T11:13:21.348Z",
  "devdoc": {
    "kind": "dev",
    "methods": {},
    "version": 1
  },
  "userdoc": {
    "kind": "user",
    "methods": {},
    "version": 1
  }
}