{
  "contractName": "IFO",
  "abi": [
    {
      "inputs": [
        {
          "internalType": "contract IBEP20",
          "name": "_lpToken",
          "type": "address"
        },
        {
          "internalType": "contract IBEP20",
          "name": "_offeringToken",
          "type": "address"
        },
        {
          "internalType": "uint256",
          "name": "_startBlock",
          "type": "uint256"
        },
        {
          "internalType": "uint256",
          "name": "_endBlock",
          "type": "uint256"
        },
        {
          "internalType": "uint256",
          "name": "_offeringAmount",
          "type": "uint256"
        },
        {
          "internalType": "uint256",
          "name": "_raisingAmount",
          "type": "uint256"
        },
        {
          "internalType": "address",
          "name": "_adminAddress",
          "type": "address"
        }
      ],
      "stateMutability": "nonpayable",
      "type": "constructor"
    },
    {
      "anonymous": false,
      "inputs": [
        {
          "indexed": true,
          "internalType": "address",
          "name": "user",
          "type": "address"
        },
        {
          "indexed": false,
          "internalType": "uint256",
          "name": "amount",
          "type": "uint256"
        }
      ],
      "name": "Deposit",
      "type": "event"
    },
    {
      "anonymous": false,
      "inputs": [
        {
          "indexed": true,
          "internalType": "address",
          "name": "user",
          "type": "address"
        },
        {
          "indexed": false,
          "internalType": "uint256",
          "name": "offeringAmount",
          "type": "uint256"
        },
        {
          "indexed": false,
          "internalType": "uint256",
          "name": "excessAmount",
          "type": "uint256"
        }
      ],
      "name": "Harvest",
      "type": "event"
    },
    {
      "inputs": [
        {
          "internalType": "uint256",
          "name": "",
          "type": "uint256"
        }
      ],
      "name": "addressList",
      "outputs": [
        {
          "internalType": "address",
          "name": "",
          "type": "address"
        }
      ],
      "stateMutability": "view",
      "type": "function",
      "constant": true
    },
    {
      "inputs": [],
      "name": "adminAddress",
      "outputs": [
        {
          "internalType": "address",
          "name": "",
          "type": "address"
        }
      ],
      "stateMutability": "view",
      "type": "function",
      "constant": true
    },
    {
      "inputs": [],
      "name": "endBlock",
      "outputs": [
        {
          "internalType": "uint256",
          "name": "",
          "type": "uint256"
        }
      ],
      "stateMutability": "view",
      "type": "function",
      "constant": true
    },
    {
      "inputs": [],
      "name": "lpToken",
      "outputs": [
        {
          "internalType": "contract IBEP20",
          "name": "",
          "type": "address"
        }
      ],
      "stateMutability": "view",
      "type": "function",
      "constant": true
    },
    {
      "inputs": [],
      "name": "offeringAmount",
      "outputs": [
        {
          "internalType": "uint256",
          "name": "",
          "type": "uint256"
        }
      ],
      "stateMutability": "view",
      "type": "function",
      "constant": true
    },
    {
      "inputs": [],
      "name": "offeringToken",
      "outputs": [
        {
          "internalType": "contract IBEP20",
          "name": "",
          "type": "address"
        }
      ],
      "stateMutability": "view",
      "type": "function",
      "constant": true
    },
    {
      "inputs": [],
      "name": "raisingAmount",
      "outputs": [
        {
          "internalType": "uint256",
          "name": "",
          "type": "uint256"
        }
      ],
      "stateMutability": "view",
      "type": "function",
      "constant": true
    },
    {
      "inputs": [],
      "name": "startBlock",
      "outputs": [
        {
          "internalType": "uint256",
          "name": "",
          "type": "uint256"
        }
      ],
      "stateMutability": "view",
      "type": "function",
      "constant": true
    },
    {
      "inputs": [],
      "name": "totalAmount",
      "outputs": [
        {
          "internalType": "uint256",
          "name": "",
          "type": "uint256"
        }
      ],
      "stateMutability": "view",
      "type": "function",
      "constant": true
    },
    {
      "inputs": [
        {
          "internalType": "address",
          "name": "",
          "type": "address"
        }
      ],
      "name": "userInfo",
      "outputs": [
        {
          "internalType": "uint256",
          "name": "amount",
          "type": "uint256"
        },
        {
          "internalType": "bool",
          "name": "claimed",
          "type": "bool"
        }
      ],
      "stateMutability": "view",
      "type": "function",
      "constant": true
    },
    {
      "inputs": [
        {
          "internalType": "uint256",
          "name": "_offerAmount",
          "type": "uint256"
        }
      ],
      "name": "setOfferingAmount",
      "outputs": [],
      "stateMutability": "nonpayable",
      "type": "function"
    },
    {
      "inputs": [
        {
          "internalType": "uint256",
          "name": "_raisingAmount",
          "type": "uint256"
        }
      ],
      "name": "setRaisingAmount",
      "outputs": [],
      "stateMutability": "nonpayable",
      "type": "function"
    },
    {
      "inputs": [
        {
          "internalType": "uint256",
          "name": "_amount",
          "type": "uint256"
        }
      ],
      "name": "deposit",
      "outputs": [],
      "stateMutability": "nonpayable",
      "type": "function"
    },
    {
      "inputs": [],
      "name": "harvest",
      "outputs": [],
      "stateMutability": "nonpayable",
      "type": "function"
    },
    {
      "inputs": [
        {
          "internalType": "address",
          "name": "_user",
          "type": "address"
        }
      ],
      "name": "hasHarvest",
      "outputs": [
        {
          "internalType": "bool",
          "name": "",
          "type": "bool"
        }
      ],
      "stateMutability": "view",
      "type": "function",
      "constant": true
    },
    {
      "inputs": [
        {
          "internalType": "address",
          "name": "_user",
          "type": "address"
        }
      ],
      "name": "getUserAllocation",
      "outputs": [
        {
          "internalType": "uint256",
          "name": "",
          "type": "uint256"
        }
      ],
      "stateMutability": "view",
      "type": "function",
      "constant": true
    },
    {
      "inputs": [
        {
          "internalType": "address",
          "name": "_user",
          "type": "address"
        }
      ],
      "name": "getOfferingAmount",
      "outputs": [
        {
          "internalType": "uint256",
          "name": "",
          "type": "uint256"
        }
      ],
      "stateMutability": "view",
      "type": "function",
      "constant": true
    },
    {
      "inputs": [
        {
          "internalType": "address",
          "name": "_user",
          "type": "address"
        }
      ],
      "name": "getRefundingAmount",
      "outputs": [
        {
          "internalType": "uint256",
          "name": "",
          "type": "uint256"
        }
      ],
      "stateMutability": "view",
      "type": "function",
      "constant": true
    },
    {
      "inputs": [],
      "name": "getAddressListLength",
      "outputs": [
        {
          "internalType": "uint256",
          "name": "",
          "type": "uint256"
        }
      ],
      "stateMutability": "view",
      "type": "function",
      "constant": true
    },
    {
      "inputs": [
        {
          "internalType": "uint256",
          "name": "_lpAmount",
          "type": "uint256"
        },
        {
          "internalType": "uint256",
          "name": "_offerAmount",
          "type": "uint256"
        }
      ],
      "name": "finalWithdraw",
      "outputs": [],
      "stateMutability": "nonpayable",
      "type": "function"
    }
  ],
  "bytecode": "0x608060405234801561001057600080fd5b50604051611257380380611257833981810160405260e081101561003357600080fd5b508051602082015160408301516060840151608085015160a086015160c09096015160016000818155600280546001600160a01b03998a166001600160a01b03199182161790915560038054988a16988216989098179097556004959095556005939093556007919091556006959095556008919091558054929093169116179055611193806100c46000396000f3fe608060405234801561001057600080fd5b506004361061012c5760003560e01c806387e97bc6116100ad578063b810fb4311610071578063b810fb43146102d8578063b920ade2146102f5578063e1af9a951461031b578063fc00358e14610323578063fc6f94681461032b5761012c565b806387e97bc6146102625780639c0a7669146102885780639f1b524814610290578063b6b55f25146102b3578063b7813607146102d05761012c565b80634225c32f116100f45780634225c32f146101d75780634641257d146101f457806348cd4cb1146101fc5780635fcbd2851461020457806364ce9fff146102285761012c565b8063083c6323146101315780631959a0021461014b5780631a39d8ef1461018a57806327d1b1a2146101925780632f5105f8146101b1575b600080fd5b610139610333565b60408051918252519081900360200190f35b6101716004803603602081101561016157600080fd5b50356001600160a01b0316610339565b6040805192835290151560208301528051918290030190f35b610139610355565b6101af600480360360208110156101a857600080fd5b503561035b565b005b610139600480360360208110156101c757600080fd5b50356001600160a01b03166103e8565b6101af600480360360208110156101ed57600080fd5b503561045e565b6101af6104eb565b6101396106fb565b61020c610701565b604080516001600160a01b039092168252519081900360200190f35b61024e6004803603602081101561023e57600080fd5b50356001600160a01b0316610710565b604080519115158252519081900360200190f35b6101396004803603602081101561027857600080fd5b50356001600160a01b0316610731565b6101396107a5565b6101af600480360360408110156102a657600080fd5b50803590602001356107ab565b6101af600480360360208110156102c957600080fd5b50356109a8565b61020c610b24565b61020c600480360360208110156102ee57600080fd5b5035610b33565b6101396004803603602081101561030b57600080fd5b50356001600160a01b0316610b5a565b610139610b98565b610139610b9e565b61020c610ba4565b60055481565b6009602052600090815260409020805460019091015460ff1682565b60085481565b6001546001600160a01b031633146103a8576040805162461bcd60e51b815260206004820152600b60248201526a61646d696e3a207775743f60a81b604482015290519081900360640190fd5b60045443106103e3576040805162461bcd60e51b81526020600482015260026024820152616e6f60f01b604482015290519081900360640190fd5b600755565b6000600654600854116103fd57506000610459565b600061040883610b5a565b9050600061042e620f424061042884600654610bb390919063ffffffff16565b90610c13565b6001600160a01b0385166000908152600960205260409020549091506104549082610c55565b925050505b919050565b6001546001600160a01b031633146104ab576040805162461bcd60e51b815260206004820152600b60248201526a61646d696e3a207775743f60a81b604482015290519081900360640190fd5b60045443106104e6576040805162461bcd60e51b81526020600482015260026024820152616e6f60f01b604482015290519081900360640190fd5b600655565b60026000541415610543576040805162461bcd60e51b815260206004820152601f60248201527f5265656e7472616e637947756172643a207265656e7472616e742063616c6c00604482015290519081900360640190fd5b60026000556005544311610591576040805162461bcd60e51b815260206004820152601060248201526f6e6f7420686172766573742074696d6560801b604482015290519081900360640190fd5b336000908152600960205260409020546105eb576040805162461bcd60e51b81526020600482015260166024820152756861766520796f75207061727469636970617465643f60501b604482015290519081900360640190fd5b3360009081526009602052604090206001015460ff1615610648576040805162461bcd60e51b81526020600482015260126024820152711b9bdd1a1a5b99c81d1bc81a185c9d995cdd60721b604482015290519081900360640190fd5b600061065333610731565b90506000610660336103e8565b60035490915061067a906001600160a01b03163384610c97565b801561069757600254610697906001600160a01b03163383610c97565b336000818152600960209081526040918290206001908101805460ff19169091179055815185815290810184905281517f71bab65ced2e5750775a0613be067df48ef06cf92a496ebf7663ae0660924954929181900390910190a250506001600055565b60045481565b6002546001600160a01b031681565b6001600160a01b031660009081526009602052604090206001015460ff1690565b6000600654600854111561077057600061074a83610b5a565b9050610768620f424061042883600754610bb390919063ffffffff16565b915050610459565b6006546007546001600160a01b03841660009081526009602052604090205461079e92916104289190610bb3565b9050610459565b60065481565b6001546001600160a01b031633146107f8576040805162461bcd60e51b815260206004820152600b60248201526a61646d696e3a207775743f60a81b604482015290519081900360640190fd5b600254604080516370a0823160e01b815230600482015290516001600160a01b03909216916370a0823191602480820192602092909190829003018186803b15801561084357600080fd5b505afa158015610857573d6000803e3d6000fd5b505050506040513d602081101561086d57600080fd5b505182106108b7576040805162461bcd60e51b815260206004820152601260248201527106e6f7420656e6f75676820746f6b656e20360741b604482015290519081900360640190fd5b600354604080516370a0823160e01b815230600482015290516001600160a01b03909216916370a0823191602480820192602092909190829003018186803b15801561090257600080fd5b505afa158015610916573d6000803e3d6000fd5b505050506040513d602081101561092c57600080fd5b50518110610976576040805162461bcd60e51b81526020600482015260126024820152716e6f7420656e6f75676820746f6b656e203160701b604482015290519081900360640190fd5b60025461098d906001600160a01b03163384610c97565b6003546109a4906001600160a01b03163383610c97565b5050565b600454431180156109ba575060055443105b6109fa576040805162461bcd60e51b815260206004820152600c60248201526b6e6f742069666f2074696d6560a01b604482015290519081900360640190fd5b60008111610a42576040805162461bcd60e51b815260206004820152601060248201526f06e656564205f616d6f756e74203e20360841b604482015290519081900360640190fd5b600254610a5a906001600160a01b0316333084610cee565b33600090815260096020526040902054610ab157600a80546001810182556000919091527fc65a7bb8d6351c1cf70c95a316cc6a92839c986682d98bc35f958f4883f9d2a80180546001600160a01b031916331790555b33600090815260096020526040902054610acb9082610d4e565b33600090815260096020526040902055600854610ae89082610d4e565b60085560408051828152905133917fe1fffcc4923d04b559f4d29a8bfc6cda04eb5b0d3c460751c2402c5c5cc9109c919081900360200190a250565b6003546001600160a01b031681565b600a8181548110610b4057fe5b6000918252602090912001546001600160a01b0316905081565b6008546001600160a01b0382166000908152600960205260408120549091610b9291620f42409161042891829064e8d4a51000610bb3565b92915050565b60075481565b600a5490565b6001546001600160a01b031681565b600082610bc257506000610b92565b82820282848281610bcf57fe5b0414610c0c5760405162461bcd60e51b815260040180806020018281038252602181526020018061113d6021913960400191505060405180910390fd5b9392505050565b6000610c0c83836040518060400160405280601a81526020017f536166654d6174683a206469766973696f6e206279207a65726f000000000000815250610da8565b6000610c0c83836040518060400160405280601e81526020017f536166654d6174683a207375627472616374696f6e206f766572666c6f770000815250610e4a565b604080516001600160a01b038416602482015260448082018490528251808303909101815260649091019091526020810180516001600160e01b031663a9059cbb60e01b179052610ce9908490610ea4565b505050565b604080516001600160a01b0380861660248301528416604482015260648082018490528251808303909101815260849091019091526020810180516001600160e01b03166323b872dd60e01b179052610d48908590610ea4565b50505050565b600082820183811015610c0c576040805162461bcd60e51b815260206004820152601b60248201527f536166654d6174683a206164646974696f6e206f766572666c6f770000000000604482015290519081900360640190fd5b60008183610e345760405162461bcd60e51b81526004018080602001828103825283818151815260200191508051906020019080838360005b83811015610df9578181015183820152602001610de1565b50505050905090810190601f168015610e265780820380516001836020036101000a031916815260200191505b509250505060405180910390fd5b506000838581610e4057fe5b0495945050505050565b60008184841115610e9c5760405162461bcd60e51b8152602060048201818152835160248401528351909283926044909101919085019080838360008315610df9578181015183820152602001610de1565b505050900390565b6060610ef9826040518060400160405280602081526020017f5361666542455032303a206c6f772d6c6576656c2063616c6c206661696c6564815250856001600160a01b0316610f559092919063ffffffff16565b805190915015610ce957808060200190516020811015610f1857600080fd5b5051610ce95760405162461bcd60e51b815260040180806020018281038252602a815260200180611113602a913960400191505060405180910390fd5b6060610f648484600085610f6c565b949350505050565b6060610f77856110d9565b610fc8576040805162461bcd60e51b815260206004820152601d60248201527f416464726573733a2063616c6c20746f206e6f6e2d636f6e7472616374000000604482015290519081900360640190fd5b60006060866001600160a01b031685876040518082805190602001908083835b602083106110075780518252601f199092019160209182019101610fe8565b6001836020036101000a03801982511681845116808217855250505050505090500191505060006040518083038185875af1925050503d8060008114611069576040519150601f19603f3d011682016040523d82523d6000602084013e61106e565b606091505b50915091508115611082579150610f649050565b8051156110925780518082602001fd5b60405162461bcd60e51b8152602060048201818152865160248401528651879391928392604401919085019080838360008315610df9578181015183820152602001610de1565b6000813f7fc5d2460186f7233c927e7db2dcc703c0e500b653ca82273b7bfad8045d85a47081811480159061045457505015159291505056fe5361666542455032303a204245503230206f7065726174696f6e20646964206e6f742073756363656564536166654d6174683a206d756c7469706c69636174696f6e206f766572666c6f77a26469706673582212202537e3d60c8134777cc1120865305102d6aeeb1daa20fc240c4a1cddd62657ed64736f6c634300060c0033",
  "immutableReferences": {},
  "source": "pragma solidity 0.6.12;\n\nimport '@pancakeswap/pancake-swap-lib/contracts/math/SafeMath.sol';\nimport '@pancakeswap/pancake-swap-lib/contracts/token/BEP20/IBEP20.sol';\nimport '@pancakeswap/pancake-swap-lib/contracts/token/BEP20/SafeBEP20.sol';\nimport '@pancakeswap/pancake-swap-lib/contracts/utils/ReentrancyGuard.sol';\n\ncontract IFO is ReentrancyGuard {\n  using SafeMath for uint256;\n  using SafeBEP20 for IBEP20;\n\n  // Info of each user.\n  struct UserInfo {\n      uint256 amount;   // How many tokens the user has provided.\n      bool claimed;  // default false\n  }\n\n  // admin address\n  address public adminAddress;\n  // The raising token\n  IBEP20 public lpToken;\n  // The offering token\n  IBEP20 public offeringToken;\n  // The block number when IFO starts\n  uint256 public startBlock;\n  // The block number when IFO ends\n  uint256 public endBlock;\n  // total amount of raising tokens need to be raised\n  uint256 public raisingAmount;\n  // total amount of offeringToken that will offer\n  uint256 public offeringAmount;\n  // total amount of raising tokens that have already raised\n  uint256 public totalAmount;\n  // address => amount\n  mapping (address => UserInfo) public userInfo;\n  // participators\n  address[] public addressList;\n\n\n  event Deposit(address indexed user, uint256 amount);\n  event Harvest(address indexed user, uint256 offeringAmount, uint256 excessAmount);\n\n  constructor(\n      IBEP20 _lpToken,\n      IBEP20 _offeringToken,\n      uint256 _startBlock,\n      uint256 _endBlock,\n      uint256 _offeringAmount,\n      uint256 _raisingAmount,\n      address _adminAddress\n  ) public {\n      lpToken = _lpToken;\n      offeringToken = _offeringToken;\n      startBlock = _startBlock;\n      endBlock = _endBlock;\n      offeringAmount = _offeringAmount;\n      raisingAmount= _raisingAmount;\n      totalAmount = 0;\n      adminAddress = _adminAddress;\n  }\n\n  modifier onlyAdmin() {\n    require(msg.sender == adminAddress, \"admin: wut?\");\n    _;\n  }\n\n  function setOfferingAmount(uint256 _offerAmount) public onlyAdmin {\n    require (block.number < startBlock, 'no');\n    offeringAmount = _offerAmount;\n  }\n\n  function setRaisingAmount(uint256 _raisingAmount) public onlyAdmin {\n    require (block.number < startBlock, 'no');\n    raisingAmount= _raisingAmount;\n  }\n\n  function deposit(uint256 _amount) public {\n    require (block.number > startBlock && block.number < endBlock, 'not ifo time');\n    require (_amount > 0, 'need _amount > 0');\n    lpToken.safeTransferFrom(address(msg.sender), address(this), _amount);\n    if (userInfo[msg.sender].amount == 0) {\n      addressList.push(address(msg.sender));\n    }\n    userInfo[msg.sender].amount = userInfo[msg.sender].amount.add(_amount);\n    totalAmount = totalAmount.add(_amount);\n    emit Deposit(msg.sender, _amount);\n  }\n\n  function harvest() public nonReentrant {\n    require (block.number > endBlock, 'not harvest time');\n    require (userInfo[msg.sender].amount > 0, 'have you participated?');\n    require (!userInfo[msg.sender].claimed, 'nothing to harvest');\n    uint256 offeringTokenAmount = getOfferingAmount(msg.sender);\n    uint256 refundingTokenAmount = getRefundingAmount(msg.sender);\n    offeringToken.safeTransfer(address(msg.sender), offeringTokenAmount);\n    if (refundingTokenAmount > 0) {\n      lpToken.safeTransfer(address(msg.sender), refundingTokenAmount);\n    }\n    userInfo[msg.sender].claimed = true;\n    emit Harvest(msg.sender, offeringTokenAmount, refundingTokenAmount);\n  }\n\n  function hasHarvest(address _user) external view returns(bool) {\n      return userInfo[_user].claimed;\n  }\n\n  // allocation 100000 means 0.1(10%), 1 meanss 0.000001(0.0001%), 1000000 means 1(100%)\n  function getUserAllocation(address _user) public view returns(uint256) {\n    return userInfo[_user].amount.mul(1e12).div(totalAmount).div(1e6);\n  }\n\n  // get the amount of IFO token you will get\n  function getOfferingAmount(address _user) public view returns(uint256) {\n    if (totalAmount > raisingAmount) {\n      uint256 allocation = getUserAllocation(_user);\n      return offeringAmount.mul(allocation).div(1e6);\n    }\n    else {\n      // userInfo[_user] / (raisingAmount / offeringAmount)\n      return userInfo[_user].amount.mul(offeringAmount).div(raisingAmount);\n    }\n  }\n\n  // get the amount of lp token you will be refunded\n  function getRefundingAmount(address _user) public view returns(uint256) {\n    if (totalAmount <= raisingAmount) {\n      return 0;\n    }\n    uint256 allocation = getUserAllocation(_user);\n    uint256 payAmount = raisingAmount.mul(allocation).div(1e6);\n    return userInfo[_user].amount.sub(payAmount);\n  }\n\n  function getAddressListLength() external view returns(uint256) {\n    return addressList.length;\n  }\n\n  function finalWithdraw(uint256 _lpAmount, uint256 _offerAmount) public onlyAdmin {\n    require (_lpAmount < lpToken.balanceOf(address(this)), 'not enough token 0');\n    require (_offerAmount < offeringToken.balanceOf(address(this)), 'not enough token 1');\n    lpToken.safeTransfer(address(msg.sender), _lpAmount);\n    offeringToken.safeTransfer(address(msg.sender), _offerAmount);\n  }\n}\n",
  "sourcePath": "/home/rahul/Pancake Clone/initial-farm-offering/contracts/IFO.sol",
  "compiler": {
    "name": "solc",
    "version": "0.6.12+commit.27d51765.Emscripten.clang"
  },
  "schemaVersion": "3.3.4",
  "updatedAt": "2021-05-26T09:58:21.347Z",
  "networkType": "ethereum",
  "devdoc": {
    "kind": "dev",
    "methods": {},
    "version": 1
  },
  "userdoc": {
    "kind": "user",
    "methods": {},
    "version": 1
  }
}