{
  "contractName": "IFOByProxy",
  "abi": [
    {
      "inputs": [],
      "stateMutability": "nonpayable",
      "type": "constructor"
    },
    {
      "anonymous": false,
      "inputs": [
        {
          "indexed": true,
          "internalType": "address",
          "name": "user",
          "type": "address"
        },
        {
          "indexed": false,
          "internalType": "uint256",
          "name": "amount",
          "type": "uint256"
        }
      ],
      "name": "Deposit",
      "type": "event"
    },
    {
      "anonymous": false,
      "inputs": [
        {
          "indexed": true,
          "internalType": "address",
          "name": "user",
          "type": "address"
        },
        {
          "indexed": false,
          "internalType": "uint256",
          "name": "offeringAmount",
          "type": "uint256"
        },
        {
          "indexed": false,
          "internalType": "uint256",
          "name": "excessAmount",
          "type": "uint256"
        }
      ],
      "name": "Harvest",
      "type": "event"
    },
    {
      "inputs": [
        {
          "internalType": "uint256",
          "name": "",
          "type": "uint256"
        }
      ],
      "name": "addressList",
      "outputs": [
        {
          "internalType": "address",
          "name": "",
          "type": "address"
        }
      ],
      "stateMutability": "view",
      "type": "function",
      "constant": true
    },
    {
      "inputs": [],
      "name": "adminAddress",
      "outputs": [
        {
          "internalType": "address",
          "name": "",
          "type": "address"
        }
      ],
      "stateMutability": "view",
      "type": "function",
      "constant": true
    },
    {
      "inputs": [],
      "name": "endBlock",
      "outputs": [
        {
          "internalType": "uint256",
          "name": "",
          "type": "uint256"
        }
      ],
      "stateMutability": "view",
      "type": "function",
      "constant": true
    },
    {
      "inputs": [],
      "name": "lpToken",
      "outputs": [
        {
          "internalType": "contract IBEP20",
          "name": "",
          "type": "address"
        }
      ],
      "stateMutability": "view",
      "type": "function",
      "constant": true
    },
    {
      "inputs": [],
      "name": "offeringAmount",
      "outputs": [
        {
          "internalType": "uint256",
          "name": "",
          "type": "uint256"
        }
      ],
      "stateMutability": "view",
      "type": "function",
      "constant": true
    },
    {
      "inputs": [],
      "name": "offeringToken",
      "outputs": [
        {
          "internalType": "contract IBEP20",
          "name": "",
          "type": "address"
        }
      ],
      "stateMutability": "view",
      "type": "function",
      "constant": true
    },
    {
      "inputs": [],
      "name": "raisingAmount",
      "outputs": [
        {
          "internalType": "uint256",
          "name": "",
          "type": "uint256"
        }
      ],
      "stateMutability": "view",
      "type": "function",
      "constant": true
    },
    {
      "inputs": [],
      "name": "startBlock",
      "outputs": [
        {
          "internalType": "uint256",
          "name": "",
          "type": "uint256"
        }
      ],
      "stateMutability": "view",
      "type": "function",
      "constant": true
    },
    {
      "inputs": [],
      "name": "totalAmount",
      "outputs": [
        {
          "internalType": "uint256",
          "name": "",
          "type": "uint256"
        }
      ],
      "stateMutability": "view",
      "type": "function",
      "constant": true
    },
    {
      "inputs": [
        {
          "internalType": "address",
          "name": "",
          "type": "address"
        }
      ],
      "name": "userInfo",
      "outputs": [
        {
          "internalType": "uint256",
          "name": "amount",
          "type": "uint256"
        },
        {
          "internalType": "bool",
          "name": "claimed",
          "type": "bool"
        }
      ],
      "stateMutability": "view",
      "type": "function",
      "constant": true
    },
    {
      "inputs": [
        {
          "internalType": "contract IBEP20",
          "name": "_lpToken",
          "type": "address"
        },
        {
          "internalType": "contract IBEP20",
          "name": "_offeringToken",
          "type": "address"
        },
        {
          "internalType": "uint256",
          "name": "_startBlock",
          "type": "uint256"
        },
        {
          "internalType": "uint256",
          "name": "_endBlock",
          "type": "uint256"
        },
        {
          "internalType": "uint256",
          "name": "_offeringAmount",
          "type": "uint256"
        },
        {
          "internalType": "uint256",
          "name": "_raisingAmount",
          "type": "uint256"
        },
        {
          "internalType": "address",
          "name": "_adminAddress",
          "type": "address"
        }
      ],
      "name": "initialize",
      "outputs": [],
      "stateMutability": "nonpayable",
      "type": "function"
    },
    {
      "inputs": [
        {
          "internalType": "uint256",
          "name": "_offerAmount",
          "type": "uint256"
        }
      ],
      "name": "setOfferingAmount",
      "outputs": [],
      "stateMutability": "nonpayable",
      "type": "function"
    },
    {
      "inputs": [
        {
          "internalType": "uint256",
          "name": "_raisingAmount",
          "type": "uint256"
        }
      ],
      "name": "setRaisingAmount",
      "outputs": [],
      "stateMutability": "nonpayable",
      "type": "function"
    },
    {
      "inputs": [
        {
          "internalType": "uint256",
          "name": "_amount",
          "type": "uint256"
        }
      ],
      "name": "deposit",
      "outputs": [],
      "stateMutability": "nonpayable",
      "type": "function"
    },
    {
      "inputs": [],
      "name": "harvest",
      "outputs": [],
      "stateMutability": "nonpayable",
      "type": "function"
    },
    {
      "inputs": [
        {
          "internalType": "address",
          "name": "_user",
          "type": "address"
        }
      ],
      "name": "hasHarvest",
      "outputs": [
        {
          "internalType": "bool",
          "name": "",
          "type": "bool"
        }
      ],
      "stateMutability": "view",
      "type": "function",
      "constant": true
    },
    {
      "inputs": [
        {
          "internalType": "address",
          "name": "_user",
          "type": "address"
        }
      ],
      "name": "getUserAllocation",
      "outputs": [
        {
          "internalType": "uint256",
          "name": "",
          "type": "uint256"
        }
      ],
      "stateMutability": "view",
      "type": "function",
      "constant": true
    },
    {
      "inputs": [
        {
          "internalType": "address",
          "name": "_user",
          "type": "address"
        }
      ],
      "name": "getOfferingAmount",
      "outputs": [
        {
          "internalType": "uint256",
          "name": "",
          "type": "uint256"
        }
      ],
      "stateMutability": "view",
      "type": "function",
      "constant": true
    },
    {
      "inputs": [
        {
          "internalType": "address",
          "name": "_user",
          "type": "address"
        }
      ],
      "name": "getRefundingAmount",
      "outputs": [
        {
          "internalType": "uint256",
          "name": "",
          "type": "uint256"
        }
      ],
      "stateMutability": "view",
      "type": "function",
      "constant": true
    },
    {
      "inputs": [],
      "name": "getAddressListLength",
      "outputs": [
        {
          "internalType": "uint256",
          "name": "",
          "type": "uint256"
        }
      ],
      "stateMutability": "view",
      "type": "function",
      "constant": true
    },
    {
      "inputs": [
        {
          "internalType": "uint256",
          "name": "_lpAmount",
          "type": "uint256"
        },
        {
          "internalType": "uint256",
          "name": "_offerAmount",
          "type": "uint256"
        }
      ],
      "name": "finalWithdraw",
      "outputs": [],
      "stateMutability": "nonpayable",
      "type": "function"
    }
  ],
  "bytecode": "0x608060405234801561001057600080fd5b50600160005561135a806100256000396000f3fe608060405234801561001057600080fd5b50600436106101375760003560e01c806383a5041c116100b8578063b78136071161007c578063b78136071461032b578063b810fb4314610333578063b920ade214610350578063e1af9a9514610376578063fc00358e1461037e578063fc6f94681461038657610137565b806383a5041c1461026d57806387e97bc6146102bd5780639c0a7669146102e35780639f1b5248146102eb578063b6b55f251461030e57610137565b80634225c32f116100ff5780634225c32f146101e25780634641257d146101ff57806348cd4cb1146102075780635fcbd2851461020f57806364ce9fff1461023357610137565b8063083c63231461013c5780631959a002146101565780631a39d8ef1461019557806327d1b1a21461019d5780632f5105f8146101bc575b600080fd5b61014461038e565b60408051918252519081900360200190f35b61017c6004803603602081101561016c57600080fd5b50356001600160a01b0316610394565b6040805192835290151560208301528051918290030190f35b6101446103b0565b6101ba600480360360208110156101b357600080fd5b50356103b6565b005b610144600480360360208110156101d257600080fd5b50356001600160a01b0316610449565b6101ba600480360360208110156101f857600080fd5b50356104bf565b6101ba610552565b610144610767565b61021761076d565b604080516001600160a01b039092168252519081900360200190f35b6102596004803603602081101561024957600080fd5b50356001600160a01b031661077c565b604080519115158252519081900360200190f35b6101ba600480360360e081101561028357600080fd5b506001600160a01b038135811691602081013582169160408201359160608101359160808201359160a08101359160c0909101351661079d565b610144600480360360208110156102d357600080fd5b50356001600160a01b03166108ac565b610144610920565b6101ba6004803603604081101561030157600080fd5b5080359060200135610926565b6101ba6004803603602081101561032457600080fd5b5035610b35565b610217610cb1565b6102176004803603602081101561034957600080fd5b5035610cc0565b6101446004803603602081101561036657600080fd5b50356001600160a01b0316610ce7565b610144610d25565b610144610d2b565b610217610d31565b60055481565b6009602052600090815260409020805460019091015460ff1682565b60085481565b6001546201000090046001600160a01b03163314610409576040805162461bcd60e51b815260206004820152600b60248201526a61646d696e3a207775743f60a81b604482015290519081900360640190fd5b6004544310610444576040805162461bcd60e51b81526020600482015260026024820152616e6f60f01b604482015290519081900360640190fd5b600755565b60006006546008541161045e575060006104ba565b600061046983610ce7565b9050600061048f620f424061048984600654610d4690919063ffffffff16565b90610da6565b6001600160a01b0385166000908152600960205260409020549091506104b59082610de8565b925050505b919050565b6001546201000090046001600160a01b03163314610512576040805162461bcd60e51b815260206004820152600b60248201526a61646d696e3a207775743f60a81b604482015290519081900360640190fd5b600454431061054d576040805162461bcd60e51b81526020600482015260026024820152616e6f60f01b604482015290519081900360640190fd5b600655565b600260005414156105aa576040805162461bcd60e51b815260206004820152601f60248201527f5265656e7472616e637947756172643a207265656e7472616e742063616c6c00604482015290519081900360640190fd5b600260005560055443116105f8576040805162461bcd60e51b815260206004820152601060248201526f6e6f7420686172766573742074696d6560801b604482015290519081900360640190fd5b33600090815260096020526040902054610652576040805162461bcd60e51b81526020600482015260166024820152756861766520796f75207061727469636970617465643f60501b604482015290519081900360640190fd5b3360009081526009602052604090206001015460ff16156106af576040805162461bcd60e51b81526020600482015260126024820152711b9bdd1a1a5b99c81d1bc81a185c9d995cdd60721b604482015290519081900360640190fd5b60006106ba336108ac565b905060006106c733610449565b905081156106e6576003546106e6906001600160a01b03163384610e2a565b801561070357600254610703906001600160a01b03163383610e2a565b336000818152600960209081526040918290206001908101805460ff19169091179055815185815290810184905281517f71bab65ced2e5750775a0613be067df48ef06cf92a496ebf7663ae0660924954929181900390910190a250506001600055565b60045481565b6002546001600160a01b031681565b6001600160a01b031660009081526009602052604090206001015460ff1690565b600154610100900460ff16806107b657506107b6610e81565b806107c4575060015460ff16155b6107ff5760405162461bcd60e51b815260040180806020018281038252602e8152602001806112d6602e913960400191505060405180910390fd5b600154610100900460ff16158015610829576001805460ff1961ff00199091166101001716811790555b600280546001600160a01b03808b166001600160a01b031992831617909255600380548a841692169190911790556004879055600586905560078590556006849055600060085560018054918416620100000262010000600160b01b031990921691909117905580156108a2576001805461ff00191690555b5050505050505050565b600060065460085411156108eb5760006108c583610ce7565b90506108e3620f424061048983600754610d4690919063ffffffff16565b9150506104ba565b6006546007546001600160a01b03841660009081526009602052604090205461091992916104899190610d46565b90506104ba565b60065481565b6001546201000090046001600160a01b03163314610979576040805162461bcd60e51b815260206004820152600b60248201526a61646d696e3a207775743f60a81b604482015290519081900360640190fd5b600254604080516370a0823160e01b815230600482015290516001600160a01b03909216916370a0823191602480820192602092909190829003018186803b1580156109c457600080fd5b505afa1580156109d8573d6000803e3d6000fd5b505050506040513d60208110156109ee57600080fd5b50518210610a38576040805162461bcd60e51b815260206004820152601260248201527106e6f7420656e6f75676820746f6b656e20360741b604482015290519081900360640190fd5b600354604080516370a0823160e01b815230600482015290516001600160a01b03909216916370a0823191602480820192602092909190829003018186803b158015610a8357600080fd5b505afa158015610a97573d6000803e3d6000fd5b505050506040513d6020811015610aad57600080fd5b50518110610af7576040805162461bcd60e51b81526020600482015260126024820152716e6f7420656e6f75676820746f6b656e203160701b604482015290519081900360640190fd5b8015610b1457600354610b14906001600160a01b03163383610e2a565b8115610b3157600254610b31906001600160a01b03163384610e2a565b5050565b60045443118015610b47575060055443105b610b87576040805162461bcd60e51b815260206004820152600c60248201526b6e6f742069666f2074696d6560a01b604482015290519081900360640190fd5b60008111610bcf576040805162461bcd60e51b815260206004820152601060248201526f06e656564205f616d6f756e74203e20360841b604482015290519081900360640190fd5b600254610be7906001600160a01b0316333084610e87565b33600090815260096020526040902054610c3e57600a80546001810182556000919091527fc65a7bb8d6351c1cf70c95a316cc6a92839c986682d98bc35f958f4883f9d2a80180546001600160a01b031916331790555b33600090815260096020526040902054610c589082610ee7565b33600090815260096020526040902055600854610c759082610ee7565b60085560408051828152905133917fe1fffcc4923d04b559f4d29a8bfc6cda04eb5b0d3c460751c2402c5c5cc9109c919081900360200190a250565b6003546001600160a01b031681565b600a8181548110610ccd57fe5b6000918252602090912001546001600160a01b0316905081565b6008546001600160a01b0382166000908152600960205260408120549091610d1f91620f42409161048991829064e8d4a51000610d46565b92915050565b60075481565b600a5490565b6001546201000090046001600160a01b031681565b600082610d5557506000610d1f565b82820282848281610d6257fe5b0414610d9f5760405162461bcd60e51b81526004018080602001828103825260218152602001806113046021913960400191505060405180910390fd5b9392505050565b6000610d9f83836040518060400160405280601a81526020017f536166654d6174683a206469766973696f6e206279207a65726f000000000000815250610f41565b6000610d9f83836040518060400160405280601e81526020017f536166654d6174683a207375627472616374696f6e206f766572666c6f770000815250610fe3565b604080516001600160a01b038416602482015260448082018490528251808303909101815260649091019091526020810180516001600160e01b031663a9059cbb60e01b179052610e7c90849061103d565b505050565b303b1590565b604080516001600160a01b0380861660248301528416604482015260648082018490528251808303909101815260849091019091526020810180516001600160e01b03166323b872dd60e01b179052610ee190859061103d565b50505050565b600082820183811015610d9f576040805162461bcd60e51b815260206004820152601b60248201527f536166654d6174683a206164646974696f6e206f766572666c6f770000000000604482015290519081900360640190fd5b60008183610fcd5760405162461bcd60e51b81526004018080602001828103825283818151815260200191508051906020019080838360005b83811015610f92578181015183820152602001610f7a565b50505050905090810190601f168015610fbf5780820380516001836020036101000a031916815260200191505b509250505060405180910390fd5b506000838581610fd957fe5b0495945050505050565b600081848411156110355760405162461bcd60e51b8152602060048201818152835160248401528351909283926044909101919085019080838360008315610f92578181015183820152602001610f7a565b505050900390565b6060611092826040518060400160405280602081526020017f5361666542455032303a206c6f772d6c6576656c2063616c6c206661696c6564815250856001600160a01b03166110ee9092919063ffffffff16565b805190915015610e7c578080602001905160208110156110b157600080fd5b5051610e7c5760405162461bcd60e51b815260040180806020018281038252602a8152602001806112ac602a913960400191505060405180910390fd5b60606110fd8484600085611105565b949350505050565b606061111085611272565b611161576040805162461bcd60e51b815260206004820152601d60248201527f416464726573733a2063616c6c20746f206e6f6e2d636f6e7472616374000000604482015290519081900360640190fd5b60006060866001600160a01b031685876040518082805190602001908083835b602083106111a05780518252601f199092019160209182019101611181565b6001836020036101000a03801982511681845116808217855250505050505090500191505060006040518083038185875af1925050503d8060008114611202576040519150601f19603f3d011682016040523d82523d6000602084013e611207565b606091505b5091509150811561121b5791506110fd9050565b80511561122b5780518082602001fd5b60405162461bcd60e51b8152602060048201818152865160248401528651879391928392604401919085019080838360008315610f92578181015183820152602001610f7a565b6000813f7fc5d2460186f7233c927e7db2dcc703c0e500b653ca82273b7bfad8045d85a4708181148015906104b557505015159291505056fe5361666542455032303a204245503230206f7065726174696f6e20646964206e6f742073756363656564496e697469616c697a61626c653a20636f6e747261637420697320616c726561647920696e697469616c697a6564536166654d6174683a206d756c7469706c69636174696f6e206f766572666c6f77a26469706673582212203cc2255807224a26fe46dc40f2a35c27294bbededdb1de5c8cf2cd1a57d1a65064736f6c634300060c0033",
  "immutableReferences": {},
  "source": "pragma solidity 0.6.12;\n\nimport '@pancakeswap/pancake-swap-lib/contracts/math/SafeMath.sol';\nimport '@pancakeswap/pancake-swap-lib/contracts/token/BEP20/IBEP20.sol';\nimport '@pancakeswap/pancake-swap-lib/contracts/token/BEP20/SafeBEP20.sol';\nimport '@pancakeswap/pancake-swap-lib/contracts/utils/ReentrancyGuard.sol';\nimport \"@pancakeswap/pancake-swap-lib/contracts/proxy/Initializable.sol\";\n\ncontract IFOByProxy is ReentrancyGuard, Initializable {\n  using SafeMath for uint256;\n  using SafeBEP20 for IBEP20;\n\n  // Info of each user.\n  struct UserInfo {\n      uint256 amount;   // How many tokens the user has provided.\n      bool claimed;  // default false\n  }\n\n  // admin address\n  address public adminAddress;\n  // The raising token\n  IBEP20 public lpToken;\n  // The offering token\n  IBEP20 public offeringToken;\n  // The block number when IFO starts\n  uint256 public startBlock;\n  // The block number when IFO ends\n  uint256 public endBlock;\n  // total amount of raising tokens need to be raised\n  uint256 public raisingAmount;\n  // total amount of offeringToken that will offer\n  uint256 public offeringAmount;\n  // total amount of raising tokens that have already raised\n  uint256 public totalAmount;\n  // address => amount\n  mapping (address => UserInfo) public userInfo;\n  // participators\n  address[] public addressList;\n\n\n  event Deposit(address indexed user, uint256 amount);\n  event Harvest(address indexed user, uint256 offeringAmount, uint256 excessAmount);\n\n  constructor() public {\n  }\n\n  function initialize(\n      IBEP20 _lpToken,\n      IBEP20 _offeringToken,\n      uint256 _startBlock,\n      uint256 _endBlock,\n      uint256 _offeringAmount,\n      uint256 _raisingAmount,\n      address _adminAddress\n  ) public initializer {\n      lpToken = _lpToken;\n      offeringToken = _offeringToken;\n      startBlock = _startBlock;\n      endBlock = _endBlock;\n      offeringAmount = _offeringAmount;\n      raisingAmount= _raisingAmount;\n      totalAmount = 0;\n      adminAddress = _adminAddress;\n  }\n\n  modifier onlyAdmin() {\n    require(msg.sender == adminAddress, \"admin: wut?\");\n    _;\n  }\n\n  function setOfferingAmount(uint256 _offerAmount) public onlyAdmin {\n    require (block.number < startBlock, 'no');\n    offeringAmount = _offerAmount;\n  }\n\n  function setRaisingAmount(uint256 _raisingAmount) public onlyAdmin {\n    require (block.number < startBlock, 'no');\n    raisingAmount = _raisingAmount;\n  }\n\n  function deposit(uint256 _amount) public {\n    require (block.number > startBlock && block.number < endBlock, 'not ifo time');\n    require (_amount > 0, 'need _amount > 0');\n    lpToken.safeTransferFrom(address(msg.sender), address(this), _amount);\n    if (userInfo[msg.sender].amount == 0) {\n      addressList.push(address(msg.sender));\n    }\n    userInfo[msg.sender].amount = userInfo[msg.sender].amount.add(_amount);\n    totalAmount = totalAmount.add(_amount);\n    emit Deposit(msg.sender, _amount);\n  }\n\n  function harvest() public nonReentrant {\n    require (block.number > endBlock, 'not harvest time');\n    require (userInfo[msg.sender].amount > 0, 'have you participated?');\n    require (!userInfo[msg.sender].claimed, 'nothing to harvest');\n    uint256 offeringTokenAmount = getOfferingAmount(msg.sender);\n    uint256 refundingTokenAmount = getRefundingAmount(msg.sender);\n    if (offeringTokenAmount > 0) {\n      offeringToken.safeTransfer(address(msg.sender), offeringTokenAmount);\n    }\n    if (refundingTokenAmount > 0) {\n      lpToken.safeTransfer(address(msg.sender), refundingTokenAmount);\n    }\n    userInfo[msg.sender].claimed = true;\n    emit Harvest(msg.sender, offeringTokenAmount, refundingTokenAmount);\n  }\n\n  function hasHarvest(address _user) external view returns(bool) {\n      return userInfo[_user].claimed;\n  }\n\n  // allocation 100000 means 0.1(10%), 1 meanss 0.000001(0.0001%), 1000000 means 1(100%)\n  function getUserAllocation(address _user) public view returns(uint256) {\n    return userInfo[_user].amount.mul(1e12).div(totalAmount).div(1e6);\n  }\n\n  // get the amount of IFO token you will get\n  function getOfferingAmount(address _user) public view returns(uint256) {\n    if (totalAmount > raisingAmount) {\n      uint256 allocation = getUserAllocation(_user);\n      return offeringAmount.mul(allocation).div(1e6);\n    }\n    else {\n      // userInfo[_user] / (raisingAmount / offeringAmount)\n      return userInfo[_user].amount.mul(offeringAmount).div(raisingAmount);\n    }\n  }\n\n  // get the amount of lp token you will be refunded\n  function getRefundingAmount(address _user) public view returns(uint256) {\n    if (totalAmount <= raisingAmount) {\n      return 0;\n    }\n    uint256 allocation = getUserAllocation(_user);\n    uint256 payAmount = raisingAmount.mul(allocation).div(1e6);\n    return userInfo[_user].amount.sub(payAmount);\n  }\n\n  function getAddressListLength() external view returns(uint256) {\n    return addressList.length;\n  }\n\n  function finalWithdraw(uint256 _lpAmount, uint256 _offerAmount) public onlyAdmin {\n    require (_lpAmount < lpToken.balanceOf(address(this)), 'not enough token 0');\n    require (_offerAmount < offeringToken.balanceOf(address(this)), 'not enough token 1');\n    if(_offerAmount > 0) {\n      offeringToken.safeTransfer(address(msg.sender), _offerAmount);\n    }\n    if(_lpAmount > 0) {\n      lpToken.safeTransfer(address(msg.sender), _lpAmount);\n    }\n  }\n}\n",
  "sourcePath": "/home/rahul/Pancake Clone/initial-farm-offering/contracts/IFOByProxy.sol",
  "compiler": {
    "name": "solc",
    "version": "0.6.12+commit.27d51765.Emscripten.clang"
  },
  "schemaVersion": "3.3.4",
  "updatedAt": "2021-05-27T12:03:24.772Z",
  "networkType": "ethereum",
  "devdoc": {
    "kind": "dev",
    "methods": {},
    "version": 1
  },
  "userdoc": {
    "kind": "user",
    "methods": {},
    "version": 1
  }
}