{
  "contractName": "LotteryRewardPool",
  "abi": [
    {
      "inputs": [
        {
          "internalType": "contract MasterChef",
          "name": "_chef",
          "type": "address"
        },
        {
          "internalType": "contract IBEP20",
          "name": "_cow",
          "type": "address"
        },
        {
          "internalType": "address",
          "name": "_admin",
          "type": "address"
        },
        {
          "internalType": "address",
          "name": "_receiver",
          "type": "address"
        }
      ],
      "stateMutability": "nonpayable",
      "type": "constructor"
    },
    {
      "anonymous": false,
      "inputs": [
        {
          "indexed": true,
          "internalType": "address",
          "name": "user",
          "type": "address"
        },
        {
          "indexed": false,
          "internalType": "uint256",
          "name": "amount",
          "type": "uint256"
        }
      ],
      "name": "EmergencyWithdraw",
      "type": "event"
    },
    {
      "anonymous": false,
      "inputs": [
        {
          "indexed": true,
          "internalType": "address",
          "name": "user",
          "type": "address"
        },
        {
          "indexed": true,
          "internalType": "uint256",
          "name": "pid",
          "type": "uint256"
        }
      ],
      "name": "Harvest",
      "type": "event"
    },
    {
      "anonymous": false,
      "inputs": [
        {
          "indexed": true,
          "internalType": "address",
          "name": "previousOwner",
          "type": "address"
        },
        {
          "indexed": true,
          "internalType": "address",
          "name": "newOwner",
          "type": "address"
        }
      ],
      "name": "OwnershipTransferred",
      "type": "event"
    },
    {
      "anonymous": false,
      "inputs": [
        {
          "indexed": true,
          "internalType": "address",
          "name": "user",
          "type": "address"
        },
        {
          "indexed": true,
          "internalType": "uint256",
          "name": "pid",
          "type": "uint256"
        }
      ],
      "name": "StartFarming",
      "type": "event"
    },
    {
      "inputs": [],
      "name": "adminAddress",
      "outputs": [
        {
          "internalType": "address",
          "name": "",
          "type": "address"
        }
      ],
      "stateMutability": "view",
      "type": "function",
      "constant": true
    },
    {
      "inputs": [],
      "name": "chef",
      "outputs": [
        {
          "internalType": "contract MasterChef",
          "name": "",
          "type": "address"
        }
      ],
      "stateMutability": "view",
      "type": "function",
      "constant": true
    },
    {
      "inputs": [],
      "name": "cow",
      "outputs": [
        {
          "internalType": "contract IBEP20",
          "name": "",
          "type": "address"
        }
      ],
      "stateMutability": "view",
      "type": "function",
      "constant": true
    },
    {
      "inputs": [],
      "name": "lptoken",
      "outputs": [
        {
          "internalType": "contract IBEP20",
          "name": "",
          "type": "address"
        }
      ],
      "stateMutability": "view",
      "type": "function",
      "constant": true
    },
    {
      "inputs": [],
      "name": "owner",
      "outputs": [
        {
          "internalType": "address",
          "name": "",
          "type": "address"
        }
      ],
      "stateMutability": "view",
      "type": "function",
      "constant": true
    },
    {
      "inputs": [],
      "name": "receiver",
      "outputs": [
        {
          "internalType": "address",
          "name": "",
          "type": "address"
        }
      ],
      "stateMutability": "view",
      "type": "function",
      "constant": true
    },
    {
      "inputs": [],
      "name": "renounceOwnership",
      "outputs": [],
      "stateMutability": "nonpayable",
      "type": "function"
    },
    {
      "inputs": [
        {
          "internalType": "address",
          "name": "newOwner",
          "type": "address"
        }
      ],
      "name": "transferOwnership",
      "outputs": [],
      "stateMutability": "nonpayable",
      "type": "function"
    },
    {
      "inputs": [
        {
          "internalType": "uint256",
          "name": "_pid",
          "type": "uint256"
        },
        {
          "internalType": "contract IBEP20",
          "name": "_lptoken",
          "type": "address"
        },
        {
          "internalType": "uint256",
          "name": "_amount",
          "type": "uint256"
        }
      ],
      "name": "startFarming",
      "outputs": [],
      "stateMutability": "nonpayable",
      "type": "function"
    },
    {
      "inputs": [
        {
          "internalType": "uint256",
          "name": "_pid",
          "type": "uint256"
        }
      ],
      "name": "harvest",
      "outputs": [],
      "stateMutability": "nonpayable",
      "type": "function"
    },
    {
      "inputs": [
        {
          "internalType": "address",
          "name": "_receiver",
          "type": "address"
        }
      ],
      "name": "setReceiver",
      "outputs": [],
      "stateMutability": "nonpayable",
      "type": "function"
    },
    {
      "inputs": [
        {
          "internalType": "uint256",
          "name": "_pid",
          "type": "uint256"
        }
      ],
      "name": "pendingReward",
      "outputs": [
        {
          "internalType": "uint256",
          "name": "",
          "type": "uint256"
        }
      ],
      "stateMutability": "view",
      "type": "function",
      "constant": true
    },
    {
      "inputs": [
        {
          "internalType": "contract IBEP20",
          "name": "_token",
          "type": "address"
        },
        {
          "internalType": "uint256",
          "name": "_amount",
          "type": "uint256"
        }
      ],
      "name": "emergencyWithdraw",
      "outputs": [],
      "stateMutability": "nonpayable",
      "type": "function"
    },
    {
      "inputs": [
        {
          "internalType": "address",
          "name": "_admin",
          "type": "address"
        }
      ],
      "name": "setAdmin",
      "outputs": [],
      "stateMutability": "nonpayable",
      "type": "function"
    }
  ],
  "bytecode": "0x608060405234801561001057600080fd5b50604051610ec8380380610ec88339818101604052608081101561003357600080fd5b508051602082015160408301516060909301519192909160006100546100f1565b600080546001600160a01b0319166001600160a01b0383169081178255604051929350917f8be0079c531659141344cd1fd0a4f28419497f9722a3daafe3b4186f6b6457e0908290a350600180546001600160a01b039586166001600160a01b03199182161790915560058054948616948216949094179093556002805492851692841692909217909155600380549190931691161790556100f5565b3390565b610dc4806101046000396000f3fe608060405234801561001057600080fd5b50600436106100ba5760003560e01c806312f7086c146100bf5780631fc8bc5d146100ee578063704b6c0214610112578063715018a61461013a578063718da7ee146101425780638da5cb5b1461016857806395ccea6714610170578063970d8e051461019c578063ddc63262146101ce578063dfbf306d146101eb578063f2fde38b146101f3578063f363393b14610219578063f7260d3e14610221578063fc6f946814610229575b600080fd5b6100dc600480360360208110156100d557600080fd5b5035610231565b60408051918252519081900360200190f35b6100f66102b5565b604080516001600160a01b039092168252519081900360200190f35b6101386004803603602081101561012857600080fd5b50356001600160a01b03166102c4565b005b61013861033e565b6101386004803603602081101561015857600080fd5b50356001600160a01b03166103e0565b6100f661044f565b6101386004803603604081101561018657600080fd5b506001600160a01b03813516906020013561045e565b610138600480360360608110156101b257600080fd5b508035906001600160a01b036020820135169060400135610507565b610138600480360360208110156101e457600080fd5b503561060c565b6100f661078e565b6101386004803603602081101561020957600080fd5b50356001600160a01b031661079d565b6100f6610801565b6100f6610810565b6100f661081f565b600154604080516325d0a58b60e21b81526004810184905230602482015290516000926001600160a01b031691639742962c916044808301926020929190829003018186803b15801561028357600080fd5b505afa158015610297573d6000803e3d6000fd5b505050506040513d60208110156102ad57600080fd5b505192915050565b6001546001600160a01b031681565b6102cc61082e565b6000546001600160a01b0390811691161461031c576040805162461bcd60e51b81526020600482018190526024820152600080516020610d6f833981519152604482015290519081900360640190fd5b600280546001600160a01b0319166001600160a01b0392909216919091179055565b61034661082e565b6000546001600160a01b03908116911614610396576040805162461bcd60e51b81526020600482018190526024820152600080516020610d6f833981519152604482015290519081900360640190fd5b600080546040516001600160a01b03909116907f8be0079c531659141344cd1fd0a4f28419497f9722a3daafe3b4186f6b6457e0908390a3600080546001600160a01b0319169055565b6002546001600160a01b0316331461042d576040805162461bcd60e51b815260206004820152600b60248201526a61646d696e3a207775743f60a81b604482015290519081900360640190fd5b600380546001600160a01b0319166001600160a01b0392909216919091179055565b6000546001600160a01b031690565b61046661082e565b6000546001600160a01b039081169116146104b6576040805162461bcd60e51b81526020600482018190526024820152600080516020610d6f833981519152604482015290519081900360640190fd5b6005546104cd906001600160a01b03163383610832565b60408051828152905133917f5fafa99d0643513820be26656b45130b01e1c03062e1266bf36f88cbd3bd9695919081900360200190a25050565b6002546001600160a01b03163314610554576040805162461bcd60e51b815260206004820152600b60248201526a61646d696e3a207775743f60a81b604482015290519081900360640190fd5b60015461056e906001600160a01b03848116911683610889565b60015460408051631c57762b60e31b8152600481018690526024810184905290516001600160a01b039092169163e2bbb1589160448082019260009290919082900301818387803b1580156105c257600080fd5b505af11580156105d6573d6000803e3d6000fd5b50506040518592503391507f4ae4c06870b47ebbde6d53278986a91eb269349cdc9ee1e9d211373dd98afef190600090a3505050565b6002546001600160a01b03163314610659576040805162461bcd60e51b815260206004820152600b60248201526a61646d696e3a207775743f60a81b604482015290519081900360640190fd5b60015460408051631c57762b60e31b81526004810184905260006024820181905291516001600160a01b039093169263e2bbb1589260448084019391929182900301818387803b1580156106ac57600080fd5b505af11580156106c0573d6000803e3d6000fd5b5050600554604080516370a0823160e01b81523060048201529051600094506001600160a01b0390921692506370a08231916024808301926020929190829003018186803b15801561071157600080fd5b505afa158015610725573d6000803e3d6000fd5b505050506040513d602081101561073b57600080fd5b505160035460055491925061075d916001600160a01b03908116911683610832565b604051829033907fc9695243a805adb74c91f28311176c65b417e842d5699893cef56d18bfa48cba90600090a35050565b6005546001600160a01b031681565b6107a561082e565b6000546001600160a01b039081169116146107f5576040805162461bcd60e51b81526020600482018190526024820152600080516020610d6f833981519152604482015290519081900360640190fd5b6107fe8161099c565b50565b6004546001600160a01b031681565b6003546001600160a01b031681565b6002546001600160a01b031681565b3390565b604080516001600160a01b038416602482015260448082018490528251808303909101815260649091019091526020810180516001600160e01b031663a9059cbb60e01b179052610884908490610a3c565b505050565b80158061090f575060408051636eb1769f60e11b81523060048201526001600160a01b03848116602483015291519185169163dd62ed3e91604480820192602092909190829003018186803b1580156108e157600080fd5b505afa1580156108f5573d6000803e3d6000fd5b505050506040513d602081101561090b57600080fd5b5051155b61094a5760405162461bcd60e51b8152600401808060200182810382526036815260200180610d396036913960400191505060405180910390fd5b604080516001600160a01b038416602482015260448082018490528251808303909101815260649091019091526020810180516001600160e01b031663095ea7b360e01b179052610884908490610a3c565b6001600160a01b0381166109e15760405162461bcd60e51b8152600401808060200182810382526026815260200180610d136026913960400191505060405180910390fd5b600080546040516001600160a01b03808516939216917f8be0079c531659141344cd1fd0a4f28419497f9722a3daafe3b4186f6b6457e091a3600080546001600160a01b0319166001600160a01b0392909216919091179055565b6060610a91826040518060400160405280602081526020017f5361666542455032303a206c6f772d6c6576656c2063616c6c206661696c6564815250856001600160a01b0316610aed9092919063ffffffff16565b80519091501561088457808060200190516020811015610ab057600080fd5b50516108845760405162461bcd60e51b815260040180806020018281038252602a815260200180610ce9602a913960400191505060405180910390fd5b6060610afc8484600085610b04565b949350505050565b6060610b0f85610caf565b610b60576040805162461bcd60e51b815260206004820152601d60248201527f416464726573733a2063616c6c20746f206e6f6e2d636f6e7472616374000000604482015290519081900360640190fd5b60006060866001600160a01b031685876040518082805190602001908083835b60208310610b9f5780518252601f199092019160209182019101610b80565b6001836020036101000a03801982511681845116808217855250505050505090500191505060006040518083038185875af1925050503d8060008114610c01576040519150601f19603f3d011682016040523d82523d6000602084013e610c06565b606091505b50915091508115610c1a579150610afc9050565b805115610c2a5780518082602001fd5b8360405162461bcd60e51b81526004018080602001828103825283818151815260200191508051906020019080838360005b83811015610c74578181015183820152602001610c5c565b50505050905090810190601f168015610ca15780820380516001836020036101000a031916815260200191505b509250505060405180910390fd5b6000813f7fc5d2460186f7233c927e7db2dcc703c0e500b653ca82273b7bfad8045d85a470818114801590610afc57505015159291505056fe5361666542455032303a204245503230206f7065726174696f6e20646964206e6f7420737563636565644f776e61626c653a206e6577206f776e657220697320746865207a65726f20616464726573735361666542455032303a20617070726f76652066726f6d206e6f6e2d7a65726f20746f206e6f6e2d7a65726f20616c6c6f77616e63654f776e61626c653a2063616c6c6572206973206e6f7420746865206f776e6572a2646970667358221220661bc2fb86690e6d0d85ddec1b2687bb12ae28dfa8c307653a70ac2af3f7ecac64736f6c634300060c0033",
  "immutableReferences": {},
  "source": "//SPDX-License-Identifier: UNLICENSED\npragma solidity 0.6.12;\n\nimport '@pancakeswap/pancake-swap-lib/contracts/token/BEP20/IBEP20.sol';\nimport '@pancakeswap/pancake-swap-lib/contracts/token/BEP20/SafeBEP20.sol';\nimport '@pancakeswap/pancake-swap-lib/contracts/access/Ownable.sol';\n\nimport './MasterChef.sol';\n\ncontract LotteryRewardPool is Ownable {\n    using SafeBEP20 for IBEP20;\n\n    MasterChef public chef;\n    address public adminAddress;\n    address public receiver;\n    IBEP20 public lptoken;\n    IBEP20 public cow;\n\n    constructor(\n        MasterChef _chef,\n        IBEP20 _cow,\n        address _admin,\n        address _receiver\n    ) public {\n        chef = _chef;\n        cow = _cow;\n        adminAddress = _admin;\n        receiver = _receiver;\n    }\n\n    event StartFarming(address indexed user, uint256 indexed pid);\n    event Harvest(address indexed user, uint256 indexed pid);\n    event EmergencyWithdraw(address indexed user, uint256 amount);\n\n    modifier onlyAdmin() {\n        require(msg.sender == adminAddress, \"admin: wut?\");\n        _;\n    }\n\n    function startFarming(uint256 _pid, IBEP20 _lptoken, uint256 _amount) external onlyAdmin {\n        _lptoken.safeApprove(address(chef), _amount);\n        chef.deposit(_pid, _amount);\n        emit StartFarming(msg.sender, _pid);\n    }\n\n    function  harvest(uint256 _pid) external onlyAdmin {\n        chef.deposit(_pid, 0);\n        uint256 balance = cow.balanceOf(address(this));\n        cow.safeTransfer(receiver, balance);\n        emit Harvest(msg.sender, _pid);\n    }\n\n    function setReceiver(address _receiver) external onlyAdmin {\n        receiver = _receiver;\n    }\n\n    function  pendingReward(uint256 _pid) external view returns (uint256) {\n        return chef.pendingCow(_pid, address(this));\n    }\n\n    // EMERGENCY ONLY.\n    function emergencyWithdraw(IBEP20 _token, uint256 _amount) external onlyOwner {\n        cow.safeTransfer(address(msg.sender), _amount);\n        emit EmergencyWithdraw(msg.sender, _amount);\n    }\n\n    function setAdmin(address _admin) external onlyOwner {\n        adminAddress = _admin;\n    }\n\n}\n",
  "sourcePath": "/home/rahul/Pancake Clone/pancake-farm/contracts/LotteryRewardPool.sol",
  "compiler": {
    "name": "solc",
    "version": "0.6.12+commit.27d51765.Emscripten.clang"
  },
  "schemaVersion": "3.3.4",
  "updatedAt": "2021-06-04T11:03:32.357Z",
  "networkType": "ethereum",
  "devdoc": {
    "kind": "dev",
    "methods": {
      "owner()": {
        "details": "Returns the address of the current owner."
      },
      "renounceOwnership()": {
        "details": "Leaves the contract without owner. It will not be possible to call `onlyOwner` functions anymore. Can only be called by the current owner. NOTE: Renouncing ownership will leave the contract without an owner, thereby removing any functionality that is only available to the owner."
      },
      "transferOwnership(address)": {
        "details": "Transfers ownership of the contract to a new account (`newOwner`). Can only be called by the current owner."
      }
    },
    "version": 1
  },
  "userdoc": {
    "kind": "user",
    "methods": {},
    "version": 1
  }
}