{
  "contractName": "MasterChef",
  "abi": [
    {
      "inputs": [
        {
          "internalType": "contract CowToken",
          "name": "_cow",
          "type": "address"
        },
        {
          "internalType": "contract SyrupBar",
          "name": "_syrup",
          "type": "address"
        },
        {
          "internalType": "address",
          "name": "_devaddr",
          "type": "address"
        },
        {
          "internalType": "uint256",
          "name": "_cowPerBlock",
          "type": "uint256"
        },
        {
          "internalType": "uint256",
          "name": "_startBlock",
          "type": "uint256"
        }
      ],
      "stateMutability": "nonpayable",
      "type": "constructor"
    },
    {
      "anonymous": false,
      "inputs": [
        {
          "indexed": true,
          "internalType": "address",
          "name": "user",
          "type": "address"
        },
        {
          "indexed": true,
          "internalType": "uint256",
          "name": "pid",
          "type": "uint256"
        },
        {
          "indexed": false,
          "internalType": "uint256",
          "name": "amount",
          "type": "uint256"
        }
      ],
      "name": "Deposit",
      "type": "event"
    },
    {
      "anonymous": false,
      "inputs": [
        {
          "indexed": true,
          "internalType": "address",
          "name": "user",
          "type": "address"
        },
        {
          "indexed": true,
          "internalType": "uint256",
          "name": "pid",
          "type": "uint256"
        },
        {
          "indexed": false,
          "internalType": "uint256",
          "name": "amount",
          "type": "uint256"
        }
      ],
      "name": "EmergencyWithdraw",
      "type": "event"
    },
    {
      "anonymous": false,
      "inputs": [
        {
          "indexed": true,
          "internalType": "address",
          "name": "previousOwner",
          "type": "address"
        },
        {
          "indexed": true,
          "internalType": "address",
          "name": "newOwner",
          "type": "address"
        }
      ],
      "name": "OwnershipTransferred",
      "type": "event"
    },
    {
      "anonymous": false,
      "inputs": [
        {
          "indexed": true,
          "internalType": "address",
          "name": "user",
          "type": "address"
        },
        {
          "indexed": true,
          "internalType": "uint256",
          "name": "pid",
          "type": "uint256"
        },
        {
          "indexed": false,
          "internalType": "uint256",
          "name": "amount",
          "type": "uint256"
        }
      ],
      "name": "Withdraw",
      "type": "event"
    },
    {
      "inputs": [],
      "name": "BONUS_MULTIPLIER",
      "outputs": [
        {
          "internalType": "uint256",
          "name": "",
          "type": "uint256"
        }
      ],
      "stateMutability": "view",
      "type": "function",
      "constant": true
    },
    {
      "inputs": [],
      "name": "cow",
      "outputs": [
        {
          "internalType": "contract CowToken",
          "name": "",
          "type": "address"
        }
      ],
      "stateMutability": "view",
      "type": "function",
      "constant": true
    },
    {
      "inputs": [],
      "name": "cowPerBlock",
      "outputs": [
        {
          "internalType": "uint256",
          "name": "",
          "type": "uint256"
        }
      ],
      "stateMutability": "view",
      "type": "function",
      "constant": true
    },
    {
      "inputs": [],
      "name": "devaddr",
      "outputs": [
        {
          "internalType": "address",
          "name": "",
          "type": "address"
        }
      ],
      "stateMutability": "view",
      "type": "function",
      "constant": true
    },
    {
      "inputs": [],
      "name": "migrator",
      "outputs": [
        {
          "internalType": "contract IMigratorChef",
          "name": "",
          "type": "address"
        }
      ],
      "stateMutability": "view",
      "type": "function",
      "constant": true
    },
    {
      "inputs": [],
      "name": "owner",
      "outputs": [
        {
          "internalType": "address",
          "name": "",
          "type": "address"
        }
      ],
      "stateMutability": "view",
      "type": "function",
      "constant": true
    },
    {
      "inputs": [
        {
          "internalType": "uint256",
          "name": "",
          "type": "uint256"
        }
      ],
      "name": "poolInfo",
      "outputs": [
        {
          "internalType": "contract IBEP20",
          "name": "lpToken",
          "type": "address"
        },
        {
          "internalType": "uint256",
          "name": "allocPoint",
          "type": "uint256"
        },
        {
          "internalType": "uint256",
          "name": "lastRewardBlock",
          "type": "uint256"
        },
        {
          "internalType": "uint256",
          "name": "accCowPerShare",
          "type": "uint256"
        }
      ],
      "stateMutability": "view",
      "type": "function",
      "constant": true
    },
    {
      "inputs": [],
      "name": "renounceOwnership",
      "outputs": [],
      "stateMutability": "nonpayable",
      "type": "function"
    },
    {
      "inputs": [],
      "name": "startBlock",
      "outputs": [
        {
          "internalType": "uint256",
          "name": "",
          "type": "uint256"
        }
      ],
      "stateMutability": "view",
      "type": "function",
      "constant": true
    },
    {
      "inputs": [],
      "name": "syrup",
      "outputs": [
        {
          "internalType": "contract SyrupBar",
          "name": "",
          "type": "address"
        }
      ],
      "stateMutability": "view",
      "type": "function",
      "constant": true
    },
    {
      "inputs": [],
      "name": "totalAllocPoint",
      "outputs": [
        {
          "internalType": "uint256",
          "name": "",
          "type": "uint256"
        }
      ],
      "stateMutability": "view",
      "type": "function",
      "constant": true
    },
    {
      "inputs": [
        {
          "internalType": "address",
          "name": "newOwner",
          "type": "address"
        }
      ],
      "name": "transferOwnership",
      "outputs": [],
      "stateMutability": "nonpayable",
      "type": "function"
    },
    {
      "inputs": [
        {
          "internalType": "uint256",
          "name": "",
          "type": "uint256"
        },
        {
          "internalType": "address",
          "name": "",
          "type": "address"
        }
      ],
      "name": "userInfo",
      "outputs": [
        {
          "internalType": "uint256",
          "name": "amount",
          "type": "uint256"
        },
        {
          "internalType": "uint256",
          "name": "rewardDebt",
          "type": "uint256"
        }
      ],
      "stateMutability": "view",
      "type": "function",
      "constant": true
    },
    {
      "inputs": [
        {
          "internalType": "uint256",
          "name": "multiplierNumber",
          "type": "uint256"
        }
      ],
      "name": "updateMultiplier",
      "outputs": [],
      "stateMutability": "nonpayable",
      "type": "function"
    },
    {
      "inputs": [],
      "name": "poolLength",
      "outputs": [
        {
          "internalType": "uint256",
          "name": "",
          "type": "uint256"
        }
      ],
      "stateMutability": "view",
      "type": "function",
      "constant": true
    },
    {
      "inputs": [
        {
          "internalType": "uint256",
          "name": "_allocPoint",
          "type": "uint256"
        },
        {
          "internalType": "contract IBEP20",
          "name": "_lpToken",
          "type": "address"
        },
        {
          "internalType": "bool",
          "name": "_withUpdate",
          "type": "bool"
        }
      ],
      "name": "add",
      "outputs": [],
      "stateMutability": "nonpayable",
      "type": "function"
    },
    {
      "inputs": [
        {
          "internalType": "uint256",
          "name": "_pid",
          "type": "uint256"
        },
        {
          "internalType": "uint256",
          "name": "_allocPoint",
          "type": "uint256"
        },
        {
          "internalType": "bool",
          "name": "_withUpdate",
          "type": "bool"
        }
      ],
      "name": "set",
      "outputs": [],
      "stateMutability": "nonpayable",
      "type": "function"
    },
    {
      "inputs": [
        {
          "internalType": "contract IMigratorChef",
          "name": "_migrator",
          "type": "address"
        }
      ],
      "name": "setMigrator",
      "outputs": [],
      "stateMutability": "nonpayable",
      "type": "function"
    },
    {
      "inputs": [
        {
          "internalType": "uint256",
          "name": "_pid",
          "type": "uint256"
        }
      ],
      "name": "migrate",
      "outputs": [],
      "stateMutability": "nonpayable",
      "type": "function"
    },
    {
      "inputs": [
        {
          "internalType": "uint256",
          "name": "_from",
          "type": "uint256"
        },
        {
          "internalType": "uint256",
          "name": "_to",
          "type": "uint256"
        }
      ],
      "name": "getMultiplier",
      "outputs": [
        {
          "internalType": "uint256",
          "name": "",
          "type": "uint256"
        }
      ],
      "stateMutability": "view",
      "type": "function",
      "constant": true
    },
    {
      "inputs": [
        {
          "internalType": "uint256",
          "name": "_pid",
          "type": "uint256"
        },
        {
          "internalType": "address",
          "name": "_user",
          "type": "address"
        }
      ],
      "name": "pendingCow",
      "outputs": [
        {
          "internalType": "uint256",
          "name": "",
          "type": "uint256"
        }
      ],
      "stateMutability": "view",
      "type": "function",
      "constant": true
    },
    {
      "inputs": [],
      "name": "massUpdatePools",
      "outputs": [],
      "stateMutability": "nonpayable",
      "type": "function"
    },
    {
      "inputs": [
        {
          "internalType": "uint256",
          "name": "_pid",
          "type": "uint256"
        }
      ],
      "name": "updatePool",
      "outputs": [],
      "stateMutability": "nonpayable",
      "type": "function"
    },
    {
      "inputs": [
        {
          "internalType": "uint256",
          "name": "_pid",
          "type": "uint256"
        },
        {
          "internalType": "uint256",
          "name": "_amount",
          "type": "uint256"
        }
      ],
      "name": "deposit",
      "outputs": [],
      "stateMutability": "nonpayable",
      "type": "function"
    },
    {
      "inputs": [
        {
          "internalType": "uint256",
          "name": "_pid",
          "type": "uint256"
        },
        {
          "internalType": "uint256",
          "name": "_amount",
          "type": "uint256"
        }
      ],
      "name": "withdraw",
      "outputs": [],
      "stateMutability": "nonpayable",
      "type": "function"
    },
    {
      "inputs": [
        {
          "internalType": "uint256",
          "name": "_amount",
          "type": "uint256"
        }
      ],
      "name": "enterStaking",
      "outputs": [],
      "stateMutability": "nonpayable",
      "type": "function"
    },
    {
      "inputs": [
        {
          "internalType": "uint256",
          "name": "_amount",
          "type": "uint256"
        }
      ],
      "name": "leaveStaking",
      "outputs": [],
      "stateMutability": "nonpayable",
      "type": "function"
    },
    {
      "inputs": [
        {
          "internalType": "uint256",
          "name": "_pid",
          "type": "uint256"
        }
      ],
      "name": "emergencyWithdraw",
      "outputs": [],
      "stateMutability": "nonpayable",
      "type": "function"
    },
    {
      "inputs": [
        {
          "internalType": "address",
          "name": "_devaddr",
          "type": "address"
        }
      ],
      "name": "dev",
      "outputs": [],
      "stateMutability": "nonpayable",
      "type": "function"
    },
    {
      "inputs": [
        {
          "internalType": "uint256",
          "name": "_cowPerBlock",
          "type": "uint256"
        }
      ],
      "name": "updateEmissionRate",
      "outputs": [],
      "stateMutability": "nonpayable",
      "type": "function"
    }
  ],
  "bytecode": "0x60806040526001600555600060095534801561001a57600080fd5b50604051612314380380612314833981810160405260a081101561003d57600080fd5b5080516020820151604083015160608401516080909401519293919290919060006100666101e0565b600080546001600160a01b0319166001600160a01b0383169081178255604051929350917f8be0079c531659141344cd1fd0a4f28419497f9722a3daafe3b4186f6b6457e0908290a350600180546001600160a01b03199081166001600160a01b03978816908117835560028054831697891697909717909655600380548216958816959095179094556004928355600a829055604080516080810182529586526103e86020870181815291870193845260006060880181815260078054958601815590915296517fa66cc928b5edb82af9bd49922954155ab7b0942694bea4ce44661d9a8736c688939095029283018054909616949097169390931790935590517fa66cc928b5edb82af9bd49922954155ab7b0942694bea4ce44661d9a8736c689830155517fa66cc928b5edb82af9bd49922954155ab7b0942694bea4ce44661d9a8736c68a82015590517fa66cc928b5edb82af9bd49922954155ab7b0942694bea4ce44661d9a8736c68b909101556009556101e4565b3390565b612121806101f36000396000f3fe608060405234801561001057600080fd5b506004361061017a5760003560e01c8063630b5ba1116100d4578063630b5ba11461034857806364482f7914610350578063715018a61461037b5780637cd07e471461038357806386a952c4146103a75780638aa28550146103af5780638d88a90e146103b75780638da5cb5b146103dd5780638dbb1e3a146103e557806393f1a40b146104085780639742962c1461044d578063d49e77cd14610479578063dfbf306d14610481578063e2bbb15814610489578063f2fde38b146104ac5761017a565b8063081e3eda1461017f5780630ba84cd2146101995780631058d281146101b85780631526fe27146101d557806317caf6f1146102225780631eaaa0451461022a57806323cf31181461025e57806330b821b81461028457806341441d3b1461028c578063441a3e70146102a9578063454b0608146102cc57806348cd4cb1146102e957806351eb05a6146102f15780635312ea8e1461030e5780635ffe61461461032b575b600080fd5b6101876104d2565b60408051918252519081900360200190f35b6101b6600480360360208110156101af57600080fd5b50356104d8565b005b6101b6600480360360208110156101ce57600080fd5b503561053d565b6101f2600480360360208110156101eb57600080fd5b5035610721565b604080516001600160a01b0390951685526020850193909352838301919091526060830152519081900360800190f35b610187610762565b6101b66004803603606081101561024057600080fd5b508035906001600160a01b0360208201351690604001351515610768565b6101b66004803603602081101561027457600080fd5b50356001600160a01b03166108ee565b610187610968565b6101b6600480360360208110156102a257600080fd5b503561096e565b6101b6600480360360408110156102bf57600080fd5b5080359060200135610b02565b6101b6600480360360208110156102e257600080fd5b5035610ca3565b610187610eff565b6101b66004803603602081101561030757600080fd5b5035610f05565b6101b66004803603602081101561032457600080fd5b5035611131565b6101b66004803603602081101561034157600080fd5b50356111cc565b6101b6611229565b6101b66004803603606081101561036657600080fd5b5080359060208101359060400135151561124c565b6101b6611329565b61038b6113cb565b604080516001600160a01b039092168252519081900360200190f35b61038b6113da565b6101876113e9565b6101b6600480360360208110156103cd57600080fd5b50356001600160a01b03166113ef565b61038b61145c565b610187600480360360408110156103fb57600080fd5b508035906020013561146b565b6104346004803603604081101561041e57600080fd5b50803590602001356001600160a01b0316611488565b6040805192835260208301919091528051918290030190f35b6101876004803603604081101561046357600080fd5b50803590602001356001600160a01b03166114ac565b61038b61160e565b61038b61161d565b6101b66004803603604081101561049f57600080fd5b508035906020013561162c565b6101b6600480360360208110156104c257600080fd5b50356001600160a01b0316611789565b60075490565b6104e06117ea565b6000546001600160a01b03908116911614610530576040805162461bcd60e51b815260206004820181905260248201526000805160206120cc833981519152604482015290519081900360640190fd5b610538611229565b600455565b6000600760008154811061054d57fe5b600091825260208083203384527f5eff886ea0ce6ca488a3d6e336d6c0f75f46d19b42c06ce5ee98e42c96d256c790915260409092208054600490920290920192508311156105d8576040805162461bcd60e51b81526020600482015260126024820152711dda5d1a191c985dce881b9bdd0819dbdbd960721b604482015290519081900360640190fd5b6105e26000610f05565b600061061c826001015461061664e8d4a51000610610876003015487600001546117ee90919063ffffffff16565b90611847565b90611886565b9050801561062e5761062e33826118c8565b83156106585781546106409085611886565b82558254610658906001600160a01b03163386611939565b600383015482546106739164e8d4a5100091610610916117ee565b600183015560025460408051632770a7eb60e21b81523360048201526024810187905290516001600160a01b0390921691639dc29fac9160448082019260009290919082900301818387803b1580156106cb57600080fd5b505af11580156106df573d6000803e3d6000fd5b5050604080518781529051600093503392507ff279e6a1f5e320cca91135676d9cb6e44ca8a08c0b88342bcdb1144f6511b5689181900360200190a350505050565b6007818154811061072e57fe5b600091825260209091206004909102018054600182015460028301546003909301546001600160a01b039092169350919084565b60095481565b6107706117ea565b6000546001600160a01b039081169116146107c0576040805162461bcd60e51b815260206004820181905260248201526000805160206120cc833981519152604482015290519081900360640190fd5b80156107ce576107ce611229565b6000600a5443116107e157600a546107e3565b435b6009549091506107f39085611990565b600955604080516080810182526001600160a01b0385811682526020820187815292820184815260006060840181815260078054600181018255925293517fa66cc928b5edb82af9bd49922954155ab7b0942694bea4ce44661d9a8736c688600490920291820180546001600160a01b031916919094161790925592517fa66cc928b5edb82af9bd49922954155ab7b0942694bea4ce44661d9a8736c68982015591517fa66cc928b5edb82af9bd49922954155ab7b0942694bea4ce44661d9a8736c68a830155517fa66cc928b5edb82af9bd49922954155ab7b0942694bea4ce44661d9a8736c68b909101556108e86119e8565b50505050565b6108f66117ea565b6000546001600160a01b03908116911614610946576040805162461bcd60e51b815260206004820181905260248201526000805160206120cc833981519152604482015290519081900360640190fd5b600680546001600160a01b0319166001600160a01b0392909216919091179055565b60045481565b6000600760008154811061097e57fe5b600091825260208083203384527f5eff886ea0ce6ca488a3d6e336d6c0f75f46d19b42c06ce5ee98e42c96d256c7909152604083206004909202019250906109c590610f05565b805415610a0e5760006109fa826001015461061664e8d4a51000610610876003015487600001546117ee90919063ffffffff16565b90508015610a0c57610a0c33826118c8565b505b8215610a3a578154610a2b906001600160a01b0316333086611aad565b8054610a379084611990565b81555b60038201548154610a559164e8d4a5100091610610916117ee565b6001820155600254604080516340c10f1960e01b81523360048201526024810186905290516001600160a01b03909216916340c10f199160448082019260009290919082900301818387803b158015610aad57600080fd5b505af1158015610ac1573d6000803e3d6000fd5b5050604080518681529051600093503392507f90890809c654f11d6e72a28fa60149770a0d11ec6c92319d6ceb2bb0a4ea1a159181900360200190a3505050565b81610b50576040805162461bcd60e51b8152602060048201526019602482015278776974686472617720434f5720627920756e7374616b696e6760381b604482015290519081900360640190fd5b600060078381548110610b5f57fe5b600091825260208083208684526008825260408085203386529092529220805460049092029092019250831115610bd2576040805162461bcd60e51b81526020600482015260126024820152711dda5d1a191c985dce881b9bdd0819dbdbd960721b604482015290519081900360640190fd5b610bdb84610f05565b6000610c09826001015461061664e8d4a51000610610876003015487600001546117ee90919063ffffffff16565b90508015610c1b57610c1b33826118c8565b8315610c45578154610c2d9085611886565b82558254610c45906001600160a01b03163386611939565b60038301548254610c609164e8d4a5100091610610916117ee565b6001830155604080518581529051869133917ff279e6a1f5e320cca91135676d9cb6e44ca8a08c0b88342bcdb1144f6511b5689181900360200190a35050505050565b6006546001600160a01b0316610cf7576040805162461bcd60e51b815260206004820152601460248201527336b4b3b930ba329d1037379036b4b3b930ba37b960611b604482015290519081900360640190fd5b600060078281548110610d0657fe5b600091825260208083206004928302018054604080516370a0823160e01b81523095810195909552519195506001600160a01b0316939284926370a0823192602480840193829003018186803b158015610d5f57600080fd5b505afa158015610d73573d6000803e3d6000fd5b505050506040513d6020811015610d8957600080fd5b5051600654909150610da8906001600160a01b03848116911683611b07565b6006546040805163ce5494bb60e01b81526001600160a01b0385811660048301529151600093929092169163ce5494bb9160248082019260209290919082900301818787803b158015610dfa57600080fd5b505af1158015610e0e573d6000803e3d6000fd5b505050506040513d6020811015610e2457600080fd5b5051604080516370a0823160e01b815230600482015290519192506001600160a01b038316916370a0823191602480820192602092909190829003018186803b158015610e7057600080fd5b505afa158015610e84573d6000803e3d6000fd5b505050506040513d6020811015610e9a57600080fd5b50518214610ede576040805162461bcd60e51b815260206004820152600c60248201526b1b5a59dc985d194e8818985960a21b604482015290519081900360640190fd5b83546001600160a01b0319166001600160a01b039190911617909255505050565b600a5481565b600060078281548110610f1457fe5b9060005260206000209060040201905080600201544311610f35575061112e565b8054604080516370a0823160e01b815230600482015290516000926001600160a01b0316916370a08231916024808301926020929190829003018186803b158015610f7f57600080fd5b505afa158015610f93573d6000803e3d6000fd5b505050506040513d6020811015610fa957600080fd5b5051905080610fbf57504360029091015561112e565b6000610fcf83600201544361146b565b90506000610ffc6009546106108660010154610ff6600454876117ee90919063ffffffff16565b906117ee565b6001546003549192506001600160a01b03908116916340c10f19911661102384600a611847565b6040518363ffffffff1660e01b815260040180836001600160a01b0316815260200182815260200192505050600060405180830381600087803b15801561106957600080fd5b505af115801561107d573d6000803e3d6000fd5b5050600154600254604080516340c10f1960e01b81526001600160a01b0392831660048201526024810187905290519190921693506340c10f199250604480830192600092919082900301818387803b1580156110d957600080fd5b505af11580156110ed573d6000803e3d6000fd5b5050505061111b6111108461061064e8d4a51000856117ee90919063ffffffff16565b600386015490611990565b6003850155505043600290920191909155505b50565b60006007828154811061114057fe5b60009182526020808320858452600882526040808520338087529352909320805460049093029093018054909450611185926001600160a01b03919091169190611939565b80546040805191825251849133917fbb757047c2b5f3974fe26b7c10f732e7bce710b0952a71082702781e62ae05959181900360200190a360008082556001909101555050565b6111d46117ea565b6000546001600160a01b03908116911614611224576040805162461bcd60e51b815260206004820181905260248201526000805160206120cc833981519152604482015290519081900360640190fd5b600555565b60075460005b818110156112485761124081610f05565b60010161122f565b5050565b6112546117ea565b6000546001600160a01b039081169116146112a4576040805162461bcd60e51b815260206004820181905260248201526000805160206120cc833981519152604482015290519081900360640190fd5b80156112b2576112b2611229565b6000600784815481106112c157fe5b906000526020600020906004020160010154905082600785815481106112e357fe5b9060005260206000209060040201600101819055508281146108e85761131e836113188360095461188690919063ffffffff16565b90611990565b6009556108e86119e8565b6113316117ea565b6000546001600160a01b03908116911614611381576040805162461bcd60e51b815260206004820181905260248201526000805160206120cc833981519152604482015290519081900360640190fd5b600080546040516001600160a01b03909116907f8be0079c531659141344cd1fd0a4f28419497f9722a3daafe3b4186f6b6457e0908390a3600080546001600160a01b0319169055565b6006546001600160a01b031681565b6002546001600160a01b031681565b60055481565b6003546001600160a01b0316331461143a576040805162461bcd60e51b81526020600482015260096024820152686465763a207775743f60b81b604482015290519081900360640190fd5b600380546001600160a01b0319166001600160a01b0392909216919091179055565b6000546001600160a01b031690565b60055460009061147f90610ff68486611886565b90505b92915050565b60086020908152600092835260408084209091529082529020805460019091015482565b600080600784815481106114bc57fe5b600091825260208083208784526008825260408085206001600160a01b03898116875290845281862060049586029093016003810154815484516370a0823160e01b81523098810198909852935191985093969395939492909116926370a08231926024808301939192829003018186803b15801561153a57600080fd5b505afa15801561154e573d6000803e3d6000fd5b505050506040513d602081101561156457600080fd5b505160028501549091504311801561157b57508015155b156115db57600061159085600201544361146b565b905060006115b76009546106108860010154610ff6600454876117ee90919063ffffffff16565b90506115d66115cf846106108464e8d4a510006117ee565b8590611990565b935050505b611603836001015461061664e8d4a510006106108688600001546117ee90919063ffffffff16565b979650505050505050565b6003546001600160a01b031681565b6001546001600160a01b031681565b81611677576040805162461bcd60e51b81526020600482015260166024820152756465706f73697420434f57206279207374616b696e6760501b604482015290519081900360640190fd5b60006007838154811061168657fe5b600091825260208083208684526008825260408085203386529092529220600490910290910191506116b784610f05565b8054156117005760006116ec826001015461061664e8d4a51000610610876003015487600001546117ee90919063ffffffff16565b905080156116fe576116fe33826118c8565b505b821561172c57815461171d906001600160a01b0316333086611aad565b80546117299084611990565b81555b600382015481546117479164e8d4a5100091610610916117ee565b6001820155604080518481529051859133917f90890809c654f11d6e72a28fa60149770a0d11ec6c92319d6ceb2bb0a4ea1a159181900360200190a350505050565b6117916117ea565b6000546001600160a01b039081169116146117e1576040805162461bcd60e51b815260206004820181905260248201526000805160206120cc833981519152604482015290519081900360640190fd5b61112e81611c1a565b3390565b6000826117fd57506000611482565b8282028284828161180a57fe5b041461147f5760405162461bcd60e51b81526004018080602001828103825260218152602001806120756021913960400191505060405180910390fd5b600061147f83836040518060400160405280601a815260200179536166654d6174683a206469766973696f6e206279207a65726f60301b815250611cba565b600061147f83836040518060400160405280601e81526020017f536166654d6174683a207375627472616374696f6e206f766572666c6f770000815250611d5c565b600254604080516307437d8b60e31b81526001600160a01b0385811660048301526024820185905291519190921691633a1bec5891604480830192600092919082900301818387803b15801561191d57600080fd5b505af1158015611931573d6000803e3d6000fd5b505050505050565b604080516001600160a01b038416602482015260448082018490528251808303909101815260649091019091526020810180516001600160e01b031663a9059cbb60e01b17905261198b908490611db6565b505050565b60008282018381101561147f576040805162461bcd60e51b815260206004820152601b60248201527a536166654d6174683a206164646974696f6e206f766572666c6f7760281b604482015290519081900360640190fd5b600754600060015b82811015611a3357611a2960078281548110611a0857fe5b9060005260206000209060040201600101548361199090919063ffffffff16565b91506001016119f0565b50801561124857611a45816003611847565b9050611a7f816113186007600081548110611a5c57fe5b90600052602060002090600402016001015460095461188690919063ffffffff16565b600981905550806007600081548110611a9457fe5b9060005260206000209060040201600101819055505050565b604080516001600160a01b0380861660248301528416604482015260648082018490528251808303909101815260849091019091526020810180516001600160e01b03166323b872dd60e01b1790526108e8908590611db6565b801580611b8d575060408051636eb1769f60e11b81523060048201526001600160a01b03848116602483015291519185169163dd62ed3e91604480820192602092909190829003018186803b158015611b5f57600080fd5b505afa158015611b73573d6000803e3d6000fd5b505050506040513d6020811015611b8957600080fd5b5051155b611bc85760405162461bcd60e51b81526004018080602001828103825260368152602001806120966036913960400191505060405180910390fd5b604080516001600160a01b038416602482015260448082018490528251808303909101815260649091019091526020810180516001600160e01b031663095ea7b360e01b17905261198b908490611db6565b6001600160a01b038116611c5f5760405162461bcd60e51b815260040180806020018281038252602681526020018061204f6026913960400191505060405180910390fd5b600080546040516001600160a01b03808516939216917f8be0079c531659141344cd1fd0a4f28419497f9722a3daafe3b4186f6b6457e091a3600080546001600160a01b0319166001600160a01b0392909216919091179055565b60008183611d465760405162461bcd60e51b81526004018080602001828103825283818151815260200191508051906020019080838360005b83811015611d0b578181015183820152602001611cf3565b50505050905090810190601f168015611d385780820380516001836020036101000a031916815260200191505b509250505060405180910390fd5b506000838581611d5257fe5b0495945050505050565b60008184841115611dae5760405162461bcd60e51b8152602060048201818152835160248401528351909283926044909101919085019080838360008315611d0b578181015183820152602001611cf3565b505050900390565b6060611e0b826040518060400160405280602081526020017f5361666542455032303a206c6f772d6c6576656c2063616c6c206661696c6564815250856001600160a01b0316611e679092919063ffffffff16565b80519091501561198b57808060200190516020811015611e2a57600080fd5b505161198b5760405162461bcd60e51b815260040180806020018281038252602a815260200180612025602a913960400191505060405180910390fd5b6060611e768484600085611e7e565b949350505050565b6060611e8985611feb565b611eda576040805162461bcd60e51b815260206004820152601d60248201527f416464726573733a2063616c6c20746f206e6f6e2d636f6e7472616374000000604482015290519081900360640190fd5b60006060866001600160a01b031685876040518082805190602001908083835b60208310611f195780518252601f199092019160209182019101611efa565b6001836020036101000a03801982511681845116808217855250505050505090500191505060006040518083038185875af1925050503d8060008114611f7b576040519150601f19603f3d011682016040523d82523d6000602084013e611f80565b606091505b50915091508115611f94579150611e769050565b805115611fa45780518082602001fd5b60405162461bcd60e51b8152602060048201818152865160248401528651879391928392604401919085019080838360008315611d0b578181015183820152602001611cf3565b6000813f7fc5d2460186f7233c927e7db2dcc703c0e500b653ca82273b7bfad8045d85a470818114801590611e7657505015159291505056fe5361666542455032303a204245503230206f7065726174696f6e20646964206e6f7420737563636565644f776e61626c653a206e6577206f776e657220697320746865207a65726f2061646472657373536166654d6174683a206d756c7469706c69636174696f6e206f766572666c6f775361666542455032303a20617070726f76652066726f6d206e6f6e2d7a65726f20746f206e6f6e2d7a65726f20616c6c6f77616e63654f776e61626c653a2063616c6c6572206973206e6f7420746865206f776e6572a26469706673582212208f7cfe15272321e47806c48df82c1337a06c2ba50c4063f5a7141782199a56dc64736f6c634300060c0033",
  "immutableReferences": {},
  "source": "//SPDX-License-Identifier: UNLICENSED\npragma solidity 0.6.12;\n\nimport '@pancakeswap/pancake-swap-lib/contracts/math/SafeMath.sol';\nimport '@pancakeswap/pancake-swap-lib/contracts/token/BEP20/IBEP20.sol';\nimport '@pancakeswap/pancake-swap-lib/contracts/token/BEP20/SafeBEP20.sol';\nimport '@pancakeswap/pancake-swap-lib/contracts/access/Ownable.sol';\n\nimport \"./CowToken.sol\";\nimport \"./SyrupBar.sol\";\n\n// import \"@nomiclabs/buidler/console.sol\";\n\ninterface IMigratorChef {\n    // Perform LP token migration from legacy PancakeSwap to CakeSwap.\n    // Take the current LP token address and return the new LP token address.\n    // Migrator should have full access to the caller's LP token.\n    // Return the new LP token address.\n    //\n    // XXX Migrator must have allowance access to PancakeSwap LP tokens.\n    // CakeSwap must mint EXACTLY the same amount of CakeSwap LP tokens or\n    // else something bad will happen. Traditional PancakeSwap does not\n    // do that so be careful!\n    function migrate(IBEP20 token) external returns (IBEP20);\n}\n\n// MasterChef is the master of Cow. He can make Cow and he is a fair guy.\n//\n// Note that it's ownable and the owner wields tremendous power. The ownership\n// will be transferred to a governance smart contract once COW is sufficiently\n// distributed and the community can show to govern itself.\n//\n// Have fun reading it. Hopefully it's bug-free. God bless.\ncontract MasterChef is Ownable {\n    using SafeMath for uint256;\n    using SafeBEP20 for IBEP20;\n\n    // Info of each user.\n    struct UserInfo {\n        uint256 amount;     // How many LP tokens the user has provided.\n        uint256 rewardDebt; // Reward debt. See explanation below.\n        //\n        // We do some fancy math here. Basically, any point in time, the amount of COWs\n        // entitled to a user but is pending to be distributed is:\n        //\n        //   pending reward = (user.amount * pool.accCowPerShare) - user.rewardDebt\n        //\n        // Whenever a user deposits or withdraws LP tokens to a pool. Here's what happens:\n        //   1. The pool's `accCowPerShare` (and `lastRewardBlock`) gets updated.\n        //   2. User receives the pending reward sent to his/her address.\n        //   3. User's `amount` gets updated.\n        //   4. User's `rewardDebt` gets updated.\n    }\n\n    // Info of each pool.\n    struct PoolInfo {\n        IBEP20 lpToken;           // Address of LP token contract.\n        uint256 allocPoint;       // How many allocation points assigned to this pool. COWs to distribute per block.\n        uint256 lastRewardBlock;  // Last block number that COWs distribution occurs.\n        uint256 accCowPerShare; // Accumulated COWs per share, times 1e12. See below.\n    }\n\n    // The COW TOKEN!\n    CowToken public cow;\n    // The SYRUP TOKEN!\n    SyrupBar public syrup;\n    // Dev address.\n    address public devaddr;\n    // COW tokens created per block.\n    uint256 public cowPerBlock;\n    // Bonus muliplier for early cow makers.\n    uint256 public BONUS_MULTIPLIER = 1;\n    // The migrator contract. It has a lot of power. Can only be set through governance (owner).\n    IMigratorChef public migrator;\n\n    // Info of each pool.\n    PoolInfo[] public poolInfo;\n    // Info of each user that stakes LP tokens.\n    mapping (uint256 => mapping (address => UserInfo)) public userInfo;\n    // Total allocation points. Must be the sum of all allocation points in all pools.\n    uint256 public totalAllocPoint = 0;\n    // The block number when COW mining starts.\n    uint256 public startBlock;\n\n    event Deposit(address indexed user, uint256 indexed pid, uint256 amount);\n    event Withdraw(address indexed user, uint256 indexed pid, uint256 amount);\n    event EmergencyWithdraw(address indexed user, uint256 indexed pid, uint256 amount);\n\n    constructor(\n        CowToken _cow,\n        SyrupBar _syrup,\n        address _devaddr,\n        uint256 _cowPerBlock,\n        uint256 _startBlock\n    ) public {\n        cow = _cow;\n        syrup = _syrup;\n        devaddr = _devaddr;\n        cowPerBlock = _cowPerBlock;\n        startBlock = _startBlock;\n\n        // staking pool\n        poolInfo.push(PoolInfo({\n            lpToken: _cow,\n            allocPoint: 1000,\n            lastRewardBlock: startBlock,\n            accCowPerShare: 0\n        }));\n\n        totalAllocPoint = 1000;\n\n    }\n\n    function updateMultiplier(uint256 multiplierNumber) public onlyOwner {\n        BONUS_MULTIPLIER = multiplierNumber;\n    }\n\n    function poolLength() external view returns (uint256) {\n        return poolInfo.length;\n    }\n\n    // Add a new lp to the pool. Can only be called by the owner.\n    // XXX DO NOT add the same LP token more than once. Rewards will be messed up if you do.\n    function add(uint256 _allocPoint, IBEP20 _lpToken, bool _withUpdate) public onlyOwner {\n        if (_withUpdate) {\n            massUpdatePools();\n        }\n        uint256 lastRewardBlock = block.number > startBlock ? block.number : startBlock;\n        totalAllocPoint = totalAllocPoint.add(_allocPoint);\n        poolInfo.push(PoolInfo({\n            lpToken: _lpToken,\n            allocPoint: _allocPoint,\n            lastRewardBlock: lastRewardBlock,\n            accCowPerShare: 0\n        }));\n        updateStakingPool();\n    }\n\n    // Update the given pool's COW allocation point. Can only be called by the owner.\n    function set(uint256 _pid, uint256 _allocPoint, bool _withUpdate) public onlyOwner {\n        if (_withUpdate) {\n            massUpdatePools();\n        }\n        uint256 prevAllocPoint = poolInfo[_pid].allocPoint;\n        poolInfo[_pid].allocPoint = _allocPoint;\n        if (prevAllocPoint != _allocPoint) {\n            totalAllocPoint = totalAllocPoint.sub(prevAllocPoint).add(_allocPoint);\n            updateStakingPool();\n        }\n    }\n\n    function updateStakingPool() internal {\n        uint256 length = poolInfo.length;\n        uint256 points = 0;\n        for (uint256 pid = 1; pid < length; ++pid) {\n            points = points.add(poolInfo[pid].allocPoint);\n        }\n        if (points != 0) {\n            points = points.div(3);\n            totalAllocPoint = totalAllocPoint.sub(poolInfo[0].allocPoint).add(points);\n            poolInfo[0].allocPoint = points;\n        }\n    }\n\n    // Set the migrator contract. Can only be called by the owner.\n    function setMigrator(IMigratorChef _migrator) public onlyOwner {\n        migrator = _migrator;\n    }\n\n    // Migrate lp token to another lp contract. Can be called by anyone. We trust that migrator contract is good.\n    function migrate(uint256 _pid) public {\n        require(address(migrator) != address(0), \"migrate: no migrator\");\n        PoolInfo storage pool = poolInfo[_pid];\n        IBEP20 lpToken = pool.lpToken;\n        uint256 bal = lpToken.balanceOf(address(this));\n        lpToken.safeApprove(address(migrator), bal);\n        IBEP20 newLpToken = migrator.migrate(lpToken);\n        require(bal == newLpToken.balanceOf(address(this)), \"migrate: bad\");\n        pool.lpToken = newLpToken;\n    }\n\n    // Return reward multiplier over the given _from to _to block.\n    function getMultiplier(uint256 _from, uint256 _to) public view returns (uint256) {\n        return _to.sub(_from).mul(BONUS_MULTIPLIER);\n    }\n\n    // View function to see pending COWs on frontend.\n    function pendingCow(uint256 _pid, address _user) external view returns (uint256) {\n        PoolInfo storage pool = poolInfo[_pid];\n        UserInfo storage user = userInfo[_pid][_user];\n        uint256 accCowPerShare = pool.accCowPerShare;\n        uint256 lpSupply = pool.lpToken.balanceOf(address(this));\n        if (block.number > pool.lastRewardBlock && lpSupply != 0) {\n            uint256 multiplier = getMultiplier(pool.lastRewardBlock, block.number);\n            uint256 cowReward = multiplier.mul(cowPerBlock).mul(pool.allocPoint).div(totalAllocPoint);\n            accCowPerShare = accCowPerShare.add(cowReward.mul(1e12).div(lpSupply));\n        }\n        return user.amount.mul(accCowPerShare).div(1e12).sub(user.rewardDebt);\n    }\n\n    // Update reward variables for all pools. Be careful of gas spending!\n    function massUpdatePools() public {\n        uint256 length = poolInfo.length;\n        for (uint256 pid = 0; pid < length; ++pid) {\n            updatePool(pid);\n        }\n    }\n\n\n    // Update reward variables of the given pool to be up-to-date.\n    function updatePool(uint256 _pid) public {\n        PoolInfo storage pool = poolInfo[_pid];\n        if (block.number <= pool.lastRewardBlock) {\n            return;\n        }\n        uint256 lpSupply = pool.lpToken.balanceOf(address(this));\n        if (lpSupply == 0) {\n            pool.lastRewardBlock = block.number;\n            return;\n        }\n        uint256 multiplier = getMultiplier(pool.lastRewardBlock, block.number);\n        uint256 cowReward = multiplier.mul(cowPerBlock).mul(pool.allocPoint).div(totalAllocPoint);\n        cow.mint(devaddr, cowReward.div(10));\n        cow.mint(address(syrup), cowReward);\n        pool.accCowPerShare = pool.accCowPerShare.add(cowReward.mul(1e12).div(lpSupply));\n        pool.lastRewardBlock = block.number;\n    }\n\n    // Deposit LP tokens to MasterChef for COW allocation.\n    function deposit(uint256 _pid, uint256 _amount) public {\n\n        require (_pid != 0, 'deposit COW by staking');\n\n        PoolInfo storage pool = poolInfo[_pid];\n        UserInfo storage user = userInfo[_pid][msg.sender];\n        updatePool(_pid);\n        if (user.amount > 0) {\n            uint256 pending = user.amount.mul(pool.accCowPerShare).div(1e12).sub(user.rewardDebt);\n            if(pending > 0) {\n                safeCowTransfer(msg.sender, pending);\n            }\n        }\n        if (_amount > 0) {\n            pool.lpToken.safeTransferFrom(address(msg.sender), address(this), _amount);\n            user.amount = user.amount.add(_amount);\n        }\n        user.rewardDebt = user.amount.mul(pool.accCowPerShare).div(1e12);\n        emit Deposit(msg.sender, _pid, _amount);\n    }\n\n    // Withdraw LP tokens from MasterChef.\n    function withdraw(uint256 _pid, uint256 _amount) public {\n\n        require (_pid != 0, 'withdraw COW by unstaking');\n        PoolInfo storage pool = poolInfo[_pid];\n        UserInfo storage user = userInfo[_pid][msg.sender];\n        require(user.amount >= _amount, \"withdraw: not good\");\n\n        updatePool(_pid);\n        uint256 pending = user.amount.mul(pool.accCowPerShare).div(1e12).sub(user.rewardDebt);\n        if(pending > 0) {\n            safeCowTransfer(msg.sender, pending);\n        }\n        if(_amount > 0) {\n            user.amount = user.amount.sub(_amount);\n            pool.lpToken.safeTransfer(address(msg.sender), _amount);\n        }\n        user.rewardDebt = user.amount.mul(pool.accCowPerShare).div(1e12);\n        emit Withdraw(msg.sender, _pid, _amount);\n    }\n\n    // Stake COW tokens to MasterChef\n    function enterStaking(uint256 _amount) public {\n        PoolInfo storage pool = poolInfo[0];\n        UserInfo storage user = userInfo[0][msg.sender];\n        updatePool(0);\n        if (user.amount > 0) {\n            uint256 pending = user.amount.mul(pool.accCowPerShare).div(1e12).sub(user.rewardDebt);\n            if(pending > 0) {\n                safeCowTransfer(msg.sender, pending);\n            }\n        }\n        if(_amount > 0) {\n            pool.lpToken.safeTransferFrom(address(msg.sender), address(this), _amount);\n            user.amount = user.amount.add(_amount);\n        }\n        user.rewardDebt = user.amount.mul(pool.accCowPerShare).div(1e12);\n\n        syrup.mint(msg.sender, _amount);\n        emit Deposit(msg.sender, 0, _amount);\n    }\n\n    // Withdraw COW tokens from STAKING.\n    function leaveStaking(uint256 _amount) public {\n        PoolInfo storage pool = poolInfo[0];\n        UserInfo storage user = userInfo[0][msg.sender];\n        require(user.amount >= _amount, \"withdraw: not good\");\n        updatePool(0);\n        uint256 pending = user.amount.mul(pool.accCowPerShare).div(1e12).sub(user.rewardDebt);\n        if(pending > 0) {\n            safeCowTransfer(msg.sender, pending);\n        }\n        if(_amount > 0) {\n            user.amount = user.amount.sub(_amount);\n            pool.lpToken.safeTransfer(address(msg.sender), _amount);\n        }\n        user.rewardDebt = user.amount.mul(pool.accCowPerShare).div(1e12);\n\n        syrup.burn(msg.sender, _amount);\n        emit Withdraw(msg.sender, 0, _amount);\n    }\n\n    // Withdraw without caring about rewards. EMERGENCY ONLY.\n    function emergencyWithdraw(uint256 _pid) public {\n        PoolInfo storage pool = poolInfo[_pid];\n        UserInfo storage user = userInfo[_pid][msg.sender];\n        pool.lpToken.safeTransfer(address(msg.sender), user.amount);\n        emit EmergencyWithdraw(msg.sender, _pid, user.amount);\n        user.amount = 0;\n        user.rewardDebt = 0;\n    }\n\n    // Safe cow transfer function, just in case if rounding error causes pool to not have enough COWs.\n    function safeCowTransfer(address _to, uint256 _amount) internal {\n        syrup.safeCowTransfer(_to, _amount);\n    }\n\n    // Update dev address by the previous dev.\n    function dev(address _devaddr) public {\n        require(msg.sender == devaddr, \"dev: wut?\");\n        devaddr = _devaddr;\n    }\n     //Pancake has to add hidden dummy pools inorder to alter the emission, here we make it simple and transparent to all.\n    function updateEmissionRate(uint256 _cowPerBlock) public onlyOwner {\n        massUpdatePools();\n        cowPerBlock = _cowPerBlock;\n            }\n}\n",
  "sourcePath": "/home/rahul/Pancake Clone/pancake-farm/contracts/MasterChef.sol",
  "compiler": {
    "name": "solc",
    "version": "0.6.12+commit.27d51765.Emscripten.clang"
  },
  "schemaVersion": "3.3.4",
  "updatedAt": "2021-06-04T10:59:35.481Z",
  "networkType": "ethereum",
  "devdoc": {
    "kind": "dev",
    "methods": {
      "owner()": {
        "details": "Returns the address of the current owner."
      },
      "renounceOwnership()": {
        "details": "Leaves the contract without owner. It will not be possible to call `onlyOwner` functions anymore. Can only be called by the current owner. NOTE: Renouncing ownership will leave the contract without an owner, thereby removing any functionality that is only available to the owner."
      },
      "transferOwnership(address)": {
        "details": "Transfers ownership of the contract to a new account (`newOwner`). Can only be called by the current owner."
      }
    },
    "version": 1
  },
  "userdoc": {
    "kind": "user",
    "methods": {},
    "version": 1
  }
}