{
  "contractName": "SousChef",
  "abi": [
    {
      "inputs": [
        {
          "internalType": "contract IBEP20",
          "name": "_syrup",
          "type": "address"
        },
        {
          "internalType": "uint256",
          "name": "_rewardPerBlock",
          "type": "uint256"
        },
        {
          "internalType": "uint256",
          "name": "_startBlock",
          "type": "uint256"
        },
        {
          "internalType": "uint256",
          "name": "_endBlock",
          "type": "uint256"
        }
      ],
      "stateMutability": "nonpayable",
      "type": "constructor"
    },
    {
      "anonymous": false,
      "inputs": [
        {
          "indexed": true,
          "internalType": "address",
          "name": "user",
          "type": "address"
        },
        {
          "indexed": false,
          "internalType": "uint256",
          "name": "amount",
          "type": "uint256"
        }
      ],
      "name": "Deposit",
      "type": "event"
    },
    {
      "anonymous": false,
      "inputs": [
        {
          "indexed": true,
          "internalType": "address",
          "name": "user",
          "type": "address"
        },
        {
          "indexed": false,
          "internalType": "uint256",
          "name": "amount",
          "type": "uint256"
        }
      ],
      "name": "EmergencyWithdraw",
      "type": "event"
    },
    {
      "anonymous": false,
      "inputs": [
        {
          "indexed": true,
          "internalType": "address",
          "name": "user",
          "type": "address"
        },
        {
          "indexed": false,
          "internalType": "uint256",
          "name": "amount",
          "type": "uint256"
        }
      ],
      "name": "Withdraw",
      "type": "event"
    },
    {
      "inputs": [
        {
          "internalType": "uint256",
          "name": "",
          "type": "uint256"
        }
      ],
      "name": "addressList",
      "outputs": [
        {
          "internalType": "address",
          "name": "",
          "type": "address"
        }
      ],
      "stateMutability": "view",
      "type": "function",
      "constant": true
    },
    {
      "inputs": [],
      "name": "bonusEndBlock",
      "outputs": [
        {
          "internalType": "uint256",
          "name": "",
          "type": "uint256"
        }
      ],
      "stateMutability": "view",
      "type": "function",
      "constant": true
    },
    {
      "inputs": [],
      "name": "poolInfo",
      "outputs": [
        {
          "internalType": "uint256",
          "name": "lastRewardBlock",
          "type": "uint256"
        },
        {
          "internalType": "uint256",
          "name": "accRewardPerShare",
          "type": "uint256"
        }
      ],
      "stateMutability": "view",
      "type": "function",
      "constant": true
    },
    {
      "inputs": [],
      "name": "rewardPerBlock",
      "outputs": [
        {
          "internalType": "uint256",
          "name": "",
          "type": "uint256"
        }
      ],
      "stateMutability": "view",
      "type": "function",
      "constant": true
    },
    {
      "inputs": [],
      "name": "startBlock",
      "outputs": [
        {
          "internalType": "uint256",
          "name": "",
          "type": "uint256"
        }
      ],
      "stateMutability": "view",
      "type": "function",
      "constant": true
    },
    {
      "inputs": [],
      "name": "syrup",
      "outputs": [
        {
          "internalType": "contract IBEP20",
          "name": "",
          "type": "address"
        }
      ],
      "stateMutability": "view",
      "type": "function",
      "constant": true
    },
    {
      "inputs": [
        {
          "internalType": "address",
          "name": "",
          "type": "address"
        }
      ],
      "name": "userInfo",
      "outputs": [
        {
          "internalType": "uint256",
          "name": "amount",
          "type": "uint256"
        },
        {
          "internalType": "uint256",
          "name": "rewardDebt",
          "type": "uint256"
        },
        {
          "internalType": "uint256",
          "name": "rewardPending",
          "type": "uint256"
        }
      ],
      "stateMutability": "view",
      "type": "function",
      "constant": true
    },
    {
      "inputs": [],
      "name": "addressLength",
      "outputs": [
        {
          "internalType": "uint256",
          "name": "",
          "type": "uint256"
        }
      ],
      "stateMutability": "view",
      "type": "function",
      "constant": true
    },
    {
      "inputs": [
        {
          "internalType": "address",
          "name": "_user",
          "type": "address"
        }
      ],
      "name": "pendingReward",
      "outputs": [
        {
          "internalType": "uint256",
          "name": "",
          "type": "uint256"
        }
      ],
      "stateMutability": "view",
      "type": "function",
      "constant": true
    },
    {
      "inputs": [],
      "name": "updatePool",
      "outputs": [],
      "stateMutability": "nonpayable",
      "type": "function"
    },
    {
      "inputs": [
        {
          "internalType": "uint256",
          "name": "_amount",
          "type": "uint256"
        }
      ],
      "name": "deposit",
      "outputs": [],
      "stateMutability": "nonpayable",
      "type": "function"
    },
    {
      "inputs": [
        {
          "internalType": "uint256",
          "name": "_amount",
          "type": "uint256"
        }
      ],
      "name": "withdraw",
      "outputs": [],
      "stateMutability": "nonpayable",
      "type": "function"
    },
    {
      "inputs": [],
      "name": "emergencyWithdraw",
      "outputs": [],
      "stateMutability": "nonpayable",
      "type": "function"
    }
  ],
  "bytecode": "0x608060405234801561001057600080fd5b50604051610ea7380380610ea78339818101604052608081101561003357600080fd5b508051602080830151604080850151606090950151600080546001600160a01b039096166001600160a01b03199096169590951785556001929092556006859055600791909155805180820190915283815201819052600291909155600355610e06806100a16000396000f3fe608060405234801561001057600080fd5b50600436106100af5760003560e01c80631959a002146100b45780631aed6553146100f85780632e1a7d4d1461011257806348cd4cb1146101315780635a2f3d091461013957806386a952c41461015a5780638ae39cac1461017e578063b6b55f2514610186578063b810fb43146101a3578063db2e21bc146101c0578063dc881888146101c8578063e3161ddd146101d0578063f40f0f52146101d8575b600080fd5b6100da600480360360208110156100ca57600080fd5b50356001600160a01b03166101fe565b60408051938452602084019290925282820152519081900360600190f35b61010061021f565b60408051918252519081900360200190f35b61012f6004803603602081101561012857600080fd5b5035610225565b005b610100610392565b610141610398565b6040805192835260208301919091528051918290030190f35b6101626103a1565b604080516001600160a01b039092168252519081900360200190f35b6101006103b0565b61012f6004803603602081101561019c57600080fd5b50356103b6565b610162600480360360208110156101b957600080fd5b503561052c565b61012f610553565b6101006105c8565b61012f6105ce565b610100600480360360208110156101ee57600080fd5b50356001600160a01b03166106bd565b60046020526000908152604090208054600182015460029092015490919083565b60075481565b60008111610265576040805162461bcd60e51b81526020600482015260086024820152670616d6f756e7420360c41b604482015290519081900360640190fd5b33600090815260046020526040902080548211156102c1576040805162461bcd60e51b81526020600482015260146024820152730eed2e8d0c8e4c2ee7440dcdee840cadcdeeaced60631b604482015290519081900360640190fd5b6102c96105ce565b6000546102e0906001600160a01b031633846107ef565b6103278160020154610321836001015461031b64e8d4a51000610315600260010154886000015461084690919063ffffffff16565b906108a8565b906108e7565b90610929565b6002820155805461033890836108e7565b8082556003546103539164e8d4a51000916103159190610846565b600182015560408051838152905133917f884edad9ce6fa2440d8a54cc123490eb96d2768479d49ff9c7366125a9424364919081900360200190a25050565b60065481565b60025460035482565b6000546001600160a01b031681565b60015481565b600081116103f6576040805162461bcd60e51b81526020600482015260086024820152670616d6f756e7420360c41b604482015290519081900360640190fd5b33600090815260046020526040902061040d6105ce565b600054610425906001600160a01b0316333085610981565b805415801561043657506002810154155b801561044457506001810154155b1561048c57600580546001810182556000919091527f036b6384b5eca791c62761152d0c79bb0604c104a5fb6f4eb0703f3154bb3db00180546001600160a01b031916331790555b6104c18160020154610321836001015461031b64e8d4a51000610315600260010154886000015461084690919063ffffffff16565b600282015580546104d29083610929565b8082556003546104ed9164e8d4a51000916103159190610846565b600182015560408051838152905133917fe1fffcc4923d04b559f4d29a8bfc6cda04eb5b0d3c460751c2402c5c5cc9109c919081900360200190a25050565b6005818154811061053957fe5b6000918252602090912001546001600160a01b0316905081565b33600081815260046020526040812080549154909261057d926001600160a01b03909216916107ef565b8054604080519182525133917f5fafa99d0643513820be26656b45130b01e1c03062e1266bf36f88cbd3bd9695919081900360200190a2600080825560018201819055600290910155565b60055490565b60025443116105dc576106bb565b60008054604080516370a0823160e01b815230600482015290516001600160a01b03909216916370a0823191602480820192602092909190829003018186803b15801561062857600080fd5b505afa15801561063c573d6000803e3d6000fd5b505050506040513d602081101561065257600080fd5b50519050806106655750436002556106bb565b6000610676600260000154436109e1565b9050600061068f6001548361084690919063ffffffff16565b90506106b06106a7846103158464e8d4a51000610846565b60035490610929565b600355505043600255505b565b6001600160a01b038082166000908152600460208181526040808420600354855483516370a0823160e01b8152309681019690965292519596600296929591948894909116926370a08231926024808201939291829003018186803b15801561072557600080fd5b505afa158015610739573d6000803e3d6000fd5b505050506040513d602081101561074f57600080fd5b505184549091504311801561076357508015155b156107b55760006107788560000154436109e1565b905060006107916001548361084690919063ffffffff16565b90506107b06107a9846103158464e8d4a51000610846565b8590610929565b935050505b6107e58360020154610321856001015461031b64e8d4a51000610315888a6000015461084690919063ffffffff16565b9695505050505050565b604080516001600160a01b038416602482015260448082018490528251808303909101815260649091019091526020810180516001600160e01b031663a9059cbb60e01b179052610841908490610a1b565b505050565b600082610855575060006108a2565b8282028284828161086257fe5b041461089f5760405162461bcd60e51b8152600401808060200182810382526021815260200180610db06021913960400191505060405180910390fd5b90505b92915050565b600061089f83836040518060400160405280601a815260200179536166654d6174683a206469766973696f6e206279207a65726f60301b815250610acc565b600061089f83836040518060400160405280601e81526020017f536166654d6174683a207375627472616374696f6e206f766572666c6f770000815250610b6e565b60008282018381101561089f576040805162461bcd60e51b815260206004820152601b60248201527a536166654d6174683a206164646974696f6e206f766572666c6f7760281b604482015290519081900360640190fd5b604080516001600160a01b0380861660248301528416604482015260648082018490528251808303909101815260849091019091526020810180516001600160e01b03166323b872dd60e01b1790526109db908590610a1b565b50505050565b600060075482116109fd576109f682846108e7565b90506108a2565b6007548310610a0e575060006108a2565b6007546109f690846108e7565b6060610a70826040518060400160405280602081526020017f5361666542455032303a206c6f772d6c6576656c2063616c6c206661696c6564815250856001600160a01b0316610bc89092919063ffffffff16565b80519091501561084157808060200190516020811015610a8f57600080fd5b50516108415760405162461bcd60e51b815260040180806020018281038252602a815260200180610d86602a913960400191505060405180910390fd5b60008183610b585760405162461bcd60e51b81526004018080602001828103825283818151815260200191508051906020019080838360005b83811015610b1d578181015183820152602001610b05565b50505050905090810190601f168015610b4a5780820380516001836020036101000a031916815260200191505b509250505060405180910390fd5b506000838581610b6457fe5b0495945050505050565b60008184841115610bc05760405162461bcd60e51b8152602060048201818152835160248401528351909283926044909101919085019080838360008315610b1d578181015183820152602001610b05565b505050900390565b6060610bd78484600085610bdf565b949350505050565b6060610bea85610d4c565b610c3b576040805162461bcd60e51b815260206004820152601d60248201527f416464726573733a2063616c6c20746f206e6f6e2d636f6e7472616374000000604482015290519081900360640190fd5b60006060866001600160a01b031685876040518082805190602001908083835b60208310610c7a5780518252601f199092019160209182019101610c5b565b6001836020036101000a03801982511681845116808217855250505050505090500191505060006040518083038185875af1925050503d8060008114610cdc576040519150601f19603f3d011682016040523d82523d6000602084013e610ce1565b606091505b50915091508115610cf5579150610bd79050565b805115610d055780518082602001fd5b60405162461bcd60e51b8152602060048201818152865160248401528651879391928392604401919085019080838360008315610b1d578181015183820152602001610b05565b6000813f7fc5d2460186f7233c927e7db2dcc703c0e500b653ca82273b7bfad8045d85a470818114801590610bd757505015159291505056fe5361666542455032303a204245503230206f7065726174696f6e20646964206e6f742073756363656564536166654d6174683a206d756c7469706c69636174696f6e206f766572666c6f77a264697066735822122035e9f4468da513cccca3165ff57ea8f9fa37ac5cf805c5fe5b71448890e98e0f64736f6c634300060c0033",
  "immutableReferences": {},
  "source": "//SPDX-License-Identifier: UNLICENSED\npragma solidity 0.6.12;\n\nimport '@pancakeswap/pancake-swap-lib/contracts/math/SafeMath.sol';\nimport '@pancakeswap/pancake-swap-lib/contracts/token/BEP20/IBEP20.sol';\nimport '@pancakeswap/pancake-swap-lib/contracts/token/BEP20/SafeBEP20.sol';\n\n// import \"@nomiclabs/buidler/console.sol\";\n\n// SousChef is the chef of new tokens. He can make yummy food and he is a fair guy as well as MasterChef.\ncontract SousChef {\n    using SafeMath for uint256;\n    using SafeBEP20 for IBEP20;\n\n    // Info of each user.\n    struct UserInfo {\n        uint256 amount;   // How many SYRUP tokens the user has provided.\n        uint256 rewardDebt;  // Reward debt. See explanation below.\n        uint256 rewardPending;\n        //\n        // We do some fancy math here. Basically, any point in time, the amount of SYRUPs\n        // entitled to a user but is pending to be distributed is:\n        //\n        //   pending reward = (user.amount * pool.accRewardPerShare) - user.rewardDebt + user.rewardPending\n        //\n        // Whenever a user deposits or withdraws SYRUP tokens to a pool. Here's what happens:\n        //   1. The pool's `accRewardPerShare` (and `lastRewardBlock`) gets updated.\n        //   2. User receives the pending reward sent to his/her address.\n        //   3. User's `amount` gets updated.\n        //   3. User's `amount` gets updated.\n        //   4. User's `rewardDebt` gets updated.\n    }\n\n    // Info of Pool\n    struct PoolInfo {\n        uint256 lastRewardBlock;  // Last block number that Rewards distribution occurs.\n        uint256 accRewardPerShare; // Accumulated reward per share, times 1e12. See below.\n    }\n\n    // The SYRUP TOKEN!\n    IBEP20 public syrup;\n    // rewards created per block.\n    uint256 public rewardPerBlock;\n\n    // Info.\n    PoolInfo public poolInfo;\n    // Info of each user that stakes Syrup tokens.\n    mapping (address => UserInfo) public userInfo;\n\n    // addresses list\n    address[] public addressList;\n\n    // The block number when mining starts.\n    uint256 public startBlock;\n    // The block number when mining ends.\n    uint256 public bonusEndBlock;\n\n    event Deposit(address indexed user, uint256 amount);\n    event Withdraw(address indexed user, uint256 amount);\n    event EmergencyWithdraw(address indexed user, uint256 amount);\n\n    constructor(\n        IBEP20 _syrup,\n        uint256 _rewardPerBlock,\n        uint256 _startBlock,\n        uint256 _endBlock\n    ) public {\n        syrup = _syrup;\n        rewardPerBlock = _rewardPerBlock;\n        startBlock = _startBlock;\n        bonusEndBlock = _endBlock;\n\n        // staking pool\n        poolInfo = PoolInfo({\n            lastRewardBlock: startBlock,\n            accRewardPerShare: 0\n        });\n    }\n\n    function addressLength() external view returns (uint256) {\n        return addressList.length;\n    }\n\n    // Return reward multiplier over the given _from to _to block.\n    function getMultiplier(uint256 _from, uint256 _to) internal view returns (uint256) {\n        if (_to <= bonusEndBlock) {\n            return _to.sub(_from);\n        } else if (_from >= bonusEndBlock) {\n            return 0;\n        } else {\n            return bonusEndBlock.sub(_from);\n        }\n    }\n\n    // View function to see pending Tokens on frontend.\n    function pendingReward(address _user) external view returns (uint256) {\n        PoolInfo storage pool = poolInfo;\n        UserInfo storage user = userInfo[_user];\n        uint256 accRewardPerShare = pool.accRewardPerShare;\n        uint256 stakedSupply = syrup.balanceOf(address(this));\n        if (block.number > pool.lastRewardBlock && stakedSupply != 0) {\n            uint256 multiplier = getMultiplier(pool.lastRewardBlock, block.number);\n            uint256 tokenReward = multiplier.mul(rewardPerBlock);\n            accRewardPerShare = accRewardPerShare.add(tokenReward.mul(1e12).div(stakedSupply));\n        }\n        return user.amount.mul(accRewardPerShare).div(1e12).sub(user.rewardDebt).add(user.rewardPending);\n    }\n\n    // Update reward variables of the given pool to be up-to-date.\n    function updatePool() public {\n        if (block.number <= poolInfo.lastRewardBlock) {\n            return;\n        }\n        uint256 syrupSupply = syrup.balanceOf(address(this));\n        if (syrupSupply == 0) {\n            poolInfo.lastRewardBlock = block.number;\n            return;\n        }\n        uint256 multiplier = getMultiplier(poolInfo.lastRewardBlock, block.number);\n        uint256 tokenReward = multiplier.mul(rewardPerBlock);\n\n        poolInfo.accRewardPerShare = poolInfo.accRewardPerShare.add(tokenReward.mul(1e12).div(syrupSupply));\n        poolInfo.lastRewardBlock = block.number;\n    }\n\n\n    // Deposit Syrup tokens to SousChef for Reward allocation.\n    function deposit(uint256 _amount) public {\n        require (_amount > 0, 'amount 0');\n        UserInfo storage user = userInfo[msg.sender];\n        updatePool();\n        syrup.safeTransferFrom(address(msg.sender), address(this), _amount);\n        // The deposit behavior before farming will result in duplicate addresses, and thus we will manually remove them when airdropping.\n        if (user.amount == 0 && user.rewardPending == 0 && user.rewardDebt == 0) {\n            addressList.push(address(msg.sender));\n        }\n        user.rewardPending = user.amount.mul(poolInfo.accRewardPerShare).div(1e12).sub(user.rewardDebt).add(user.rewardPending);\n        user.amount = user.amount.add(_amount);\n        user.rewardDebt = user.amount.mul(poolInfo.accRewardPerShare).div(1e12);\n\n        emit Deposit(msg.sender, _amount);\n    }\n\n    // Withdraw Syrup tokens from SousChef.\n    function withdraw(uint256 _amount) public {\n        require (_amount > 0, 'amount 0');\n        UserInfo storage user = userInfo[msg.sender];\n        require(user.amount >= _amount, \"withdraw: not enough\");\n\n        updatePool();\n        syrup.safeTransfer(address(msg.sender), _amount);\n\n        user.rewardPending = user.amount.mul(poolInfo.accRewardPerShare).div(1e12).sub(user.rewardDebt).add(user.rewardPending);\n        user.amount = user.amount.sub(_amount);\n        user.rewardDebt = user.amount.mul(poolInfo.accRewardPerShare).div(1e12);\n\n        emit Withdraw(msg.sender, _amount);\n    }\n\n    // Withdraw without caring about rewards. EMERGENCY ONLY.\n    function emergencyWithdraw() public {\n        UserInfo storage user = userInfo[msg.sender];\n        syrup.safeTransfer(address(msg.sender), user.amount);\n        emit EmergencyWithdraw(msg.sender, user.amount);\n        user.amount = 0;\n        user.rewardDebt = 0;\n        user.rewardPending = 0;\n    }\n\n}\n",
  "sourcePath": "/home/rahul/Pancake Clone/pancake-farm/contracts/SousChef.sol",
  "compiler": {
    "name": "solc",
    "version": "0.6.12+commit.27d51765.Emscripten.clang"
  },
  "schemaVersion": "3.3.4",
  "updatedAt": "2021-06-04T11:01:33.593Z",
  "networkType": "ethereum",
  "devdoc": {
    "kind": "dev",
    "methods": {},
    "version": 1
  },
  "userdoc": {
    "kind": "user",
    "methods": {},
    "version": 1
  }
}