{
  "contractName": "WBNB",
  "abi": [
    {
      "anonymous": false,
      "inputs": [
        {
          "indexed": true,
          "internalType": "address",
          "name": "src",
          "type": "address"
        },
        {
          "indexed": true,
          "internalType": "address",
          "name": "guy",
          "type": "address"
        },
        {
          "indexed": false,
          "internalType": "uint256",
          "name": "wad",
          "type": "uint256"
        }
      ],
      "name": "Approval",
      "type": "event"
    },
    {
      "anonymous": false,
      "inputs": [
        {
          "indexed": true,
          "internalType": "address",
          "name": "dst",
          "type": "address"
        },
        {
          "indexed": false,
          "internalType": "uint256",
          "name": "wad",
          "type": "uint256"
        }
      ],
      "name": "Deposit",
      "type": "event"
    },
    {
      "anonymous": false,
      "inputs": [
        {
          "indexed": true,
          "internalType": "address",
          "name": "src",
          "type": "address"
        },
        {
          "indexed": true,
          "internalType": "address",
          "name": "dst",
          "type": "address"
        },
        {
          "indexed": false,
          "internalType": "uint256",
          "name": "wad",
          "type": "uint256"
        }
      ],
      "name": "Transfer",
      "type": "event"
    },
    {
      "anonymous": false,
      "inputs": [
        {
          "indexed": true,
          "internalType": "address",
          "name": "src",
          "type": "address"
        },
        {
          "indexed": false,
          "internalType": "uint256",
          "name": "wad",
          "type": "uint256"
        }
      ],
      "name": "Withdrawal",
      "type": "event"
    },
    {
      "inputs": [
        {
          "internalType": "address",
          "name": "",
          "type": "address"
        },
        {
          "internalType": "address",
          "name": "",
          "type": "address"
        }
      ],
      "name": "allowance",
      "outputs": [
        {
          "internalType": "uint256",
          "name": "",
          "type": "uint256"
        }
      ],
      "stateMutability": "view",
      "type": "function"
    },
    {
      "inputs": [
        {
          "internalType": "address",
          "name": "",
          "type": "address"
        }
      ],
      "name": "balanceOf",
      "outputs": [
        {
          "internalType": "uint256",
          "name": "",
          "type": "uint256"
        }
      ],
      "stateMutability": "view",
      "type": "function"
    },
    {
      "inputs": [],
      "name": "decimals",
      "outputs": [
        {
          "internalType": "uint8",
          "name": "",
          "type": "uint8"
        }
      ],
      "stateMutability": "view",
      "type": "function"
    },
    {
      "inputs": [],
      "name": "name",
      "outputs": [
        {
          "internalType": "string",
          "name": "",
          "type": "string"
        }
      ],
      "stateMutability": "view",
      "type": "function"
    },
    {
      "inputs": [],
      "name": "symbol",
      "outputs": [
        {
          "internalType": "string",
          "name": "",
          "type": "string"
        }
      ],
      "stateMutability": "view",
      "type": "function"
    },
    {
      "inputs": [],
      "name": "a",
      "outputs": [],
      "stateMutability": "payable",
      "type": "function"
    },
    {
      "inputs": [],
      "name": "deposit",
      "outputs": [],
      "stateMutability": "payable",
      "type": "function"
    },
    {
      "inputs": [
        {
          "internalType": "uint256",
          "name": "wad",
          "type": "uint256"
        }
      ],
      "name": "withdraw",
      "outputs": [],
      "stateMutability": "nonpayable",
      "type": "function"
    },
    {
      "inputs": [],
      "name": "totalSupply",
      "outputs": [
        {
          "internalType": "uint256",
          "name": "",
          "type": "uint256"
        }
      ],
      "stateMutability": "view",
      "type": "function"
    },
    {
      "inputs": [
        {
          "internalType": "address",
          "name": "guy",
          "type": "address"
        },
        {
          "internalType": "uint256",
          "name": "wad",
          "type": "uint256"
        }
      ],
      "name": "approve",
      "outputs": [
        {
          "internalType": "bool",
          "name": "",
          "type": "bool"
        }
      ],
      "stateMutability": "nonpayable",
      "type": "function"
    },
    {
      "inputs": [
        {
          "internalType": "address",
          "name": "dst",
          "type": "address"
        },
        {
          "internalType": "uint256",
          "name": "wad",
          "type": "uint256"
        }
      ],
      "name": "transfer",
      "outputs": [
        {
          "internalType": "bool",
          "name": "",
          "type": "bool"
        }
      ],
      "stateMutability": "nonpayable",
      "type": "function"
    },
    {
      "inputs": [
        {
          "internalType": "address",
          "name": "src",
          "type": "address"
        },
        {
          "internalType": "address",
          "name": "dst",
          "type": "address"
        },
        {
          "internalType": "uint256",
          "name": "wad",
          "type": "uint256"
        }
      ],
      "name": "transferFrom",
      "outputs": [
        {
          "internalType": "bool",
          "name": "",
          "type": "bool"
        }
      ],
      "stateMutability": "nonpayable",
      "type": "function"
    }
  ],
  "bytecode": "0x60c0604052600b60808190526a2bb930b83832b21021272160a91b60a090815261002c9160009190610078565b50604080518082019091526004808252632ba1272160e11b602090920191825261005891600191610078565b506002805460ff1916601217905534801561007257600080fd5b5061010b565b828054600181600116156101000203166002900490600052602060002090601f016020900481019282601f106100b957805160ff19168380011785556100e6565b828001600101855582156100e6579182015b828111156100e65782518255916020019190600101906100cb565b506100f29291506100f6565b5090565b5b808211156100f257600081556001016100f7565b6106f68061011a6000396000f3fe6080604052600436106100975760003560e01c806306fdde031461009c578063095ea7b3146101265780630dbe671f1461017357806318160ddd1461017d57806323b872dd146101a45780632e1a7d4d146101e7578063313ce5671461021157806370a082311461023c57806395d89b411461026f578063a9059cbb14610284578063d0e30db0146102bd578063dd62ed3e146102c5575b600080fd5b3480156100a857600080fd5b506100b1610300565b6040805160208082528351818301528351919283929083019185019080838360005b838110156100eb5781810151838201526020016100d3565b50505050905090810190601f1680156101185780820380516001836020036101000a031916815260200191505b509250505060405180910390f35b34801561013257600080fd5b5061015f6004803603604081101561014957600080fd5b506001600160a01b03813516906020013561038e565b604080519115158252519081900360200190f35b61017b6103f4565b005b34801561018957600080fd5b506101926103fe565b60408051918252519081900360200190f35b3480156101b057600080fd5b5061015f600480360360608110156101c757600080fd5b506001600160a01b03813581169160208101359091169060400135610402565b3480156101f357600080fd5b5061017b6004803603602081101561020a57600080fd5b5035610536565b34801561021d57600080fd5b506102266105cb565b6040805160ff9092168252519081900360200190f35b34801561024857600080fd5b506101926004803603602081101561025f57600080fd5b50356001600160a01b03166105d4565b34801561027b57600080fd5b506100b16105e6565b34801561029057600080fd5b5061015f600480360360408110156102a757600080fd5b506001600160a01b038135169060200135610640565b61017b610654565b3480156102d157600080fd5b50610192600480360360408110156102e857600080fd5b506001600160a01b03813581169160200135166106a3565b6000805460408051602060026001851615610100026000190190941693909304601f810184900484028201840190925281815292918301828280156103865780601f1061035b57610100808354040283529160200191610386565b820191906000526020600020905b81548152906001019060200180831161036957829003601f168201915b505050505081565b3360008181526004602090815260408083206001600160a01b038716808552908352818420869055815186815291519394909390927f8c5be1e5ebec7d5bd14f71427d1e84f3dd0314c0f7b2291e5b200ac8c7c3b925928290030190a350600192915050565b6103fc610654565b565b4790565b6001600160a01b03831660009081526003602052604081205482111561042757600080fd5b6001600160a01b038416331480159061046557506001600160a01b038416600090815260046020908152604080832033845290915290205460001914155b156104c5576001600160a01b038416600090815260046020908152604080832033845290915290205482111561049a57600080fd5b6001600160a01b03841660009081526004602090815260408083203384529091529020805483900390555b6001600160a01b03808516600081815260036020908152604080832080548890039055938716808352918490208054870190558351868152935191937fddf252ad1be2c89b69c2b068fc378daa952ba7f163c4a11628f55a4df523b3ef929081900390910190a35060019392505050565b3360009081526003602052604090205481111561055257600080fd5b33600081815260036020526040808220805485900390555183156108fc0291849190818181858888f19350505050158015610591573d6000803e3d6000fd5b5060408051828152905133917f7fcf532c15f0a6db0bd6d0e038bea71d30d808c7d98cb3bf7268a95bf5081b65919081900360200190a250565b60025460ff1681565b60036020526000908152604090205481565b60018054604080516020600284861615610100026000190190941693909304601f810184900484028201840190925281815292918301828280156103865780601f1061035b57610100808354040283529160200191610386565b600061064d338484610402565b9392505050565b33600081815260036020908152604091829020805434908101909155825190815291517fe1fffcc4923d04b559f4d29a8bfc6cda04eb5b0d3c460751c2402c5c5cc9109c9281900390910190a2565b60046020908152600092835260408084209091529082529020548156fea2646970667358221220166a019e730200051d60fce5e3616e20441be3e5671ce42dac702b3217c3a5da64736f6c634300060c0033",
  "immutableReferences": {},
  "source": "pragma solidity >0.4.18;\n\ncontract WBNB {\n    string public name     = \"Wrapped BNB\";\n    string public symbol   = \"WBNB\";\n    uint8  public decimals = 18;\n\n    event  Approval(address indexed src, address indexed guy, uint wad);\n    event  Transfer(address indexed src, address indexed dst, uint wad);\n    event  Deposit(address indexed dst, uint wad);\n    event  Withdrawal(address indexed src, uint wad);\n\n    mapping (address => uint)                       public  balanceOf;\n    mapping (address => mapping (address => uint))  public  allowance;\n\n    function a() public payable {\n        deposit();\n    }\n    function deposit() public payable {\n        balanceOf[msg.sender] += msg.value;\n        emit Deposit(msg.sender, msg.value);\n    }\n    function withdraw(uint wad) public {\n        require(balanceOf[msg.sender] >= wad);\n        balanceOf[msg.sender] -= wad;\n        msg.sender.transfer(wad);\n        emit Withdrawal(msg.sender, wad);\n    }\n\n    function totalSupply() public view returns (uint) {\n        return address(this).balance;\n    }\n\n    function approve(address guy, uint wad) public returns (bool) {\n        allowance[msg.sender][guy] = wad;\n        emit Approval(msg.sender, guy, wad);\n        return true;\n    }\n\n    function transfer(address dst, uint wad) public returns (bool) {\n        return transferFrom(msg.sender, dst, wad);\n    }\n\n    function transferFrom(address src, address dst, uint wad)\n    public\n    returns (bool)\n    {\n        require(balanceOf[src] >= wad);\n\n        if (src != msg.sender && allowance[src][msg.sender] != uint(-1)) {\n            require(allowance[src][msg.sender] >= wad);\n            allowance[src][msg.sender] -= wad;\n        }\n\n        balanceOf[src] -= wad;\n        balanceOf[dst] += wad;\n\n        Transfer(src, dst, wad);\n\n        return true;\n    }\n}",
  "sourcePath": "/home/rahul/Pancake Clone/pancake-farm/contracts/libs/WBNB.sol",
  "compiler": {
    "name": "solc",
    "version": "0.6.12+commit.27d51765.Emscripten.clang"
  },
  "schemaVersion": "3.3.4",
  "updatedAt": "2021-05-24T06:12:13.515Z",
  "devdoc": {
    "kind": "dev",
    "methods": {},
    "version": 1
  },
  "userdoc": {
    "kind": "user",
    "methods": {},
    "version": 1
  }
}